{
  "contractName": "Factory",
  "abi": [
    {
      "inputs": [
        {
          "internalType": "uint256",
          "name": "_pin",
          "type": "uint256"
        }
      ],
      "stateMutability": "nonpayable",
      "type": "constructor"
    },
    {
      "anonymous": false,
      "inputs": [
        {
          "indexed": false,
          "internalType": "address",
          "name": "_fractionizer",
          "type": "address"
        },
        {
          "indexed": false,
          "internalType": "contract Fractionizer",
          "name": "_fraction",
          "type": "address"
        }
      ],
      "name": "Fractionized",
      "type": "event"
    },
    {
      "inputs": [],
      "name": "frozenNfts",
      "outputs": [
        {
          "internalType": "uint256",
          "name": "",
          "type": "uint256"
        }
      ],
      "stateMutability": "view",
      "type": "function",
      "constant": true
    },
    {
      "inputs": [
        {
          "internalType": "address",
          "name": "",
          "type": "address"
        },
        {
          "internalType": "uint256",
          "name": "",
          "type": "uint256"
        },
        {
          "internalType": "address",
          "name": "",
          "type": "address"
        }
      ],
      "name": "safeMap",
      "outputs": [
        {
          "internalType": "uint256",
          "name": "",
          "type": "uint256"
        }
      ],
      "stateMutability": "view",
      "type": "function",
      "constant": true
    },
    {
      "inputs": [],
      "name": "thisFraction",
      "outputs": [
        {
          "internalType": "address",
          "name": "",
          "type": "address"
        }
      ],
      "stateMutability": "view",
      "type": "function",
      "constant": true
    },
    {
      "inputs": [
        {
          "internalType": "string",
          "name": "a",
          "type": "string"
        },
        {
          "internalType": "string",
          "name": "b",
          "type": "string"
        }
      ],
      "name": "compareStrings",
      "outputs": [
        {
          "internalType": "bool",
          "name": "",
          "type": "bool"
        }
      ],
      "stateMutability": "pure",
      "type": "function",
      "constant": true
    },
    {
      "inputs": [
        {
          "internalType": "string",
          "name": "_name",
          "type": "string"
        },
        {
          "internalType": "string",
          "name": "_symbol",
          "type": "string"
        },
        {
          "internalType": "uint256",
          "name": "_nftId",
          "type": "uint256"
        },
        {
          "internalType": "address",
          "name": "_nftAdr",
          "type": "address"
        },
        {
          "internalType": "address",
          "name": "_ercAdr",
          "type": "address"
        },
        {
          "internalType": "uint256",
          "name": "_ercInputAmount",
          "type": "uint256"
        },
        {
          "internalType": "uint256",
          "name": "_icoPrice",
          "type": "uint256"
        },
        {
          "internalType": "uint256",
          "name": "_icoSupply",
          "type": "uint256"
        }
      ],
      "name": "doFractionize",
      "outputs": [],
      "stateMutability": "payable",
      "type": "function",
      "payable": true
    },
    {
      "inputs": [
        {
          "internalType": "uint256",
          "name": "_i",
          "type": "uint256"
        },
        {
          "internalType": "uint256",
          "name": "_pin",
          "type": "uint256"
        }
      ],
      "name": "showFrx",
      "outputs": [
        {
          "internalType": "contract Fractionizer",
          "name": "",
          "type": "address"
        }
      ],
      "stateMutability": "view",
      "type": "function",
      "constant": true
    },
    {
      "inputs": [],
      "name": "myFrxCount",
      "outputs": [
        {
          "internalType": "uint256",
          "name": "",
          "type": "uint256"
        }
      ],
      "stateMutability": "view",
      "type": "function",
      "constant": true
    },
    {
      "inputs": [
        {
          "internalType": "address",
          "name": "_frx",
          "type": "address"
        }
      ],
      "name": "myFrxIndexByAddress",
      "outputs": [
        {
          "internalType": "uint256",
          "name": "",
          "type": "uint256"
        }
      ],
      "stateMutability": "view",
      "type": "function",
      "constant": true
    },
    {
      "inputs": [
        {
          "internalType": "uint256",
          "name": "_pin",
          "type": "uint256"
        }
      ],
      "name": "withdrawFunds",
      "outputs": [],
      "stateMutability": "payable",
      "type": "function",
      "payable": true
    },
    {
      "inputs": [
        {
          "internalType": "address",
          "name": "_frxAdr",
          "type": "address"
        },
        {
          "internalType": "bool",
          "name": "_limit",
          "type": "bool"
        },
        {
          "internalType": "uint256",
          "name": "_tstamp",
          "type": "uint256"
        },
        {
          "internalType": "uint256",
          "name": "_mintAmnt",
          "type": "uint256"
        }
      ],
      "name": "startCoinSale",
      "outputs": [],
      "stateMutability": "nonpayable",
      "type": "function"
    },
    {
      "inputs": [
        {
          "internalType": "address",
          "name": "_frxAdr",
          "type": "address"
        }
      ],
      "name": "withDrawFromCoinSale",
      "outputs": [],
      "stateMutability": "nonpayable",
      "type": "function"
    },
    {
      "inputs": [
        {
          "internalType": "address",
          "name": "_frxAdr",
          "type": "address"
        },
        {
          "internalType": "uint256",
          "name": "_amnt",
          "type": "uint256"
        }
      ],
      "name": "buyShareFromCoinSale",
      "outputs": [],
      "stateMutability": "nonpayable",
      "type": "function"
    }
  ],
  "bytecode": "0x608060405234801561001057600080fd5b50604051614e80380380614e808339818101604052602081101561003357600080fd5b810190808051906020019092919050505033600a60006101000a81548173ffffffffffffffffffffffffffffffffffffffff021916908373ffffffffffffffffffffffffffffffffffffffff16021790555080600681905550600160095401600981905550738a753747a1fa494ec906ce90e9f37563a8af630e600e60006101000a81548173ffffffffffffffffffffffffffffffffffffffff021916908373ffffffffffffffffffffffffffffffffffffffff16021790555050614d83806100fd6000396000f3fe608060405260043610620000b65760003560e01c8063b1d5ff61116200006d578063b1d5ff611462000436578063bed34bba1462000464578063c2d23b5a14620005e5578063d2012edd1462000678578063e37617d914620006d7578063ebea4e48146200072c57620000b6565b80631026283d14620000bb578063155dd5ee146200013057806357f8a4ae14620001615780636b837d7314620001ea5780637b0d4e9d146200024457806393de27301462000272575b600080fd5b348015620000c857600080fd5b506200012e60048036036080811015620000e157600080fd5b81019080803573ffffffffffffffffffffffffffffffffffffffff169060200190929190803515159060200190929190803590602001909291908035906020019092919050505062000795565b005b6200015f600480360360208110156200014857600080fd5b810190808035906020019092919050505062000856565b005b3480156200016e57600080fd5b50620001a8600480360360408110156200018757600080fd5b81019080803590602001909291908035906020019092919050505062000954565b604051808273ffffffffffffffffffffffffffffffffffffffff1673ffffffffffffffffffffffffffffffffffffffff16815260200191505060405180910390f35b348015620001f757600080fd5b506200020262000a63565b604051808273ffffffffffffffffffffffffffffffffffffffff1673ffffffffffffffffffffffffffffffffffffffff16815260200191505060405180910390f35b3480156200025157600080fd5b506200025c62000a89565b6040518082815260200191505060405180910390f35b6200043460048036036101008110156200028b57600080fd5b8101908080359060200190640100000000811115620002a957600080fd5b820183602082011115620002bc57600080fd5b80359060200191846001830284011164010000000083111715620002df57600080fd5b91908080601f016020809104026020016040519081016040528093929190818152602001838380828437600081840152601f19601f820116905080830192505050505050509192919290803590602001906401000000008111156200034357600080fd5b8201836020820111156200035657600080fd5b803590602001918460018302840111640100000000831117156200037957600080fd5b91908080601f016020809104026020016040519081016040528093929190818152602001838380828437600081840152601f19601f82011690508083019250505050505050919291929080359060200190929190803573ffffffffffffffffffffffffffffffffffffffff169060200190929190803573ffffffffffffffffffffffffffffffffffffffff16906020019092919080359060200190929190803590602001909291908035906020019092919050505062000a8f565b005b3480156200044357600080fd5b506200044e6200179f565b6040518082815260200191505060405180910390f35b3480156200047157600080fd5b50620005cb600480360360408110156200048a57600080fd5b8101908080359060200190640100000000811115620004a857600080fd5b820183602082011115620004bb57600080fd5b80359060200191846001830284011164010000000083111715620004de57600080fd5b91908080601f016020809104026020016040519081016040528093929190818152602001838380828437600081840152601f19601f820116905080830192505050505050509192919290803590602001906401000000008111156200054257600080fd5b8201836020820111156200055557600080fd5b803590602001918460018302840111640100000000831117156200057857600080fd5b91908080601f016020809104026020016040519081016040528093929190818152602001838380828437600081840152601f19601f820116905080830192505050505050509192919290505050620017e5565b604051808215151515815260200191505060405180910390f35b348015620005f257600080fd5b5062000662600480360360608110156200060b57600080fd5b81019080803573ffffffffffffffffffffffffffffffffffffffff16906020019092919080359060200190929190803573ffffffffffffffffffffffffffffffffffffffff169060200190929190505050620018d8565b6040518082815260200191505060405180910390f35b3480156200068557600080fd5b50620006d5600480360360408110156200069e57600080fd5b81019080803573ffffffffffffffffffffffffffffffffffffffff169060200190929190803590602001909291905050506200190a565b005b348015620006e457600080fd5b506200072a60048036036020811015620006fd57600080fd5b81019080803573ffffffffffffffffffffffffffffffffffffffff169060200190929190505050620019b5565b005b3480156200073957600080fd5b506200077f600480360360208110156200075257600080fd5b81019080803573ffffffffffffffffffffffffffffffffffffffff16906020019092919050505062001a57565b6040518082815260200191505060405180910390f35b60008490508073ffffffffffffffffffffffffffffffffffffffff166346bb5b85858533866040518563ffffffff1660e01b815260040180851515151581526020018481526020018373ffffffffffffffffffffffffffffffffffffffff1673ffffffffffffffffffffffffffffffffffffffff168152602001828152602001945050505050600060405180830381600087803b1580156200083657600080fd5b505af11580156200084b573d6000803e3d6000fd5b505050505050505050565b803373ffffffffffffffffffffffffffffffffffffffff16600a60009054906101000a900473ffffffffffffffffffffffffffffffffffffffff1673ffffffffffffffffffffffffffffffffffffffff16146200091b576040517f08c379a000000000000000000000000000000000000000000000000000000000815260040180806020018281038252600e8152602001807f6e6f7420617574686f72697a656400000000000000000000000000000000000081525060200191505060405180910390fd5b60004790506200094f600a60009054906101000a900473ffffffffffffffffffffffffffffffffffffffff16828562001ba1565b505050565b6000813373ffffffffffffffffffffffffffffffffffffffff16600a60009054906101000a900473ffffffffffffffffffffffffffffffffffffffff1673ffffffffffffffffffffffffffffffffffffffff161462000a1b576040517f08c379a000000000000000000000000000000000000000000000000000000000815260040180806020018281038252600e8152602001807f6e6f7420617574686f72697a656400000000000000000000000000000000000081525060200191505060405180910390fd5b60006007858154811062000a2b57fe5b9060005260206000200160009054906101000a900473ffffffffffffffffffffffffffffffffffffffff169050809250505092915050565b600d60009054906101000a900473ffffffffffffffffffffffffffffffffffffffff1681565b60055481565b6611c37937e0800034101562000b0d576040517f08c379a00000000000000000000000000000000000000000000000000000000081526004018080602001828103825260128152602001807f696e73756666696369656e742066756e6473000000000000000000000000000081525060200191505060405180910390fd5b600085905060008173ffffffffffffffffffffffffffffffffffffffff16636352211e896040518263ffffffff1660e01b81526004018082815260200191505060206040518083038186803b15801562000b6657600080fd5b505afa15801562000b7b573d6000803e3d6000fd5b505050506040513d602081101562000b9257600080fd5b810190808051906020019092919050505090503373ffffffffffffffffffffffffffffffffffffffff168173ffffffffffffffffffffffffffffffffffffffff161462000c47576040517f08c379a00000000000000000000000000000000000000000000000000000000081526004018080602001828103825260128152602001807f697473206e6f7420796f757220746f6b656e000000000000000000000000000081525060200191505060405180910390fd5b600080600e60009054906101000a900473ffffffffffffffffffffffffffffffffffffffff1673ffffffffffffffffffffffffffffffffffffffff1663feaf968c6040518163ffffffff1660e01b815260040160a06040518083038186803b15801562000cb357600080fd5b505afa15801562000cc8573d6000803e3d6000fd5b505050506040513d60a081101562000cdf57600080fd5b81019080805190602001909291908051906020019092919080519060200190929190805190602001909291908051906020019092919050505050935050925050600081141562000d2e57600080fd5b61271082121562000da7576040517f08c379a000000000000000000000000000000000000000000000000000000000815260040180806020018281038252601b8152602001807f63757272656e6379207072696365206f7574206f662052616e6765000000000081525060200191505060405180910390fd5b600062000ebc60088d6040518082805190602001908083835b6020831062000de5578051825260208201915060208101905060208303925062000dc0565b6001836020036101000a03801982511681845116808217855250505050505090500191505090815260200160405180910390208054600181600116156101000203166002900480601f01602080910402602001604051908101604052809291908181526020018280546001816001161561010002031660029004801562000eb05780601f1062000e845761010080835404028352916020019162000eb0565b820191906000526020600020905b81548152906001019060200180831162000e9257829003601f168201915b50505050508d620017e5565b905060011515811515141562000f3a576040517f08c379a00000000000000000000000000000000000000000000000000000000081526004018080602001828103825260158152602001807f73796d626f6c20616c726561647920696e20757365000000000000000000000081525060200191505060405180910390fd5b6001861162000fb1576040517f08c379a00000000000000000000000000000000000000000000000000000000081526004018080602001828103825260138152602001807f696e73756666696369656e7420616d6f756e740000000000000000000000000081525060200191505060405180910390fd5b66038d7ea4c6800086106200102e576040517f08c379a000000000000000000000000000000000000000000000000000000000815260040180806020018281038252600c8152602001807f6f7574206f662072616e6765000000000000000000000000000000000000000081525060200191505060405180910390fd5b8973ffffffffffffffffffffffffffffffffffffffff168973ffffffffffffffffffffffffffffffffffffffff161415620010d1576040517f08c379a00000000000000000000000000000000000000000000000000000000081526004018080602001828103825260158152602001807f6e6f20707269636520676976696e6720746f6b656e000000000000000000000081525060200191505060405180910390fd5b60008810156200112d576040517f08c379a000000000000000000000000000000000000000000000000000000000815260040180806020018281038252603581526020018062004d196035913960400191505060405180910390fd5b8473ffffffffffffffffffffffffffffffffffffffff166323b872dd33308e6040518463ffffffff1660e01b8152600401808473ffffffffffffffffffffffffffffffffffffffff1673ffffffffffffffffffffffffffffffffffffffff1681526020018373ffffffffffffffffffffffffffffffffffffffff1673ffffffffffffffffffffffffffffffffffffffff1681526020018281526020019350505050600060405180830381600087803b158015620011e957600080fd5b505af1158015620011fe573d6000803e3d6000fd5b505050508c60088e6040518082805190602001908083835b602083106200123b578051825260208201915060208101905060208303925062001216565b6001836020036101000a038019825116818451168082178552505050505050905001915050908152602001604051809103902090805190602001906200128392919062001cb4565b506000338e8e600c60009054906101000a900473ffffffffffffffffffffffffffffffffffffffff168f8c8c600b60009054906101000a900473ffffffffffffffffffffffffffffffffffffffff16604051620012e09062001d3b565b808973ffffffffffffffffffffffffffffffffffffffff1673ffffffffffffffffffffffffffffffffffffffff16815260200180602001806020018873ffffffffffffffffffffffffffffffffffffffff1673ffffffffffffffffffffffffffffffffffffffff1681526020018781526020018681526020018581526020018473ffffffffffffffffffffffffffffffffffffffff1673ffffffffffffffffffffffffffffffffffffffff16815260200183810383528a818151815260200191508051906020019080838360005b83811015620013cb578082015181840152602081019050620013ae565b50505050905090810190601f168015620013f95780820380516001836020036101000a031916815260200191505b50838103825289818151815260200191508051906020019080838360005b838110156200143457808201518184015260208101905062001417565b50505050905090810190601f168015620014625780820380516001836020036101000a031916815260200191505b509a5050505050505050505050604051809103906000f0801580156200148c573d6000803e3d6000fd5b50905060008190506007829080600181540180825580915050600190039060005260206000200160009091909190916101000a81548173ffffffffffffffffffffffffffffffffffffffff021916908373ffffffffffffffffffffffffffffffffffffffff16021790555080600d60006101000a81548173ffffffffffffffffffffffffffffffffffffffff021916908373ffffffffffffffffffffffffffffffffffffffff16021790555080600160003373ffffffffffffffffffffffffffffffffffffffff1673ffffffffffffffffffffffffffffffffffffffff16815260200190815260200160002060008060003373ffffffffffffffffffffffffffffffffffffffff1673ffffffffffffffffffffffffffffffffffffffff16815260200190815260200160002054815260200190815260200160002060006101000a81548173ffffffffffffffffffffffffffffffffffffffff021916908373ffffffffffffffffffffffffffffffffffffffff16021790555060016000803373ffffffffffffffffffffffffffffffffffffffff1673ffffffffffffffffffffffffffffffffffffffff16815260200190815260200160002054016000803373ffffffffffffffffffffffffffffffffffffffff1673ffffffffffffffffffffffffffffffffffffffff168152602001908152602001600020819055506001600954016009819055508173ffffffffffffffffffffffffffffffffffffffff1663d3927c156040518163ffffffff1660e01b8152600401600060405180830381600087803b158015620016de57600080fd5b505af1158015620016f3573d6000803e3d6000fd5b505050507f0e206c0744e5e3dda5b7c9b151715b9bbd13cb2a15e187e7d41ea106b3ad9a198183604051808373ffffffffffffffffffffffffffffffffffffffff1673ffffffffffffffffffffffffffffffffffffffff1681526020018273ffffffffffffffffffffffffffffffffffffffff1673ffffffffffffffffffffffffffffffffffffffff1681526020019250505060405180910390a1505050505050505050505050505050565b60008060003373ffffffffffffffffffffffffffffffffffffffff1673ffffffffffffffffffffffffffffffffffffffff16815260200190815260200160002054905090565b6000816040516020018082805190602001908083835b60208310620018205780518252602082019150602081019050602083039250620017fb565b6001836020036101000a03801982511681845116808217855250505050505090500191505060405160208183030381529060405280519060200120836040516020018082805190602001908083835b602083106200189457805182526020820191506020810190506020830392506200186f565b6001836020036101000a0380198251168184511680821785525050505050509050019150506040516020818303038152906040528051906020012014905092915050565b600460205282600052604060002060205281600052604060002060205280600052604060002060009250925050505481565b60008290508073ffffffffffffffffffffffffffffffffffffffff1663fbea0b0683336040518363ffffffff1660e01b8152600401808381526020018273ffffffffffffffffffffffffffffffffffffffff1673ffffffffffffffffffffffffffffffffffffffff16815260200192505050600060405180830381600087803b1580156200199757600080fd5b505af1158015620019ac573d6000803e3d6000fd5b50505050505050565b60008190508073ffffffffffffffffffffffffffffffffffffffff1663e832d76a336040518263ffffffff1660e01b8152600401808273ffffffffffffffffffffffffffffffffffffffff1673ffffffffffffffffffffffffffffffffffffffff168152602001915050600060405180830381600087803b15801562001a3a57600080fd5b505af115801562001a4f573d6000803e3d6000fd5b505050505050565b60003373ffffffffffffffffffffffffffffffffffffffff16600260008473ffffffffffffffffffffffffffffffffffffffff1673ffffffffffffffffffffffffffffffffffffffff16815260200190815260200160002060009054906101000a900473ffffffffffffffffffffffffffffffffffffffff1673ffffffffffffffffffffffffffffffffffffffff161462001b5a576040517f08c379a000000000000000000000000000000000000000000000000000000000815260040180806020018281038252600e8152602001807f6e6f7420796f757220746f6b656e00000000000000000000000000000000000081525060200191505060405180910390fd5b600360008373ffffffffffffffffffffffffffffffffffffffff1673ffffffffffffffffffffffffffffffffffffffff168152602001908152602001600020549050919050565b803373ffffffffffffffffffffffffffffffffffffffff16600a60009054906101000a900473ffffffffffffffffffffffffffffffffffffffff1673ffffffffffffffffffffffffffffffffffffffff161462001c66576040517f08c379a000000000000000000000000000000000000000000000000000000000815260040180806020018281038252600e8152602001807f6e6f7420617574686f72697a656400000000000000000000000000000000000081525060200191505060405180910390fd5b8373ffffffffffffffffffffffffffffffffffffffff166108fc849081150290604051600060405180830381858888f1935050505015801562001cad573d6000803e3d6000fd5b5050505050565b828054600181600116156101000203166002900490600052602060002090601f016020900481019282601f1062001cf757805160ff191683800117855562001d28565b8280016001018555821562001d28579182015b8281111562001d2757825182559160200191906001019062001d0a565b5b50905062001d37919062001d49565b5090565b612fa78062001d7283390190565b62001d6e91905b8082111562001d6a57600081600090555060010162001d50565b5090565b9056fe60806040523480156200001157600080fd5b5060405162002fa738038062002fa783398181016040526101008110156200003857600080fd5b8101908080519060200190929190805160405193929190846401000000008211156200006357600080fd5b838201915060208201858111156200007a57600080fd5b82518660018202830111640100000000821117156200009857600080fd5b8083526020830192505050908051906020019080838360005b83811015620000ce578082015181840152602081019050620000b1565b50505050905090810190601f168015620000fc5780820380516001836020036101000a031916815260200191505b50604052602001805160405193929190846401000000008211156200012057600080fd5b838201915060208201858111156200013757600080fd5b82518660018202830111640100000000821117156200015557600080fd5b8083526020830192505050908051906020019080838360005b838110156200018b5780820151818401526020810190506200016e565b50505050905090810190601f168015620001b95780820380516001836020036101000a031916815260200191505b506040526020018051906020019092919080519060200190929190805190602001909291908051906020019092919080519060200190929190505050868681600390805190602001906200020f92919062000389565b5080600490805190602001906200022892919062000389565b506012600560006101000a81548160ff021916908360ff160217905550505084600c60006101000a81548173ffffffffffffffffffffffffffffffffffffffff021916908373ffffffffffffffffffffffffffffffffffffffff16021790555083600b8190555084601060006101000a81548173ffffffffffffffffffffffffffffffffffffffff021916908373ffffffffffffffffffffffffffffffffffffffff16021790555082600681905550670de0b6b3a76400008202600781905550670de0b6b3a7640000820260088190555080601160006101000a81548173ffffffffffffffffffffffffffffffffffffffff021916908373ffffffffffffffffffffffffffffffffffffffff16021790555087601360006101000a81548173ffffffffffffffffffffffffffffffffffffffff021916908373ffffffffffffffffffffffffffffffffffffffff160217905550505050505050505062000438565b828054600181600116156101000203166002900490600052602060002090601f016020900481019282601f10620003cc57805160ff1916838001178555620003fd565b82800160010185558215620003fd579182015b82811115620003fc578251825591602001919060010190620003df565b5b5090506200040c919062000410565b5090565b6200043591905b808211156200043157600081600090555060010162000417565b5090565b90565b612b5f80620004486000396000f3fe60806040526004361061016a5760003560e01c806373952d61116100d1578063a457c2d71161008a578063dd62ed3e11610064578063dd62ed3e14610990578063e832d76a14610a15578063f4b9fa7514610a66578063fbea0b0614610abd5761016b565b8063a457c2d7146108a0578063a9059cbb14610913578063d3927c15146109865761016b565b806373952d61146106475780638df99eb8146106cc57806395d89b4114610707578063995073e7146107975780639b7c51d0146107ee5780639da273bc146108495761016b565b8063313ce56711610123578063313ce5671461043b578063395093511461046c57806346bb5b85146104df57806347ccca021461055057806366c1dbf3146105a757806370a08231146105e25761016b565b8063035f962d1461017a57806306fdde03146101ff578063095ea7b31461028f57806318160ddd146103025780631fd71d841461032d57806323b872dd146103a85761016b565b5b34801561017757600080fd5b50005b34801561018657600080fd5b506101fd6004803603608081101561019d57600080fd5b81019080803573ffffffffffffffffffffffffffffffffffffffff169060200190929190803573ffffffffffffffffffffffffffffffffffffffff1690602001909291908035906020019092919080359060200190929190505050610b18565b005b34801561020b57600080fd5b50610214610b71565b6040518080602001828103825283818151815260200191508051906020019080838360005b83811015610254578082015181840152602081019050610239565b50505050905090810190601f1680156102815780820380516001836020036101000a031916815260200191505b509250505060405180910390f35b34801561029b57600080fd5b506102e8600480360360408110156102b257600080fd5b81019080803573ffffffffffffffffffffffffffffffffffffffff16906020019092919080359060200190929190505050610c13565b604051808215151515815260200191505060405180910390f35b34801561030e57600080fd5b50610317610c31565b6040518082815260200191505060405180910390f35b34801561033957600080fd5b506103a66004803603606081101561035057600080fd5b8101908080359060200190929190803573ffffffffffffffffffffffffffffffffffffffff169060200190929190803573ffffffffffffffffffffffffffffffffffffffff169060200190929190505050610c3b565b005b3480156103b457600080fd5b50610421600480360360608110156103cb57600080fd5b81019080803573ffffffffffffffffffffffffffffffffffffffff169060200190929190803573ffffffffffffffffffffffffffffffffffffffff16906020019092919080359060200190929190505050610e2d565b604051808215151515815260200191505060405180910390f35b34801561044757600080fd5b50610450610f06565b604051808260ff1660ff16815260200191505060405180910390f35b34801561047857600080fd5b506104c56004803603604081101561048f57600080fd5b81019080803573ffffffffffffffffffffffffffffffffffffffff16906020019092919080359060200190929190505050610f1d565b604051808215151515815260200191505060405180910390f35b3480156104eb57600080fd5b5061054e6004803603608081101561050257600080fd5b8101908080351515906020019092919080359060200190929190803573ffffffffffffffffffffffffffffffffffffffff16906020019092919080359060200190929190505050610fd0565b005b34801561055c57600080fd5b506105656111b6565b604051808273ffffffffffffffffffffffffffffffffffffffff1673ffffffffffffffffffffffffffffffffffffffff16815260200191505060405180910390f35b3480156105b357600080fd5b506105e0600480360360208110156105ca57600080fd5b81019080803590602001909291905050506111dc565b005b3480156105ee57600080fd5b506106316004803603602081101561060557600080fd5b81019080803573ffffffffffffffffffffffffffffffffffffffff1690602001909291905050506111df565b6040518082815260200191505060405180910390f35b34801561065357600080fd5b506106ca6004803603608081101561066a57600080fd5b81019080803573ffffffffffffffffffffffffffffffffffffffff169060200190929190803573ffffffffffffffffffffffffffffffffffffffff1690602001909291908035906020019092919080359060200190929190505050611227565b005b3480156106d857600080fd5b50610705600480360360208110156106ef57600080fd5b8101908080359060200190929190505050611280565b005b34801561071357600080fd5b5061071c611378565b6040518080602001828103825283818151815260200191508051906020019080838360005b8381101561075c578082015181840152602081019050610741565b50505050905090810190601f1680156107895780820380516001836020036101000a031916815260200191505b509250505060405180910390f35b3480156107a357600080fd5b506107ac61141a565b604051808273ffffffffffffffffffffffffffffffffffffffff1673ffffffffffffffffffffffffffffffffffffffff16815260200191505060405180910390f35b3480156107fa57600080fd5b506108476004803603604081101561081157600080fd5b8101908080359060200190929190803573ffffffffffffffffffffffffffffffffffffffff169060200190929190505050611440565b005b34801561085557600080fd5b5061085e611639565b604051808273ffffffffffffffffffffffffffffffffffffffff1673ffffffffffffffffffffffffffffffffffffffff16815260200191505060405180910390f35b3480156108ac57600080fd5b506108f9600480360360408110156108c357600080fd5b81019080803573ffffffffffffffffffffffffffffffffffffffff1690602001909291908035906020019092919050505061165f565b604051808215151515815260200191505060405180910390f35b34801561091f57600080fd5b5061096c6004803603604081101561093657600080fd5b81019080803573ffffffffffffffffffffffffffffffffffffffff1690602001909291908035906020019092919050505061172c565b604051808215151515815260200191505060405180910390f35b61098e61174a565b005b34801561099c57600080fd5b506109ff600480360360408110156109b357600080fd5b81019080803573ffffffffffffffffffffffffffffffffffffffff169060200190929190803573ffffffffffffffffffffffffffffffffffffffff16906020019092919050505061174c565b6040518082815260200191505060405180910390f35b348015610a2157600080fd5b50610a6460048036036020811015610a3857600080fd5b81019080803573ffffffffffffffffffffffffffffffffffffffff1690602001909291905050506117d3565b005b348015610a7257600080fd5b50610a7b611c07565b604051808273ffffffffffffffffffffffffffffffffffffffff1673ffffffffffffffffffffffffffffffffffffffff16815260200191505060405180910390f35b348015610ac957600080fd5b50610b1660048036036040811015610ae057600080fd5b8101908080359060200190929190803573ffffffffffffffffffffffffffffffffffffffff169060200190929190505050611c2d565b005b8273ffffffffffffffffffffffffffffffffffffffff168473ffffffffffffffffffffffffffffffffffffffff161415610b5157600080fd5b670de0b6b3a764000082029150670de0b6b3a76400008102905050505050565b606060038054600181600116156101000203166002900480601f016020809104026020016040519081016040528092919081815260200182805460018160011615610100020316600290048015610c095780601f10610bde57610100808354040283529160200191610c09565b820191906000526020600020905b815481529060010190602001808311610bec57829003601f168201915b5050505050905090565b6000610c27610c2061225a565b8484612262565b6001905092915050565b6000600254905090565b81601360009054906101000a900473ffffffffffffffffffffffffffffffffffffffff1673ffffffffffffffffffffffffffffffffffffffff168173ffffffffffffffffffffffffffffffffffffffff1614610cff576040517f08c379a000000000000000000000000000000000000000000000000000000000815260040180806020018281038252600e8152602001807f6e6f7420617574686f72697a656400000000000000000000000000000000000081525060200191505060405180910390fd5b670de0b6b3a764000084029350600854841115610d84576040517f08c379a00000000000000000000000000000000000000000000000000000000081526004018080602001828103825260128152602001807f696e737566696369656e7420746f6b656e73000000000000000000000000000081525060200191505060405180910390fd5b600960009054906101000a900460ff1615610e1257600a54421015610e11576040517f08c379a00000000000000000000000000000000000000000000000000000000081526004018080602001828103825260088152602001807f6e6f74206f76657200000000000000000000000000000000000000000000000081525060200191505060405180910390fd5b5b8360085403600881905550610e278285612459565b50505050565b6000610e3a848484612620565b610efb84610e4661225a565b610ef685604051806060016040528060288152602001612a9460289139600160008b73ffffffffffffffffffffffffffffffffffffffff1673ffffffffffffffffffffffffffffffffffffffff1681526020019081526020016000206000610eac61225a565b73ffffffffffffffffffffffffffffffffffffffff1673ffffffffffffffffffffffffffffffffffffffff168152602001908152602001600020546128e19092919063ffffffff16565b612262565b600190509392505050565b6000600560009054906101000a900460ff16905090565b6000610fc6610f2a61225a565b84610fc18560016000610f3b61225a565b73ffffffffffffffffffffffffffffffffffffffff1673ffffffffffffffffffffffffffffffffffffffff16815260200190815260200160002060008973ffffffffffffffffffffffffffffffffffffffff1673ffffffffffffffffffffffffffffffffffffffff1681526020019081526020016000205461299b90919063ffffffff16565b612262565b6001905092915050565b81601360009054906101000a900473ffffffffffffffffffffffffffffffffffffffff1673ffffffffffffffffffffffffffffffffffffffff168173ffffffffffffffffffffffffffffffffffffffff1614611094576040517f08c379a000000000000000000000000000000000000000000000000000000000815260040180806020018281038252600e8152602001807f6e6f7420617574686f72697a656400000000000000000000000000000000000081525060200191505060405180910390fd5b670de0b6b3a764000082029150601360009054906101000a900473ffffffffffffffffffffffffffffffffffffffff1673ffffffffffffffffffffffffffffffffffffffff168373ffffffffffffffffffffffffffffffffffffffff1614611164576040517f08c379a000000000000000000000000000000000000000000000000000000000815260040180806020018281038252600a8152602001807f6f6e6c79206f776e65720000000000000000000000000000000000000000000081525060200191505060405180910390fd5b60011515851515141561118257836007024201600a8190555061118b565b6000600a819055505b84600960006101000a81548160ff0219169083151502179055506111af8383612459565b5050505050565b601060009054906101000a900473ffffffffffffffffffffffffffffffffffffffff1681565b50565b60008060008373ffffffffffffffffffffffffffffffffffffffff1673ffffffffffffffffffffffffffffffffffffffff168152602001908152602001600020549050919050565b8273ffffffffffffffffffffffffffffffffffffffff168473ffffffffffffffffffffffffffffffffffffffff16141561126057600080fd5b670de0b6b3a764000082029150670de0b6b3a76400008102905050505050565b670de0b6b3a76400008102905060011515600960009054906101000a900460ff161515141561132257600a54421015611321576040517f08c379a00000000000000000000000000000000000000000000000000000000081526004018080602001828103825260088152602001807f6e6f74206f76657200000000000000000000000000000000000000000000000081525060200191505060405180910390fd5b5b600060085414611375576040517f08c379a0000000000000000000000000000000000000000000000000000000008152600401808060200182810382526000815260200160200191505060405180910390fd5b50565b606060048054600181600116156101000203166002900480601f0160208091040260200160405190810160405280929190818152602001828054600181600116156101000203166002900480156114105780601f106113e557610100808354040283529160200191611410565b820191906000526020600020905b8154815290600101906020018083116113f357829003601f168201915b5050505050905090565b601260009054906101000a900473ffffffffffffffffffffffffffffffffffffffff1681565b80601360009054906101000a900473ffffffffffffffffffffffffffffffffffffffff1673ffffffffffffffffffffffffffffffffffffffff168173ffffffffffffffffffffffffffffffffffffffff1614611504576040517f08c379a000000000000000000000000000000000000000000000000000000000815260040180806020018281038252600e8152602001807f6e6f7420617574686f72697a656400000000000000000000000000000000000081525060200191505060405180910390fd5b670de0b6b3a764000083029250600854831115611589576040517f08c379a00000000000000000000000000000000000000000000000000000000081526004018080602001828103825260128152602001807f696e737566696369656e7420746f6b656e73000000000000000000000000000081525060200191505060405180910390fd5b60011515600960009054906101000a900460ff161515141561161e57600a5442101561161d576040517f08c379a00000000000000000000000000000000000000000000000000000000081526004018080602001828103825260088152602001807f6e6f74206f76657200000000000000000000000000000000000000000000000081525060200191505060405180910390fd5b5b82600754036007819055508260085403600881905550505050565b601360009054906101000a900473ffffffffffffffffffffffffffffffffffffffff1681565b600061172261166c61225a565b8461171d85604051806060016040528060258152602001612b05602591396001600061169661225a565b73ffffffffffffffffffffffffffffffffffffffff1673ffffffffffffffffffffffffffffffffffffffff16815260200190815260200160002060008a73ffffffffffffffffffffffffffffffffffffffff1673ffffffffffffffffffffffffffffffffffffffff168152602001908152602001600020546128e19092919063ffffffff16565b612262565b6001905092915050565b600061174061173961225a565b8484612620565b6001905092915050565b565b6000600160008473ffffffffffffffffffffffffffffffffffffffff1673ffffffffffffffffffffffffffffffffffffffff16815260200190815260200160002060008373ffffffffffffffffffffffffffffffffffffffff1673ffffffffffffffffffffffffffffffffffffffff16815260200190815260200160002054905092915050565b80601360009054906101000a900473ffffffffffffffffffffffffffffffffffffffff1673ffffffffffffffffffffffffffffffffffffffff168173ffffffffffffffffffffffffffffffffffffffff1614611897576040517f08c379a000000000000000000000000000000000000000000000000000000000815260040180806020018281038252600e8152602001807f6e6f7420617574686f72697a656400000000000000000000000000000000000081525060200191505060405180910390fd5b601360009054906101000a900473ffffffffffffffffffffffffffffffffffffffff1673ffffffffffffffffffffffffffffffffffffffff168273ffffffffffffffffffffffffffffffffffffffff161461195a576040517f08c379a000000000000000000000000000000000000000000000000000000000815260040180806020018281038252600a8152602001807f6f6e6c79206f776e65720000000000000000000000000000000000000000000081525060200191505060405180910390fd5b600a5442116119d1576040517f08c379a00000000000000000000000000000000000000000000000000000000081526004018080602001828103825260088152602001807f6e6f74206f76657200000000000000000000000000000000000000000000000081525060200191505060405180910390fd5b6000601160009054906101000a900473ffffffffffffffffffffffffffffffffffffffff1673ffffffffffffffffffffffffffffffffffffffff166370a08231306040518263ffffffff1660e01b8152600401808273ffffffffffffffffffffffffffffffffffffffff1673ffffffffffffffffffffffffffffffffffffffff16815260200191505060206040518083038186803b158015611a7257600080fd5b505afa158015611a86573d6000803e3d6000fd5b505050506040513d6020811015611a9c57600080fd5b810190808051906020019092919050505090506000811115611c025760006008546007540390506000811115611c0057601160009054906101000a900473ffffffffffffffffffffffffffffffffffffffff1673ffffffffffffffffffffffffffffffffffffffff1663a9059cbb601360009054906101000a900473ffffffffffffffffffffffffffffffffffffffff16846040518363ffffffff1660e01b8152600401808373ffffffffffffffffffffffffffffffffffffffff1673ffffffffffffffffffffffffffffffffffffffff16815260200182815260200192505050602060405180830381600087803b158015611b9757600080fd5b505af1158015611bab573d6000803e3d6000fd5b505050506040513d6020811015611bc157600080fd5b810190808051906020019092919050505050611bff601360009054906101000a900473ffffffffffffffffffffffffffffffffffffffff1682612459565b5b505b505050565b601160009054906101000a900473ffffffffffffffffffffffffffffffffffffffff1681565b670de0b6b3a76400008202915060011515600960009054906101000a900460ff1615151415611cd0576000600a541015611ccf576040517f08c379a000000000000000000000000000000000000000000000000000000000815260040180806020018281038252600b8152602001807f6e6f74207374617274656400000000000000000000000000000000000000000081525060200191505060405180910390fd5b5b60011515600960009054906101000a900460ff1615151415611d6557600a54421115611d64576040517f08c379a00000000000000000000000000000000000000000000000000000000081526004018080602001828103825260088152602001807f746f6f206c61746500000000000000000000000000000000000000000000000081525060200191505060405180910390fd5b5b600854821115611ddd576040517f08c379a000000000000000000000000000000000000000000000000000000000815260040180806020018281038252600a8152602001807f6e6f7420656e6f7567680000000000000000000000000000000000000000000081525060200191505060405180910390fd5b600060085490506000809050601160009054906101000a900473ffffffffffffffffffffffffffffffffffffffff1673ffffffffffffffffffffffffffffffffffffffff166323b872dd843060065488026040518463ffffffff1660e01b8152600401808473ffffffffffffffffffffffffffffffffffffffff1673ffffffffffffffffffffffffffffffffffffffff1681526020018373ffffffffffffffffffffffffffffffffffffffff1673ffffffffffffffffffffffffffffffffffffffff1681526020018281526020019350505050602060405180830381600087803b158015611eca57600080fd5b505af1158015611ede573d6000803e3d6000fd5b505050506040513d6020811015611ef457600080fd5b810190808051906020019092919050505050611f108385612459565b60003090507ff188ab349dffbfca600dfcf0d2322f11bb7c09586ae5e1b5557813de2c3541f981600e600f601360009054906101000a900473ffffffffffffffffffffffffffffffffffffffff168787600654600c60009054906101000a900473ffffffffffffffffffffffffffffffffffffffff16600b54600d60009054906101000a900473ffffffffffffffffffffffffffffffffffffffff16604051808b73ffffffffffffffffffffffffffffffffffffffff1673ffffffffffffffffffffffffffffffffffffffff16815260200180602001806020018a73ffffffffffffffffffffffffffffffffffffffff1673ffffffffffffffffffffffffffffffffffffffff1681526020018981526020018881526020018781526020018673ffffffffffffffffffffffffffffffffffffffff1673ffffffffffffffffffffffffffffffffffffffff1681526020018581526020018473ffffffffffffffffffffffffffffffffffffffff1673ffffffffffffffffffffffffffffffffffffffff16815260200183810383528c8181546001816001161561010002031660029004815260200191508054600181600116156101000203166002900480156121195780601f106120ee57610100808354040283529160200191612119565b820191906000526020600020905b8154815290600101906020018083116120fc57829003601f168201915b505083810382528b81815460018160011615610100020316600290048152602001915080546001816001161561010002031660029004801561219c5780601f106121715761010080835404028352916020019161219c565b820191906000526020600020905b81548152906001019060200180831161217f57829003601f168201915b50509c5050505050505050505050505060405180910390a17f8d497a114997420a76be359ad4e6ebaeaf56f8d295a0d0014cf74adec0888b8c843087604051808473ffffffffffffffffffffffffffffffffffffffff1673ffffffffffffffffffffffffffffffffffffffff1681526020018373ffffffffffffffffffffffffffffffffffffffff1673ffffffffffffffffffffffffffffffffffffffff168152602001828152602001935050505060405180910390a15050505050565b600033905090565b600073ffffffffffffffffffffffffffffffffffffffff168373ffffffffffffffffffffffffffffffffffffffff1614156122e8576040517f08c379a0000000000000000000000000000000000000000000000000000000008152600401808060200182810382526024815260200180612ae16024913960400191505060405180910390fd5b600073ffffffffffffffffffffffffffffffffffffffff168273ffffffffffffffffffffffffffffffffffffffff16141561236e576040517f08c379a0000000000000000000000000000000000000000000000000000000008152600401808060200182810382526022815260200180612a4c6022913960400191505060405180910390fd5b80600160008573ffffffffffffffffffffffffffffffffffffffff1673ffffffffffffffffffffffffffffffffffffffff16815260200190815260200160002060008473ffffffffffffffffffffffffffffffffffffffff1673ffffffffffffffffffffffffffffffffffffffff168152602001908152602001600020819055508173ffffffffffffffffffffffffffffffffffffffff168373ffffffffffffffffffffffffffffffffffffffff167f8c5be1e5ebec7d5bd14f71427d1e84f3dd0314c0f7b2291e5b200ac8c7c3b925836040518082815260200191505060405180910390a3505050565b600073ffffffffffffffffffffffffffffffffffffffff168273ffffffffffffffffffffffffffffffffffffffff1614156124fc576040517f08c379a000000000000000000000000000000000000000000000000000000000815260040180806020018281038252601f8152602001807f45524332303a206d696e7420746f20746865207a65726f20616464726573730081525060200191505060405180910390fd5b61250860008383612a23565b61251d8160025461299b90919063ffffffff16565b600281905550612574816000808573ffffffffffffffffffffffffffffffffffffffff1673ffffffffffffffffffffffffffffffffffffffff1681526020019081526020016000205461299b90919063ffffffff16565b6000808473ffffffffffffffffffffffffffffffffffffffff1673ffffffffffffffffffffffffffffffffffffffff168152602001908152602001600020819055508173ffffffffffffffffffffffffffffffffffffffff16600073ffffffffffffffffffffffffffffffffffffffff167fddf252ad1be2c89b69c2b068fc378daa952ba7f163c4a11628f55a4df523b3ef836040518082815260200191505060405180910390a35050565b600073ffffffffffffffffffffffffffffffffffffffff168373ffffffffffffffffffffffffffffffffffffffff1614156126a6576040517f08c379a0000000000000000000000000000000000000000000000000000000008152600401808060200182810382526025815260200180612abc6025913960400191505060405180910390fd5b600073ffffffffffffffffffffffffffffffffffffffff168273ffffffffffffffffffffffffffffffffffffffff16141561272c576040517f08c379a0000000000000000000000000000000000000000000000000000000008152600401808060200182810382526023815260200180612a296023913960400191505060405180910390fd5b612737838383612a23565b6127a281604051806060016040528060268152602001612a6e602691396000808773ffffffffffffffffffffffffffffffffffffffff1673ffffffffffffffffffffffffffffffffffffffff168152602001908152602001600020546128e19092919063ffffffff16565b6000808573ffffffffffffffffffffffffffffffffffffffff1673ffffffffffffffffffffffffffffffffffffffff16815260200190815260200160002081905550612835816000808573ffffffffffffffffffffffffffffffffffffffff1673ffffffffffffffffffffffffffffffffffffffff1681526020019081526020016000205461299b90919063ffffffff16565b6000808473ffffffffffffffffffffffffffffffffffffffff1673ffffffffffffffffffffffffffffffffffffffff168152602001908152602001600020819055508173ffffffffffffffffffffffffffffffffffffffff168373ffffffffffffffffffffffffffffffffffffffff167fddf252ad1be2c89b69c2b068fc378daa952ba7f163c4a11628f55a4df523b3ef836040518082815260200191505060405180910390a3505050565b600083831115829061298e576040517f08c379a00000000000000000000000000000000000000000000000000000000081526004018080602001828103825283818151815260200191508051906020019080838360005b83811015612953578082015181840152602081019050612938565b50505050905090810190601f1680156129805780820380516001836020036101000a031916815260200191505b509250505060405180910390fd5b5082840390509392505050565b600080828401905083811015612a19576040517f08c379a000000000000000000000000000000000000000000000000000000000815260040180806020018281038252601b8152602001807f536166654d6174683a206164646974696f6e206f766572666c6f77000000000081525060200191505060405180910390fd5b8091505092915050565b50505056fe45524332303a207472616e7366657220746f20746865207a65726f206164647265737345524332303a20617070726f766520746f20746865207a65726f206164647265737345524332303a207472616e7366657220616d6f756e7420657863656564732062616c616e636545524332303a207472616e7366657220616d6f756e74206578636565647320616c6c6f77616e636545524332303a207472616e736665722066726f6d20746865207a65726f206164647265737345524332303a20617070726f76652066726f6d20746865207a65726f206164647265737345524332303a2064656372656173656420616c6c6f77616e63652062656c6f77207a65726fa264697066735822122092092b00be6f0c1680f371839a87e037ed32dd29ba5c1b495a1cfb0ab50df81464736f6c634300060600336e6f206e656761746976652062616c616e63657320666f72206672616374696f6e616c20636f6e74726163747320616c6c6f776564a2646970667358221220f96007010c537e7e666d91e7d8a21833744d01dd1bd2bd4bf56448ece956df9364736f6c63430006060033",
  "immutableReferences": {},
  "source": "// SPDX-License-Identifier: MIT\r\npragma solidity ^0.6.6;\r\n\r\n/*\r\n//////////////////////////////////////////////////////////////////////////////////////\r\n//                                                                                  //\r\n//                                                                                  //\r\n//                                                                                  //\r\n//            _____               _   _                                             //\r\n//           |  ___| __ __ _  ___| |_(_) ___                                        //\r\n//           | |_ | '__/ _` |/ __| __| |/ _ \\                                       //\r\n//           |  _|| | | (_| | (__| |_| | (_) |                                      //\r\n//           |_|  |_|  \\__,_|\\___|\\__|_|\\___/                                       //                                                                                                                                                                                                                                                                                                                                                                                                                                                                                                                                              . you done something right . now you know where to look @.\r\n//                                                                                  //\r\n//                                                                                  //\r\n//                                                                                  //\r\n//                                                                                  //\r\n//                                                                                  //\r\n//                                                                                  //\r\n//          @title :: Factory Contract                                              // \r\n//          @id :: FR-81972                                                         //\r\n//          @versiom :: 1.0.0                                                       //\r\n//                                                                                  //\r\n//          @description ::                                                         //\r\n//          The Factory FR-81972 creates Fractionizer Contracts.                    //\r\n//                                                                                  //\r\n//                                                                                  //\r\n//          @author :: fractio.xyz                                                  //\r\n//          @b2bContact :: irvin@fractio.xyz                                        //\r\n//          @OpSecContact :: nmisner@fractio.xyz                                    //\r\n//          @DigitalArchitecture :: aron@fractio.xyz                                //\r\n//          @SocialMediaContact :: poblano.daniel@fractio.xyz                       //\r\n//          @CommunityManagement :: louell_sala@fractio.xyz                         //\r\n//                                                                                  //\r\n//                                                                                  //\r\n//                                                                                  //\r\n//////////////////////////////////////////////////////////////////////////////////////\r\n*/\r\n\r\n//////////////////////////////////////////////////////////////////////////////////////\r\n//                                                                                  //\r\n//                                                                                  //\r\n//                                                                                  //\r\n//          IMPORT STATEMENTS                                                       //\r\n//                                                                                  //\r\n//                                                                                  //\r\n//////////////////////////////////////////////////////////////////////////////////////\r\n\r\nimport \"./Fractionizer.sol\";\r\nimport \"@openzeppelin/contracts/token/ERC721/IERC721.sol\";\r\nimport \"@openzeppelin/contracts/token/ERC20/IERC20.sol\";\r\n// import \"https://raw.githubusercontent.com/smartcontractkit/chainlink/master/evm-contracts/src/v0.6/VRFConsumerBase.sol\";\r\nimport \"@chainlink/contracts/src/v0.6/interfaces/AggregatorV3Interface.sol\";\r\n\r\ncontract Factory {\r\n\r\n//////////////////////////////////////////////////////////////////////////////////////\r\n//                                                                                  //\r\n//                                                                                  //\r\n//                                                                                  //\r\n//          VARIABLES                                                               //\r\n//                                                                                  //\r\n//                                                                                  //\r\n//////////////////////////////////////////////////////////////////////////////////////\r\n    \r\n    mapping(address => uint256) private clientTokenCount;\r\n    mapping(address => mapping(uint256 => address)) private clientTokenByIndex;\r\n    mapping(address => address) private ownerByAdr;\r\n    mapping(address => uint256) private indexByAdr;\r\n    mapping(address => mapping(uint256 => mapping(address => uint256))) public safeMap;\r\n    uint256 public frozenNfts;\r\n    uint256 private pin; \r\n    Fractionizer[] private fractions;\r\n    mapping(string => string) private frxSymbols;\r\n    uint256 private frxCount;\r\n    address payable private admin;\r\n    address private _mock;\r\n    address private _nfts;\r\n    address public thisFraction;\r\n    AggregatorV3Interface internal ethPriceFeed;\r\n    \r\n//////////////////////////////////////////////////////////////////////////////////////\r\n//                                                                                  //\r\n//                                                                                  //\r\n//                                                                                  //\r\n//          INITILIZATION                                                           //\r\n//                                                                                  //\r\n//                                                                                  //\r\n//////////////////////////////////////////////////////////////////////////////////////\r\n\r\n    constructor(uint256 _pin) public {\r\n        \r\n        admin = payable(msg.sender);\r\n        pin = _pin;\r\n        frxCount = frxCount + 1;\r\n        ethPriceFeed = AggregatorV3Interface(\r\n            0x8A753747A1Fa494EC906cE90E9f37563A8AF630e\r\n        );\r\n    }\r\n    \r\n    //////////////////////////////////////////////////////\r\n    //                                                  //\r\n    //                                                  //\r\n    //                                                  //\r\n    //          MODIFIER STATEMENTS                     //\r\n    //                                                  //\r\n    //                                                  //\r\n    //////////////////////////////////////////////////////\r\n    \r\n    modifier onlyAdmin(uint256 _pin) {\r\n        require(admin == msg.sender, \"not authorized\");\r\n        _;\r\n    }\r\n    \r\n    //////////////////////////////////////////////////////\r\n    //                                                  //\r\n    //                                                  //\r\n    //                                                  //\r\n    //          EVENT STATEMENTS                        //\r\n    //                                                  //\r\n    //                                                  //\r\n    //////////////////////////////////////////////////////\r\n    \r\n    event Fractionized (\r\n        address _fractionizer,\r\n        Fractionizer _fraction\r\n        );\r\n        \r\n    //////////////////////////////////////////////////////\r\n    //                                                  //\r\n    //                                                  //\r\n    //                                                  //\r\n    //          FUNCTION STATEMENTS                     //\r\n    //                                                  //\r\n    //                                                  //\r\n    //////////////////////////////////////////////////////  \r\n\r\n    \r\n    function nftSafe(address _nftAdr, uint256 _nftId, address _frxAdr, uint256 _amnt) private returns(bool, address, address, uint256, uint256){\r\n      IERC721 nft = IERC721(_nftAdr);\r\n      nft.transferFrom(msg.sender,address(this), _nftId);\r\n      safeMap[_nftAdr][_nftId][_frxAdr] = _amnt; \r\n      frozenNfts = frozenNfts + 1;\r\n    }\r\n    \r\n    function compareStrings(string memory a, string memory b) public pure returns (bool) {\r\n    return (keccak256(abi.encodePacked((a))) == keccak256(abi.encodePacked((b))));\r\n}\r\n    \r\n    function doFractionize(\r\n        // address _creator,\r\n        string memory _name, // frx token name\r\n        string memory _symbol, // frx token symbol\r\n        uint256 _nftId, // specific NFT ID\r\n        address _nftAdr, // nft token address\r\n        address _ercAdr, // price giving currency \r\n        uint256 _ercInputAmount, // initial funding of frx with price giving erc\r\n        uint256 _icoPrice, // price per frax token in _ercAdr \r\n        uint256 _icoSupply // amount of tokens initially created\r\n        ) public payable {\r\n            \r\n            // REQUIRES\r\n            require(msg.value >= 5 * 10 ** 15, \"insufficient funds\");\r\n            IERC721 nftoken = IERC721(_nftAdr);\r\n            address userIsOwner = nftoken.ownerOf(_nftId); \r\n            require(userIsOwner == msg.sender,\"its not your token\"); // user is nft owner requires nft adress id and user address \r\n            (, int256 ethPrice, ,uint256 stamp , ) = ethPriceFeed.latestRoundData();\r\n            require(stamp != 0);\r\n            require(ethPrice >= 1 * 10 ** 4 , \"currency price out of Range\" ); // erc price greater 0.0001 Dai \r\n            bool res = compareStrings(frxSymbols[_symbol], _symbol);\r\n            require(res != true, \"symbol already in use\"); // frx token symbol name free for uniquetoken \r\n            require(_icoSupply > 1,\"insufficient amount\");\r\n            require(_icoSupply < 1 * 10 ** 15,\"out of range\");\r\n            require(_ercAdr != _nftAdr, \"no price giving token\");\r\n            require(_ercInputAmount >= 0, \"no negative balances for fractional contracts allowed\");\r\n            \r\n            // Send out NFT\r\n            nftoken.transferFrom(msg.sender,address(this),_nftId);\r\n            \r\n            frxSymbols[_name] = _name; \r\n        Fractionizer doFraction = new Fractionizer(msg.sender,_name, _symbol, _nfts, _nftId, _icoPrice, _icoSupply, _mock);\r\n        address frxAdr = address(doFraction); // FRX Token Address\r\n        fractions.push(doFraction);\r\n        thisFraction = frxAdr;\r\n        clientTokenByIndex[msg.sender][clientTokenCount[msg.sender]] = frxAdr;\r\n        clientTokenCount[msg.sender] = clientTokenCount[msg.sender] + 1;\r\n        frxCount = frxCount + 1;\r\n        doFraction.reimburse();\r\n        emit Fractionized(frxAdr,doFraction);\r\n        \r\n    }\r\n    \r\n    function showFrx(uint256 _i, uint256 _pin) public onlyAdmin(_pin)  view returns(Fractionizer) {\r\n        Fractionizer showFraction = fractions[_i];\r\n        return showFraction;\r\n    }\r\n    \r\n    function myFrxCount() public view returns(uint256){\r\n        return clientTokenCount[msg.sender];\r\n    }\r\n    \r\n   function myFrxIndexByAddress(address _frx) public view returns(uint256){\r\n       require(ownerByAdr[_frx] == msg.sender, \"not your token\");\r\n       return indexByAdr[_frx];\r\n   }  \r\n    \r\n    function withdrawFunds(uint256 _pin) public onlyAdmin(_pin) payable {\r\n        uint256 balance = address(this).balance;\r\n        doTransfer(admin,balance,_pin);\r\n    }\r\n    \r\n   function startCoinSale(address _frxAdr, bool _limit, uint256 _tstamp, uint256 _mintAmnt) public {\r\n       Fractionizer myFraction = Fractionizer(_frxAdr);\r\n       myFraction.start(_limit,_tstamp,msg.sender, _mintAmnt);\r\n   } \r\n   \r\n   function withDrawFromCoinSale(address _frxAdr) public {\r\n       Fractionizer myFraction = Fractionizer(_frxAdr);\r\n       myFraction.withdrawICO(msg.sender);\r\n   }\r\n   \r\n   function buyShareFromCoinSale(address _frxAdr,  uint256 _amnt) public {\r\n       Fractionizer myFraction = Fractionizer(_frxAdr);\r\n       myFraction.buyShare(_amnt,msg.sender);\r\n   }\r\n    \r\n    function doTransfer(address payable _to, uint256 _amount, uint256 _pin) private onlyAdmin(_pin) {\r\n        _to.transfer(_amount);\r\n    }\r\n    \r\n    \r\n}",
  "sourcePath": "C:/Users/User/LINKHack/fractio_framework/src/contracts/Factory.sol",
  "compiler": {
    "name": "solc",
    "version": "0.6.6+commit.6c089d02.Emscripten.clang"
  },
  "schemaVersion": "3.3.4",
  "updatedAt": "2021-06-01T02:00:47.505Z",
  "networkType": "ethereum",
  "devdoc": {
    "methods": {}
  },
  "userdoc": {
    "methods": {
      "constructor": "///////////////////////////////////////////////////////////////////////////////////"
    }
  }
}