{
  "contractName": "Fractionizer",
  "abi": [
    {
      "inputs": [
        {
          "internalType": "address",
          "name": "creator",
          "type": "address"
        },
        {
          "internalType": "string",
          "name": "_name",
          "type": "string"
        },
        {
          "internalType": "string",
          "name": "_symbol",
          "type": "string"
        },
        {
          "internalType": "address",
          "name": "_nftAddress",
          "type": "address"
        },
        {
          "internalType": "uint256",
          "name": "_nftId",
          "type": "uint256"
        },
        {
          "internalType": "uint256",
          "name": "_sharePrice",
          "type": "uint256"
        },
        {
          "internalType": "uint256",
          "name": "_shareSupply",
          "type": "uint256"
        },
        {
          "internalType": "address",
          "name": "_daiAddress",
          "type": "address"
        }
      ],
      "stateMutability": "nonpayable",
      "type": "constructor"
    },
    {
      "anonymous": false,
      "inputs": [
        {
          "indexed": true,
          "internalType": "address",
          "name": "owner",
          "type": "address"
        },
        {
          "indexed": true,
          "internalType": "address",
          "name": "spender",
          "type": "address"
        },
        {
          "indexed": false,
          "internalType": "uint256",
          "name": "value",
          "type": "uint256"
        }
      ],
      "name": "Approval",
      "type": "event"
    },
    {
      "anonymous": false,
      "inputs": [
        {
          "indexed": true,
          "internalType": "address",
          "name": "from",
          "type": "address"
        },
        {
          "indexed": true,
          "internalType": "address",
          "name": "to",
          "type": "address"
        },
        {
          "indexed": false,
          "internalType": "uint256",
          "name": "value",
          "type": "uint256"
        }
      ],
      "name": "Transfer",
      "type": "event"
    },
    {
      "anonymous": false,
      "inputs": [
        {
          "indexed": false,
          "internalType": "address",
          "name": "client",
          "type": "address"
        },
        {
          "indexed": false,
          "internalType": "address",
          "name": "_frxAdr",
          "type": "address"
        },
        {
          "indexed": false,
          "internalType": "uint256",
          "name": "_amount",
          "type": "uint256"
        }
      ],
      "name": "clientShares",
      "type": "event"
    },
    {
      "anonymous": false,
      "inputs": [
        {
          "indexed": false,
          "internalType": "address",
          "name": "_fractionizerTokenContract",
          "type": "address"
        },
        {
          "indexed": false,
          "internalType": "string",
          "name": "_name",
          "type": "string"
        },
        {
          "indexed": false,
          "internalType": "string",
          "name": "_symbol",
          "type": "string"
        },
        {
          "indexed": false,
          "internalType": "address",
          "name": "_creator",
          "type": "address"
        },
        {
          "indexed": false,
          "internalType": "uint256",
          "name": "_total",
          "type": "uint256"
        },
        {
          "indexed": false,
          "internalType": "uint256",
          "name": "_supply",
          "type": "uint256"
        },
        {
          "indexed": false,
          "internalType": "uint256",
          "name": "_price",
          "type": "uint256"
        },
        {
          "indexed": false,
          "internalType": "address",
          "name": "_nftAdr",
          "type": "address"
        },
        {
          "indexed": false,
          "internalType": "uint256",
          "name": "_nftId",
          "type": "uint256"
        },
        {
          "indexed": false,
          "internalType": "address",
          "name": "_priceGivingErc",
          "type": "address"
        }
      ],
      "name": "shareSold",
      "type": "event"
    },
    {
      "anonymous": false,
      "inputs": [
        {
          "indexed": false,
          "internalType": "address",
          "name": "_fractionizerTokenContract",
          "type": "address"
        },
        {
          "indexed": false,
          "internalType": "string",
          "name": "_name",
          "type": "string"
        },
        {
          "indexed": false,
          "internalType": "string",
          "name": "_symbol",
          "type": "string"
        },
        {
          "indexed": false,
          "internalType": "uint256",
          "name": "_amount",
          "type": "uint256"
        },
        {
          "indexed": false,
          "internalType": "uint256",
          "name": "_price",
          "type": "uint256"
        },
        {
          "indexed": false,
          "internalType": "address",
          "name": "_priceIn",
          "type": "address"
        }
      ],
      "name": "sharesMinted",
      "type": "event"
    },
    {
      "stateMutability": "nonpayable",
      "type": "fallback"
    },
    {
      "inputs": [],
      "name": "NFTowner",
      "outputs": [
        {
          "internalType": "address",
          "name": "",
          "type": "address"
        }
      ],
      "stateMutability": "view",
      "type": "function"
    },
    {
      "inputs": [
        {
          "internalType": "address",
          "name": "owner",
          "type": "address"
        },
        {
          "internalType": "address",
          "name": "spender",
          "type": "address"
        }
      ],
      "name": "allowance",
      "outputs": [
        {
          "internalType": "uint256",
          "name": "",
          "type": "uint256"
        }
      ],
      "stateMutability": "view",
      "type": "function"
    },
    {
      "inputs": [
        {
          "internalType": "address",
          "name": "spender",
          "type": "address"
        },
        {
          "internalType": "uint256",
          "name": "amount",
          "type": "uint256"
        }
      ],
      "name": "approve",
      "outputs": [
        {
          "internalType": "bool",
          "name": "",
          "type": "bool"
        }
      ],
      "stateMutability": "nonpayable",
      "type": "function"
    },
    {
      "inputs": [
        {
          "internalType": "address",
          "name": "account",
          "type": "address"
        }
      ],
      "name": "balanceOf",
      "outputs": [
        {
          "internalType": "uint256",
          "name": "",
          "type": "uint256"
        }
      ],
      "stateMutability": "view",
      "type": "function"
    },
    {
      "inputs": [],
      "name": "dai",
      "outputs": [
        {
          "internalType": "contract IERC20",
          "name": "",
          "type": "address"
        }
      ],
      "stateMutability": "view",
      "type": "function"
    },
    {
      "inputs": [],
      "name": "decimals",
      "outputs": [
        {
          "internalType": "uint8",
          "name": "",
          "type": "uint8"
        }
      ],
      "stateMutability": "view",
      "type": "function"
    },
    {
      "inputs": [
        {
          "internalType": "address",
          "name": "spender",
          "type": "address"
        },
        {
          "internalType": "uint256",
          "name": "subtractedValue",
          "type": "uint256"
        }
      ],
      "name": "decreaseAllowance",
      "outputs": [
        {
          "internalType": "bool",
          "name": "",
          "type": "bool"
        }
      ],
      "stateMutability": "nonpayable",
      "type": "function"
    },
    {
      "inputs": [],
      "name": "frx",
      "outputs": [
        {
          "internalType": "contract ERC20",
          "name": "",
          "type": "address"
        }
      ],
      "stateMutability": "view",
      "type": "function"
    },
    {
      "inputs": [
        {
          "internalType": "address",
          "name": "spender",
          "type": "address"
        },
        {
          "internalType": "uint256",
          "name": "addedValue",
          "type": "uint256"
        }
      ],
      "name": "increaseAllowance",
      "outputs": [
        {
          "internalType": "bool",
          "name": "",
          "type": "bool"
        }
      ],
      "stateMutability": "nonpayable",
      "type": "function"
    },
    {
      "inputs": [],
      "name": "name",
      "outputs": [
        {
          "internalType": "string",
          "name": "",
          "type": "string"
        }
      ],
      "stateMutability": "view",
      "type": "function"
    },
    {
      "inputs": [],
      "name": "nft",
      "outputs": [
        {
          "internalType": "contract IERC721",
          "name": "",
          "type": "address"
        }
      ],
      "stateMutability": "view",
      "type": "function"
    },
    {
      "inputs": [],
      "name": "symbol",
      "outputs": [
        {
          "internalType": "string",
          "name": "",
          "type": "string"
        }
      ],
      "stateMutability": "view",
      "type": "function"
    },
    {
      "inputs": [],
      "name": "totalSupply",
      "outputs": [
        {
          "internalType": "uint256",
          "name": "",
          "type": "uint256"
        }
      ],
      "stateMutability": "view",
      "type": "function"
    },
    {
      "inputs": [
        {
          "internalType": "address",
          "name": "recipient",
          "type": "address"
        },
        {
          "internalType": "uint256",
          "name": "amount",
          "type": "uint256"
        }
      ],
      "name": "transfer",
      "outputs": [
        {
          "internalType": "bool",
          "name": "",
          "type": "bool"
        }
      ],
      "stateMutability": "nonpayable",
      "type": "function"
    },
    {
      "inputs": [
        {
          "internalType": "address",
          "name": "sender",
          "type": "address"
        },
        {
          "internalType": "address",
          "name": "recipient",
          "type": "address"
        },
        {
          "internalType": "uint256",
          "name": "amount",
          "type": "uint256"
        }
      ],
      "name": "transferFrom",
      "outputs": [
        {
          "internalType": "bool",
          "name": "",
          "type": "bool"
        }
      ],
      "stateMutability": "nonpayable",
      "type": "function"
    },
    {
      "inputs": [
        {
          "internalType": "bool",
          "name": "_limit",
          "type": "bool"
        },
        {
          "internalType": "uint256",
          "name": "_weeks",
          "type": "uint256"
        },
        {
          "internalType": "address",
          "name": "_creator",
          "type": "address"
        },
        {
          "internalType": "uint256",
          "name": "_mintAmnt",
          "type": "uint256"
        }
      ],
      "name": "start",
      "outputs": [],
      "stateMutability": "nonpayable",
      "type": "function"
    },
    {
      "inputs": [
        {
          "internalType": "uint256",
          "name": "_amnt",
          "type": "uint256"
        },
        {
          "internalType": "address",
          "name": "_creator",
          "type": "address"
        },
        {
          "internalType": "address",
          "name": "_to",
          "type": "address"
        }
      ],
      "name": "creatorMintTo",
      "outputs": [],
      "stateMutability": "nonpayable",
      "type": "function"
    },
    {
      "inputs": [
        {
          "internalType": "uint256",
          "name": "_amnt",
          "type": "uint256"
        },
        {
          "internalType": "address",
          "name": "_creator",
          "type": "address"
        }
      ],
      "name": "creatorBurn",
      "outputs": [],
      "stateMutability": "nonpayable",
      "type": "function"
    },
    {
      "inputs": [
        {
          "internalType": "uint256",
          "name": "shareAmount",
          "type": "uint256"
        },
        {
          "internalType": "address",
          "name": "_user",
          "type": "address"
        }
      ],
      "name": "buyShare",
      "outputs": [],
      "stateMutability": "nonpayable",
      "type": "function"
    },
    {
      "inputs": [
        {
          "internalType": "address",
          "name": "erc1",
          "type": "address"
        },
        {
          "internalType": "address",
          "name": "erc2",
          "type": "address"
        },
        {
          "internalType": "uint256",
          "name": "_amnt1",
          "type": "uint256"
        },
        {
          "internalType": "uint256",
          "name": "_amnt2",
          "type": "uint256"
        }
      ],
      "name": "createPair",
      "outputs": [],
      "stateMutability": "pure",
      "type": "function"
    },
    {
      "inputs": [
        {
          "internalType": "address",
          "name": "erc1",
          "type": "address"
        },
        {
          "internalType": "address",
          "name": "erc2",
          "type": "address"
        },
        {
          "internalType": "uint256",
          "name": "_amnt1",
          "type": "uint256"
        },
        {
          "internalType": "uint256",
          "name": "_amnt2",
          "type": "uint256"
        }
      ],
      "name": "removePair",
      "outputs": [],
      "stateMutability": "pure",
      "type": "function"
    },
    {
      "inputs": [
        {
          "internalType": "uint256",
          "name": "_amnt",
          "type": "uint256"
        }
      ],
      "name": "sellToPool",
      "outputs": [],
      "stateMutability": "view",
      "type": "function"
    },
    {
      "inputs": [
        {
          "internalType": "uint256",
          "name": "_amnt",
          "type": "uint256"
        }
      ],
      "name": "buyFromPool",
      "outputs": [],
      "stateMutability": "nonpayable",
      "type": "function"
    },
    {
      "inputs": [
        {
          "internalType": "address",
          "name": "_creator",
          "type": "address"
        }
      ],
      "name": "withdrawICO",
      "outputs": [],
      "stateMutability": "nonpayable",
      "type": "function"
    },
    {
      "inputs": [],
      "name": "reimburse",
      "outputs": [],
      "stateMutability": "payable",
      "type": "function"
    }
  ],
  "bytecode": "0x60806040523480156200001157600080fd5b5060405162002fa738038062002fa783398181016040526101008110156200003857600080fd5b8101908080519060200190929190805160405193929190846401000000008211156200006357600080fd5b838201915060208201858111156200007a57600080fd5b82518660018202830111640100000000821117156200009857600080fd5b8083526020830192505050908051906020019080838360005b83811015620000ce578082015181840152602081019050620000b1565b50505050905090810190601f168015620000fc5780820380516001836020036101000a031916815260200191505b50604052602001805160405193929190846401000000008211156200012057600080fd5b838201915060208201858111156200013757600080fd5b82518660018202830111640100000000821117156200015557600080fd5b8083526020830192505050908051906020019080838360005b838110156200018b5780820151818401526020810190506200016e565b50505050905090810190601f168015620001b95780820380516001836020036101000a031916815260200191505b506040526020018051906020019092919080519060200190929190805190602001909291908051906020019092919080519060200190929190505050868681600390805190602001906200020f92919062000389565b5080600490805190602001906200022892919062000389565b506012600560006101000a81548160ff021916908360ff160217905550505084600c60006101000a81548173ffffffffffffffffffffffffffffffffffffffff021916908373ffffffffffffffffffffffffffffffffffffffff16021790555083600b8190555084601060006101000a81548173ffffffffffffffffffffffffffffffffffffffff021916908373ffffffffffffffffffffffffffffffffffffffff16021790555082600681905550670de0b6b3a76400008202600781905550670de0b6b3a7640000820260088190555080601160006101000a81548173ffffffffffffffffffffffffffffffffffffffff021916908373ffffffffffffffffffffffffffffffffffffffff16021790555087601360006101000a81548173ffffffffffffffffffffffffffffffffffffffff021916908373ffffffffffffffffffffffffffffffffffffffff160217905550505050505050505062000438565b828054600181600116156101000203166002900490600052602060002090601f016020900481019282601f10620003cc57805160ff1916838001178555620003fd565b82800160010185558215620003fd579182015b82811115620003fc578251825591602001919060010190620003df565b5b5090506200040c919062000410565b5090565b6200043591905b808211156200043157600081600090555060010162000417565b5090565b90565b612b5f80620004486000396000f3fe60806040526004361061016a5760003560e01c806373952d61116100d1578063a457c2d71161008a578063dd62ed3e11610064578063dd62ed3e14610990578063e832d76a14610a15578063f4b9fa7514610a66578063fbea0b0614610abd5761016b565b8063a457c2d7146108a0578063a9059cbb14610913578063d3927c15146109865761016b565b806373952d61146106475780638df99eb8146106cc57806395d89b4114610707578063995073e7146107975780639b7c51d0146107ee5780639da273bc146108495761016b565b8063313ce56711610123578063313ce5671461043b578063395093511461046c57806346bb5b85146104df57806347ccca021461055057806366c1dbf3146105a757806370a08231146105e25761016b565b8063035f962d1461017a57806306fdde03146101ff578063095ea7b31461028f57806318160ddd146103025780631fd71d841461032d57806323b872dd146103a85761016b565b5b34801561017757600080fd5b50005b34801561018657600080fd5b506101fd6004803603608081101561019d57600080fd5b81019080803573ffffffffffffffffffffffffffffffffffffffff169060200190929190803573ffffffffffffffffffffffffffffffffffffffff1690602001909291908035906020019092919080359060200190929190505050610b18565b005b34801561020b57600080fd5b50610214610b71565b6040518080602001828103825283818151815260200191508051906020019080838360005b83811015610254578082015181840152602081019050610239565b50505050905090810190601f1680156102815780820380516001836020036101000a031916815260200191505b509250505060405180910390f35b34801561029b57600080fd5b506102e8600480360360408110156102b257600080fd5b81019080803573ffffffffffffffffffffffffffffffffffffffff16906020019092919080359060200190929190505050610c13565b604051808215151515815260200191505060405180910390f35b34801561030e57600080fd5b50610317610c31565b6040518082815260200191505060405180910390f35b34801561033957600080fd5b506103a66004803603606081101561035057600080fd5b8101908080359060200190929190803573ffffffffffffffffffffffffffffffffffffffff169060200190929190803573ffffffffffffffffffffffffffffffffffffffff169060200190929190505050610c3b565b005b3480156103b457600080fd5b50610421600480360360608110156103cb57600080fd5b81019080803573ffffffffffffffffffffffffffffffffffffffff169060200190929190803573ffffffffffffffffffffffffffffffffffffffff16906020019092919080359060200190929190505050610e2d565b604051808215151515815260200191505060405180910390f35b34801561044757600080fd5b50610450610f06565b604051808260ff1660ff16815260200191505060405180910390f35b34801561047857600080fd5b506104c56004803603604081101561048f57600080fd5b81019080803573ffffffffffffffffffffffffffffffffffffffff16906020019092919080359060200190929190505050610f1d565b604051808215151515815260200191505060405180910390f35b3480156104eb57600080fd5b5061054e6004803603608081101561050257600080fd5b8101908080351515906020019092919080359060200190929190803573ffffffffffffffffffffffffffffffffffffffff16906020019092919080359060200190929190505050610fd0565b005b34801561055c57600080fd5b506105656111b6565b604051808273ffffffffffffffffffffffffffffffffffffffff1673ffffffffffffffffffffffffffffffffffffffff16815260200191505060405180910390f35b3480156105b357600080fd5b506105e0600480360360208110156105ca57600080fd5b81019080803590602001909291905050506111dc565b005b3480156105ee57600080fd5b506106316004803603602081101561060557600080fd5b81019080803573ffffffffffffffffffffffffffffffffffffffff1690602001909291905050506111df565b6040518082815260200191505060405180910390f35b34801561065357600080fd5b506106ca6004803603608081101561066a57600080fd5b81019080803573ffffffffffffffffffffffffffffffffffffffff169060200190929190803573ffffffffffffffffffffffffffffffffffffffff1690602001909291908035906020019092919080359060200190929190505050611227565b005b3480156106d857600080fd5b50610705600480360360208110156106ef57600080fd5b8101908080359060200190929190505050611280565b005b34801561071357600080fd5b5061071c611378565b6040518080602001828103825283818151815260200191508051906020019080838360005b8381101561075c578082015181840152602081019050610741565b50505050905090810190601f1680156107895780820380516001836020036101000a031916815260200191505b509250505060405180910390f35b3480156107a357600080fd5b506107ac61141a565b604051808273ffffffffffffffffffffffffffffffffffffffff1673ffffffffffffffffffffffffffffffffffffffff16815260200191505060405180910390f35b3480156107fa57600080fd5b506108476004803603604081101561081157600080fd5b8101908080359060200190929190803573ffffffffffffffffffffffffffffffffffffffff169060200190929190505050611440565b005b34801561085557600080fd5b5061085e611639565b604051808273ffffffffffffffffffffffffffffffffffffffff1673ffffffffffffffffffffffffffffffffffffffff16815260200191505060405180910390f35b3480156108ac57600080fd5b506108f9600480360360408110156108c357600080fd5b81019080803573ffffffffffffffffffffffffffffffffffffffff1690602001909291908035906020019092919050505061165f565b604051808215151515815260200191505060405180910390f35b34801561091f57600080fd5b5061096c6004803603604081101561093657600080fd5b81019080803573ffffffffffffffffffffffffffffffffffffffff1690602001909291908035906020019092919050505061172c565b604051808215151515815260200191505060405180910390f35b61098e61174a565b005b34801561099c57600080fd5b506109ff600480360360408110156109b357600080fd5b81019080803573ffffffffffffffffffffffffffffffffffffffff169060200190929190803573ffffffffffffffffffffffffffffffffffffffff16906020019092919050505061174c565b6040518082815260200191505060405180910390f35b348015610a2157600080fd5b50610a6460048036036020811015610a3857600080fd5b81019080803573ffffffffffffffffffffffffffffffffffffffff1690602001909291905050506117d3565b005b348015610a7257600080fd5b50610a7b611c07565b604051808273ffffffffffffffffffffffffffffffffffffffff1673ffffffffffffffffffffffffffffffffffffffff16815260200191505060405180910390f35b348015610ac957600080fd5b50610b1660048036036040811015610ae057600080fd5b8101908080359060200190929190803573ffffffffffffffffffffffffffffffffffffffff169060200190929190505050611c2d565b005b8273ffffffffffffffffffffffffffffffffffffffff168473ffffffffffffffffffffffffffffffffffffffff161415610b5157600080fd5b670de0b6b3a764000082029150670de0b6b3a76400008102905050505050565b606060038054600181600116156101000203166002900480601f016020809104026020016040519081016040528092919081815260200182805460018160011615610100020316600290048015610c095780601f10610bde57610100808354040283529160200191610c09565b820191906000526020600020905b815481529060010190602001808311610bec57829003601f168201915b5050505050905090565b6000610c27610c2061225a565b8484612262565b6001905092915050565b6000600254905090565b81601360009054906101000a900473ffffffffffffffffffffffffffffffffffffffff1673ffffffffffffffffffffffffffffffffffffffff168173ffffffffffffffffffffffffffffffffffffffff1614610cff576040517f08c379a000000000000000000000000000000000000000000000000000000000815260040180806020018281038252600e8152602001807f6e6f7420617574686f72697a656400000000000000000000000000000000000081525060200191505060405180910390fd5b670de0b6b3a764000084029350600854841115610d84576040517f08c379a00000000000000000000000000000000000000000000000000000000081526004018080602001828103825260128152602001807f696e737566696369656e7420746f6b656e73000000000000000000000000000081525060200191505060405180910390fd5b600960009054906101000a900460ff1615610e1257600a54421015610e11576040517f08c379a00000000000000000000000000000000000000000000000000000000081526004018080602001828103825260088152602001807f6e6f74206f76657200000000000000000000000000000000000000000000000081525060200191505060405180910390fd5b5b8360085403600881905550610e278285612459565b50505050565b6000610e3a848484612620565b610efb84610e4661225a565b610ef685604051806060016040528060288152602001612a9460289139600160008b73ffffffffffffffffffffffffffffffffffffffff1673ffffffffffffffffffffffffffffffffffffffff1681526020019081526020016000206000610eac61225a565b73ffffffffffffffffffffffffffffffffffffffff1673ffffffffffffffffffffffffffffffffffffffff168152602001908152602001600020546128e19092919063ffffffff16565b612262565b600190509392505050565b6000600560009054906101000a900460ff16905090565b6000610fc6610f2a61225a565b84610fc18560016000610f3b61225a565b73ffffffffffffffffffffffffffffffffffffffff1673ffffffffffffffffffffffffffffffffffffffff16815260200190815260200160002060008973ffffffffffffffffffffffffffffffffffffffff1673ffffffffffffffffffffffffffffffffffffffff1681526020019081526020016000205461299b90919063ffffffff16565b612262565b6001905092915050565b81601360009054906101000a900473ffffffffffffffffffffffffffffffffffffffff1673ffffffffffffffffffffffffffffffffffffffff168173ffffffffffffffffffffffffffffffffffffffff1614611094576040517f08c379a000000000000000000000000000000000000000000000000000000000815260040180806020018281038252600e8152602001807f6e6f7420617574686f72697a656400000000000000000000000000000000000081525060200191505060405180910390fd5b670de0b6b3a764000082029150601360009054906101000a900473ffffffffffffffffffffffffffffffffffffffff1673ffffffffffffffffffffffffffffffffffffffff168373ffffffffffffffffffffffffffffffffffffffff1614611164576040517f08c379a000000000000000000000000000000000000000000000000000000000815260040180806020018281038252600a8152602001807f6f6e6c79206f776e65720000000000000000000000000000000000000000000081525060200191505060405180910390fd5b60011515851515141561118257836007024201600a8190555061118b565b6000600a819055505b84600960006101000a81548160ff0219169083151502179055506111af8383612459565b5050505050565b601060009054906101000a900473ffffffffffffffffffffffffffffffffffffffff1681565b50565b60008060008373ffffffffffffffffffffffffffffffffffffffff1673ffffffffffffffffffffffffffffffffffffffff168152602001908152602001600020549050919050565b8273ffffffffffffffffffffffffffffffffffffffff168473ffffffffffffffffffffffffffffffffffffffff16141561126057600080fd5b670de0b6b3a764000082029150670de0b6b3a76400008102905050505050565b670de0b6b3a76400008102905060011515600960009054906101000a900460ff161515141561132257600a54421015611321576040517f08c379a00000000000000000000000000000000000000000000000000000000081526004018080602001828103825260088152602001807f6e6f74206f76657200000000000000000000000000000000000000000000000081525060200191505060405180910390fd5b5b600060085414611375576040517f08c379a0000000000000000000000000000000000000000000000000000000008152600401808060200182810382526000815260200160200191505060405180910390fd5b50565b606060048054600181600116156101000203166002900480601f0160208091040260200160405190810160405280929190818152602001828054600181600116156101000203166002900480156114105780601f106113e557610100808354040283529160200191611410565b820191906000526020600020905b8154815290600101906020018083116113f357829003601f168201915b5050505050905090565b601260009054906101000a900473ffffffffffffffffffffffffffffffffffffffff1681565b80601360009054906101000a900473ffffffffffffffffffffffffffffffffffffffff1673ffffffffffffffffffffffffffffffffffffffff168173ffffffffffffffffffffffffffffffffffffffff1614611504576040517f08c379a000000000000000000000000000000000000000000000000000000000815260040180806020018281038252600e8152602001807f6e6f7420617574686f72697a656400000000000000000000000000000000000081525060200191505060405180910390fd5b670de0b6b3a764000083029250600854831115611589576040517f08c379a00000000000000000000000000000000000000000000000000000000081526004018080602001828103825260128152602001807f696e737566696369656e7420746f6b656e73000000000000000000000000000081525060200191505060405180910390fd5b60011515600960009054906101000a900460ff161515141561161e57600a5442101561161d576040517f08c379a00000000000000000000000000000000000000000000000000000000081526004018080602001828103825260088152602001807f6e6f74206f76657200000000000000000000000000000000000000000000000081525060200191505060405180910390fd5b5b82600754036007819055508260085403600881905550505050565b601360009054906101000a900473ffffffffffffffffffffffffffffffffffffffff1681565b600061172261166c61225a565b8461171d85604051806060016040528060258152602001612b05602591396001600061169661225a565b73ffffffffffffffffffffffffffffffffffffffff1673ffffffffffffffffffffffffffffffffffffffff16815260200190815260200160002060008a73ffffffffffffffffffffffffffffffffffffffff1673ffffffffffffffffffffffffffffffffffffffff168152602001908152602001600020546128e19092919063ffffffff16565b612262565b6001905092915050565b600061174061173961225a565b8484612620565b6001905092915050565b565b6000600160008473ffffffffffffffffffffffffffffffffffffffff1673ffffffffffffffffffffffffffffffffffffffff16815260200190815260200160002060008373ffffffffffffffffffffffffffffffffffffffff1673ffffffffffffffffffffffffffffffffffffffff16815260200190815260200160002054905092915050565b80601360009054906101000a900473ffffffffffffffffffffffffffffffffffffffff1673ffffffffffffffffffffffffffffffffffffffff168173ffffffffffffffffffffffffffffffffffffffff1614611897576040517f08c379a000000000000000000000000000000000000000000000000000000000815260040180806020018281038252600e8152602001807f6e6f7420617574686f72697a656400000000000000000000000000000000000081525060200191505060405180910390fd5b601360009054906101000a900473ffffffffffffffffffffffffffffffffffffffff1673ffffffffffffffffffffffffffffffffffffffff168273ffffffffffffffffffffffffffffffffffffffff161461195a576040517f08c379a000000000000000000000000000000000000000000000000000000000815260040180806020018281038252600a8152602001807f6f6e6c79206f776e65720000000000000000000000000000000000000000000081525060200191505060405180910390fd5b600a5442116119d1576040517f08c379a00000000000000000000000000000000000000000000000000000000081526004018080602001828103825260088152602001807f6e6f74206f76657200000000000000000000000000000000000000000000000081525060200191505060405180910390fd5b6000601160009054906101000a900473ffffffffffffffffffffffffffffffffffffffff1673ffffffffffffffffffffffffffffffffffffffff166370a08231306040518263ffffffff1660e01b8152600401808273ffffffffffffffffffffffffffffffffffffffff1673ffffffffffffffffffffffffffffffffffffffff16815260200191505060206040518083038186803b158015611a7257600080fd5b505afa158015611a86573d6000803e3d6000fd5b505050506040513d6020811015611a9c57600080fd5b810190808051906020019092919050505090506000811115611c025760006008546007540390506000811115611c0057601160009054906101000a900473ffffffffffffffffffffffffffffffffffffffff1673ffffffffffffffffffffffffffffffffffffffff1663a9059cbb601360009054906101000a900473ffffffffffffffffffffffffffffffffffffffff16846040518363ffffffff1660e01b8152600401808373ffffffffffffffffffffffffffffffffffffffff1673ffffffffffffffffffffffffffffffffffffffff16815260200182815260200192505050602060405180830381600087803b158015611b9757600080fd5b505af1158015611bab573d6000803e3d6000fd5b505050506040513d6020811015611bc157600080fd5b810190808051906020019092919050505050611bff601360009054906101000a900473ffffffffffffffffffffffffffffffffffffffff1682612459565b5b505b505050565b601160009054906101000a900473ffffffffffffffffffffffffffffffffffffffff1681565b670de0b6b3a76400008202915060011515600960009054906101000a900460ff1615151415611cd0576000600a541015611ccf576040517f08c379a000000000000000000000000000000000000000000000000000000000815260040180806020018281038252600b8152602001807f6e6f74207374617274656400000000000000000000000000000000000000000081525060200191505060405180910390fd5b5b60011515600960009054906101000a900460ff1615151415611d6557600a54421115611d64576040517f08c379a00000000000000000000000000000000000000000000000000000000081526004018080602001828103825260088152602001807f746f6f206c61746500000000000000000000000000000000000000000000000081525060200191505060405180910390fd5b5b600854821115611ddd576040517f08c379a000000000000000000000000000000000000000000000000000000000815260040180806020018281038252600a8152602001807f6e6f7420656e6f7567680000000000000000000000000000000000000000000081525060200191505060405180910390fd5b600060085490506000809050601160009054906101000a900473ffffffffffffffffffffffffffffffffffffffff1673ffffffffffffffffffffffffffffffffffffffff166323b872dd843060065488026040518463ffffffff1660e01b8152600401808473ffffffffffffffffffffffffffffffffffffffff1673ffffffffffffffffffffffffffffffffffffffff1681526020018373ffffffffffffffffffffffffffffffffffffffff1673ffffffffffffffffffffffffffffffffffffffff1681526020018281526020019350505050602060405180830381600087803b158015611eca57600080fd5b505af1158015611ede573d6000803e3d6000fd5b505050506040513d6020811015611ef457600080fd5b810190808051906020019092919050505050611f108385612459565b60003090507ff188ab349dffbfca600dfcf0d2322f11bb7c09586ae5e1b5557813de2c3541f981600e600f601360009054906101000a900473ffffffffffffffffffffffffffffffffffffffff168787600654600c60009054906101000a900473ffffffffffffffffffffffffffffffffffffffff16600b54600d60009054906101000a900473ffffffffffffffffffffffffffffffffffffffff16604051808b73ffffffffffffffffffffffffffffffffffffffff1673ffffffffffffffffffffffffffffffffffffffff16815260200180602001806020018a73ffffffffffffffffffffffffffffffffffffffff1673ffffffffffffffffffffffffffffffffffffffff1681526020018981526020018881526020018781526020018673ffffffffffffffffffffffffffffffffffffffff1673ffffffffffffffffffffffffffffffffffffffff1681526020018581526020018473ffffffffffffffffffffffffffffffffffffffff1673ffffffffffffffffffffffffffffffffffffffff16815260200183810383528c8181546001816001161561010002031660029004815260200191508054600181600116156101000203166002900480156121195780601f106120ee57610100808354040283529160200191612119565b820191906000526020600020905b8154815290600101906020018083116120fc57829003601f168201915b505083810382528b81815460018160011615610100020316600290048152602001915080546001816001161561010002031660029004801561219c5780601f106121715761010080835404028352916020019161219c565b820191906000526020600020905b81548152906001019060200180831161217f57829003601f168201915b50509c5050505050505050505050505060405180910390a17f8d497a114997420a76be359ad4e6ebaeaf56f8d295a0d0014cf74adec0888b8c843087604051808473ffffffffffffffffffffffffffffffffffffffff1673ffffffffffffffffffffffffffffffffffffffff1681526020018373ffffffffffffffffffffffffffffffffffffffff1673ffffffffffffffffffffffffffffffffffffffff168152602001828152602001935050505060405180910390a15050505050565b600033905090565b600073ffffffffffffffffffffffffffffffffffffffff168373ffffffffffffffffffffffffffffffffffffffff1614156122e8576040517f08c379a0000000000000000000000000000000000000000000000000000000008152600401808060200182810382526024815260200180612ae16024913960400191505060405180910390fd5b600073ffffffffffffffffffffffffffffffffffffffff168273ffffffffffffffffffffffffffffffffffffffff16141561236e576040517f08c379a0000000000000000000000000000000000000000000000000000000008152600401808060200182810382526022815260200180612a4c6022913960400191505060405180910390fd5b80600160008573ffffffffffffffffffffffffffffffffffffffff1673ffffffffffffffffffffffffffffffffffffffff16815260200190815260200160002060008473ffffffffffffffffffffffffffffffffffffffff1673ffffffffffffffffffffffffffffffffffffffff168152602001908152602001600020819055508173ffffffffffffffffffffffffffffffffffffffff168373ffffffffffffffffffffffffffffffffffffffff167f8c5be1e5ebec7d5bd14f71427d1e84f3dd0314c0f7b2291e5b200ac8c7c3b925836040518082815260200191505060405180910390a3505050565b600073ffffffffffffffffffffffffffffffffffffffff168273ffffffffffffffffffffffffffffffffffffffff1614156124fc576040517f08c379a000000000000000000000000000000000000000000000000000000000815260040180806020018281038252601f8152602001807f45524332303a206d696e7420746f20746865207a65726f20616464726573730081525060200191505060405180910390fd5b61250860008383612a23565b61251d8160025461299b90919063ffffffff16565b600281905550612574816000808573ffffffffffffffffffffffffffffffffffffffff1673ffffffffffffffffffffffffffffffffffffffff1681526020019081526020016000205461299b90919063ffffffff16565b6000808473ffffffffffffffffffffffffffffffffffffffff1673ffffffffffffffffffffffffffffffffffffffff168152602001908152602001600020819055508173ffffffffffffffffffffffffffffffffffffffff16600073ffffffffffffffffffffffffffffffffffffffff167fddf252ad1be2c89b69c2b068fc378daa952ba7f163c4a11628f55a4df523b3ef836040518082815260200191505060405180910390a35050565b600073ffffffffffffffffffffffffffffffffffffffff168373ffffffffffffffffffffffffffffffffffffffff1614156126a6576040517f08c379a0000000000000000000000000000000000000000000000000000000008152600401808060200182810382526025815260200180612abc6025913960400191505060405180910390fd5b600073ffffffffffffffffffffffffffffffffffffffff168273ffffffffffffffffffffffffffffffffffffffff16141561272c576040517f08c379a0000000000000000000000000000000000000000000000000000000008152600401808060200182810382526023815260200180612a296023913960400191505060405180910390fd5b612737838383612a23565b6127a281604051806060016040528060268152602001612a6e602691396000808773ffffffffffffffffffffffffffffffffffffffff1673ffffffffffffffffffffffffffffffffffffffff168152602001908152602001600020546128e19092919063ffffffff16565b6000808573ffffffffffffffffffffffffffffffffffffffff1673ffffffffffffffffffffffffffffffffffffffff16815260200190815260200160002081905550612835816000808573ffffffffffffffffffffffffffffffffffffffff1673ffffffffffffffffffffffffffffffffffffffff1681526020019081526020016000205461299b90919063ffffffff16565b6000808473ffffffffffffffffffffffffffffffffffffffff1673ffffffffffffffffffffffffffffffffffffffff168152602001908152602001600020819055508173ffffffffffffffffffffffffffffffffffffffff168373ffffffffffffffffffffffffffffffffffffffff167fddf252ad1be2c89b69c2b068fc378daa952ba7f163c4a11628f55a4df523b3ef836040518082815260200191505060405180910390a3505050565b600083831115829061298e576040517f08c379a00000000000000000000000000000000000000000000000000000000081526004018080602001828103825283818151815260200191508051906020019080838360005b83811015612953578082015181840152602081019050612938565b50505050905090810190601f1680156129805780820380516001836020036101000a031916815260200191505b509250505060405180910390fd5b5082840390509392505050565b600080828401905083811015612a19576040517f08c379a000000000000000000000000000000000000000000000000000000000815260040180806020018281038252601b8152602001807f536166654d6174683a206164646974696f6e206f766572666c6f77000000000081525060200191505060405180910390fd5b8091505092915050565b50505056fe45524332303a207472616e7366657220746f20746865207a65726f206164647265737345524332303a20617070726f766520746f20746865207a65726f206164647265737345524332303a207472616e7366657220616d6f756e7420657863656564732062616c616e636545524332303a207472616e7366657220616d6f756e74206578636565647320616c6c6f77616e636545524332303a207472616e736665722066726f6d20746865207a65726f206164647265737345524332303a20617070726f76652066726f6d20746865207a65726f206164647265737345524332303a2064656372656173656420616c6c6f77616e63652062656c6f77207a65726fa264697066735822122019a8dc71ea39c36547ce0c71c0818cf66ed24d6a0bd718eb9eca433afa52a8b164736f6c63430006060033",
  "immutableReferences": {},
  "source": "// SPDX-License-Identifier: MIT\npragma solidity ^0.6.6;\n\n/*\n//////////////////////////////////////////////////////////////////////////////////////\n//                                                                                  //\n//                                                                                  //\n//                                                                                  //\n//            _____               _   _                                             //\n//           |  ___| __ __ _  ___| |_(_) ___                                        //\n//           | |_ | '__/ _` |/ __| __| |/ _ \\                                       //\n//           |  _|| | | (_| | (__| |_| | (_) |                                      //\n//           |_|  |_|  \\__,_|\\___|\\__|_|\\___/                                       //                                                                                                                                                                                                                                                                                                                                                                                                                                                                                                                                              . hello world. catch your reward @.\n//                                                                                  //\n//                                                                                  //\n//                                                                                  //\n//                                                                                  //\n//                                                                                  //\n//                                                                                  //\n//          @title :: Fractionizer Contract                                         // \n//          @id :: FR-81369                                                         //\n//          @versiom :: 1.0.0                                                       //\n//                                                                                  //\n//          @description ::                                                         //\n//          The Fractionizer FR-81369 enables owners of a non fungible              //\n//          token ERC721 to split (fractionize) the token into a given              //\n//          amount of fractions as fungible ERC20 tokens of a given                 //\n//          price measured in a given ERC20 token.                                  //\n//                                                                                  //\n//                                                                                  //\n//          @author :: fractio.xyz                                                  //\n//          @b2bContact :: irvin@fractio.xyz                                        //\n//          @OpSecContact :: nmisner@fractio.xyz                                    //\n//          @DigitalArchitecture :: aron@fractio.xyz                                //\n//          @SocialMediaContact :: poblano.daniel@fractio.xyz                       //\n//          @CommunityManagement :: louell_sala@fractio.xyz                         //\n//                                                                                  //\n//                                                                                  //\n//                                                                                  //\n//////////////////////////////////////////////////////////////////////////////////////\n*/\n\n\n//////////////////////////////////////////////////////////////////////////////////////\n//                                                                                  //\n//                                                                                  //\n//                                                                                  //\n//          IMPORT STATEMENTS                                                       //\n//                                                                                  //\n//                                                                                  //\n//////////////////////////////////////////////////////////////////////////////////////\n\n\nimport \"@openzeppelin/contracts/token/ERC721/IERC721.sol\";\nimport \"@openzeppelin/contracts/token/ERC20/IERC20.sol\";\nimport \"@openzeppelin/contracts/token/ERC20/ERC20.sol\";\nimport \"./PriceConsumerV3.sol\";\n\ncontract Fractionizer is ERC20 {\n    \n//////////////////////////////////////////////////////////////////////////////////////\n//                                                                                  //\n//                                                                                  //\n//                                                                                  //\n//          VARIABLES                                                               //\n//                                                                                  //\n//                                                                                  //\n//////////////////////////////////////////////////////////////////////////////////////\n    \n    uint256 private sharePrice;\n    uint256 private ttlSupply;\n    uint256 private availableSupply;\n    bool private Limit;\n    uint256 private End;\n\n    uint256 private nftId;\n    address private nftAdr;\n    address private ercAdr;\n    string private fractionName;\n    string private fractionSymbol;\n\n    IERC721 public nft;\n    IERC20 public dai;\n    ERC20 public frx;\n\n    address public NFTowner;\n    \n    \n//////////////////////////////////////////////////////////////////////////////////////\n//                                                                                  //\n//                                                                                  //\n//                                                                                  //\n//          INITILIZATION                                                           //\n//                                                                                  //\n//                                                                                  //\n//////////////////////////////////////////////////////////////////////////////////////\n\n    constructor(\n        address creator,\n        string memory _name,\n        string memory _symbol,\n        address _nftAddress,\n        uint256 _nftId,\n        uint256 _sharePrice,\n        uint256 _shareSupply,\n        address _daiAddress\n    )      \n    ERC20(_name, _symbol) public {\n        nftAdr = _nftAddress;\n        nftId = _nftId;\n        nft = IERC721(_nftAddress);\n        sharePrice = _sharePrice;\n        ttlSupply = _shareSupply * 10 ** 18;\n        availableSupply = _shareSupply * 10 ** 18;\n        dai = IERC20(_daiAddress);\n        NFTowner = creator;\n    }\n\n    //////////////////////////////////////////////////////\n    //                                                  //\n    //                                                  //\n    //                                                  //\n    //          EVENT STATEMENTS                        //\n    //                                                  //\n    //                                                  //\n    //////////////////////////////////////////////////////\n    \n    event sharesMinted(\n        address _fractionizerTokenContract, \n        string _name, \n        string _symbol,\n        uint256 _amount,\n        uint256 _price,\n        address _priceIn\n        );\n\n    event shareSold(\n        address _fractionizerTokenContract, \n        string _name, \n        string _symbol, \n        address _creator, \n        uint256 _total, \n        uint256 _supply, \n        uint256 _price,\n        address _nftAdr,\n        uint256 _nftId,\n        address _priceGivingErc\n        );\n        \n    event clientShares(\n        address client, \n        address _frxAdr, \n        uint256 _amount \n        \n        );\n        \n    //////////////////////////////////////////////////////\n    //                                                  //\n    //                                                  //\n    //                                                  //\n    //          MODIFIER STATEMENTS                     //\n    //                                                  //\n    //                                                  //\n    //////////////////////////////////////////////////////\n    \n    modifier onlyCreator(address _creator){\n        require(_creator == NFTowner, \"not authorized\");\n        _;\n    }\n        \n    //////////////////////////////////////////////////////\n    //                                                  //\n    //                                                  //\n    //                                                  //\n    //          FUNCTION STATEMENTS                     //\n    //                                                  //\n    //                                                  //\n    //////////////////////////////////////////////////////\n\n    function start(bool _limit, uint256 _weeks, address _creator, uint256 _mintAmnt) onlyCreator(_creator) external {\n        _mintAmnt = _mintAmnt * 10 ** 18;\n        require(_creator == NFTowner, \"only owner\");\n        if(_limit == true) {End = block.timestamp + 7 * _weeks;} // chainlink timestamp in future\n        else End = 0;\n        Limit = _limit;\n        \n        _mint(_creator, _mintAmnt);\n    }\n    function creatorMintTo(uint256 _amnt, address _creator, address _to) onlyCreator(_creator) external {\n        _amnt = _amnt * 10 ** 18;\n        require(_amnt <= availableSupply, \"insuficient tokens\"); // amount smaller than available supply  \n        if(Limit) require(block.timestamp >= End, \"not over\"); // chainlink timestamp\n        availableSupply = availableSupply - _amnt;\n        _mint(_to, _amnt);\n    }\n    function creatorBurn(uint256 _amnt, address _creator) onlyCreator(_creator) external {\n        _amnt = _amnt * 10 ** 18;\n       require(_amnt <= availableSupply, \"insuficient tokens\"); // amount smaller than available supply  \n       if(Limit == true) require(block.timestamp >= End, \"not over\"); // chainlink timestamp \n       ttlSupply = ttlSupply - _amnt;\n       availableSupply = availableSupply - _amnt;\n    }\n    function buyShare(uint256 shareAmount,address _user) external {\n         shareAmount = shareAmount * 10 ** 18;\n        if(Limit == true) require(End >= 0, \"not started\");\n        if(Limit == true) require(block.timestamp <= End, \"too late\"); // chainlink timestamp \n        require(shareAmount <= availableSupply, \"not enough\");\n        \n        \n        uint256 _total = availableSupply;\n        uint256 _liquid = 0;\n        \n        dai.transferFrom(_user, address(this), shareAmount * sharePrice);\n        _mint(_user, shareAmount);\n        \n        address token = address(this);\n        emit shareSold(token , fractionName, fractionSymbol, NFTowner, _total, _liquid, sharePrice, nftAdr, nftId, ercAdr);\n        emit clientShares(_user, address(this), shareAmount);\n    }\n    function createPair(address erc1, address erc2, uint256 _amnt1, uint256 _amnt2) external pure {\n        require(erc1 != erc2);\n         _amnt1 = _amnt1 * 10 ** 18;\n         _amnt2 = _amnt2 * 10 ** 18;\n        // return (erc1, erc2);   \n    }\n    function removePair(address erc1, address erc2, uint256 _amnt1, uint256 _amnt2) external pure {\n        require(erc1 != erc2);\n         _amnt1 = _amnt1 * 10 ** 18;\n         _amnt2 = _amnt2 * 10 ** 18;\n         // return (erc1, erc2); \n    }\n    function sellToPool(uint256 _amnt) external view {\n         _amnt = _amnt * 10 ** 18;\n        if(Limit == true) require(block.timestamp >= End, \"not over\"); // chainlink timestamp\n        require(availableSupply == 0, \"\");\n        \n    }\n    function buyFromPool(uint256 _amnt) external {\n        \n    }\n    function withdrawICO(address _creator) onlyCreator(_creator) external {\n        require(_creator == NFTowner, \"only owner\");\n        require(block.timestamp > End, \"not over\");\n        uint256 daiBalance = dai.balanceOf(address(this));\n        if (daiBalance > 0) {\n            // Check user DAI Balance\n            uint256 unsoldShareBalance = ttlSupply - availableSupply;\n            if (unsoldShareBalance > 0) {\n                // Check Contract \n                dai.transfer(NFTowner, daiBalance);\n                _mint(NFTowner, unsoldShareBalance);\n            }\n        }\n    }\n    function reimburse() external payable {\n        \n    }\n    fallback() external {\n        \n    }\n}",
  "sourcePath": "/Users/iii6/Documents/FractioFramework/Repos/fractio/src/contracts/Fractionizer.sol",
  "compiler": {
    "name": "solc",
    "version": "0.6.6+commit.6c089d02.Emscripten.clang"
  },
  "schemaVersion": "3.4.1",
  "updatedAt": "2021-08-03T11:34:54.306Z",
  "devdoc": {
    "methods": {
      "allowance(address,address)": {
        "details": "See {IERC20-allowance}."
      },
      "approve(address,uint256)": {
        "details": "See {IERC20-approve}.     * Requirements:     * - `spender` cannot be the zero address."
      },
      "balanceOf(address)": {
        "details": "See {IERC20-balanceOf}."
      },
      "decimals()": {
        "details": "Returns the number of decimals used to get its user representation. For example, if `decimals` equals `2`, a balance of `505` tokens should be displayed to a user as `5,05` (`505 / 10 ** 2`).     * Tokens usually opt for a value of 18, imitating the relationship between Ether and Wei. This is the value {ERC20} uses, unless {_setupDecimals} is called.     * NOTE: This information is only used for _display_ purposes: it in no way affects any of the arithmetic of the contract, including {IERC20-balanceOf} and {IERC20-transfer}."
      },
      "decreaseAllowance(address,uint256)": {
        "details": "Atomically decreases the allowance granted to `spender` by the caller.     * This is an alternative to {approve} that can be used as a mitigation for problems described in {IERC20-approve}.     * Emits an {Approval} event indicating the updated allowance.     * Requirements:     * - `spender` cannot be the zero address. - `spender` must have allowance for the caller of at least `subtractedValue`."
      },
      "increaseAllowance(address,uint256)": {
        "details": "Atomically increases the allowance granted to `spender` by the caller.     * This is an alternative to {approve} that can be used as a mitigation for problems described in {IERC20-approve}.     * Emits an {Approval} event indicating the updated allowance.     * Requirements:     * - `spender` cannot be the zero address."
      },
      "name()": {
        "details": "Returns the name of the token."
      },
      "symbol()": {
        "details": "Returns the symbol of the token, usually a shorter version of the name."
      },
      "totalSupply()": {
        "details": "See {IERC20-totalSupply}."
      },
      "transfer(address,uint256)": {
        "details": "See {IERC20-transfer}.     * Requirements:     * - `recipient` cannot be the zero address. - the caller must have a balance of at least `amount`."
      },
      "transferFrom(address,address,uint256)": {
        "details": "See {IERC20-transferFrom}.     * Emits an {Approval} event indicating the updated allowance. This is not required by the EIP. See the note at the beginning of {ERC20}.     * Requirements:     * - `sender` and `recipient` cannot be the zero address. - `sender` must have a balance of at least `amount`. - the caller must have allowance for ``sender``'s tokens of at least `amount`."
      }
    }
  },
  "userdoc": {
    "methods": {
      "constructor": "///////////////////////////////////////////////////////////////////////////////////",
      "start(bool,uint256,address,uint256)": {
        "notice": "///////////////////////////////////////////////////"
      }
    }
  }
}