{
  "contractName": "FujiConsumer",
  "abi": [
    {
      "inputs": [],
      "stateMutability": "nonpayable",
      "type": "constructor"
    },
    {
      "anonymous": false,
      "inputs": [
        {
          "indexed": true,
          "internalType": "bytes32",
          "name": "id",
          "type": "bytes32"
        }
      ],
      "name": "ChainlinkCancelled",
      "type": "event"
    },
    {
      "anonymous": false,
      "inputs": [
        {
          "indexed": true,
          "internalType": "bytes32",
          "name": "id",
          "type": "bytes32"
        }
      ],
      "name": "ChainlinkFulfilled",
      "type": "event"
    },
    {
      "anonymous": false,
      "inputs": [
        {
          "indexed": true,
          "internalType": "bytes32",
          "name": "id",
          "type": "bytes32"
        }
      ],
      "name": "ChainlinkRequested",
      "type": "event"
    },
    {
      "anonymous": false,
      "inputs": [
        {
          "indexed": true,
          "internalType": "address",
          "name": "previousOwner",
          "type": "address"
        },
        {
          "indexed": true,
          "internalType": "address",
          "name": "newOwner",
          "type": "address"
        }
      ],
      "name": "OwnershipTransferred",
      "type": "event"
    },
    {
      "anonymous": false,
      "inputs": [
        {
          "indexed": true,
          "internalType": "bytes32",
          "name": "requestId",
          "type": "bytes32"
        },
        {
          "indexed": true,
          "internalType": "int256",
          "name": "change",
          "type": "int256"
        }
      ],
      "name": "RequestEthereumChangeFulfilled",
      "type": "event"
    },
    {
      "anonymous": false,
      "inputs": [
        {
          "indexed": true,
          "internalType": "bytes32",
          "name": "requestId",
          "type": "bytes32"
        },
        {
          "indexed": true,
          "internalType": "bytes32",
          "name": "market",
          "type": "bytes32"
        }
      ],
      "name": "RequestEthereumLastMarket",
      "type": "event"
    },
    {
      "anonymous": false,
      "inputs": [
        {
          "indexed": true,
          "internalType": "bytes32",
          "name": "requestId",
          "type": "bytes32"
        },
        {
          "indexed": true,
          "internalType": "uint256",
          "name": "price",
          "type": "uint256"
        }
      ],
      "name": "RequestEthereumPriceFulfilled",
      "type": "event"
    },
    {
      "anonymous": false,
      "inputs": [
        {
          "indexed": true,
          "internalType": "bytes32",
          "name": "requestId",
          "type": "bytes32"
        },
        {
          "indexed": true,
          "internalType": "int256",
          "name": "priceFeed",
          "type": "int256"
        }
      ],
      "name": "RequestpriceFeedFulfilled",
      "type": "event"
    },
    {
      "inputs": [],
      "name": "changeDay",
      "outputs": [
        {
          "internalType": "int256",
          "name": "",
          "type": "int256"
        }
      ],
      "stateMutability": "view",
      "type": "function"
    },
    {
      "inputs": [],
      "name": "currentPrice",
      "outputs": [
        {
          "internalType": "uint256",
          "name": "",
          "type": "uint256"
        }
      ],
      "stateMutability": "view",
      "type": "function"
    },
    {
      "inputs": [],
      "name": "isOwner",
      "outputs": [
        {
          "internalType": "bool",
          "name": "",
          "type": "bool"
        }
      ],
      "stateMutability": "view",
      "type": "function"
    },
    {
      "inputs": [],
      "name": "lastMarket",
      "outputs": [
        {
          "internalType": "bytes32",
          "name": "",
          "type": "bytes32"
        }
      ],
      "stateMutability": "view",
      "type": "function"
    },
    {
      "inputs": [],
      "name": "owner",
      "outputs": [
        {
          "internalType": "address",
          "name": "",
          "type": "address"
        }
      ],
      "stateMutability": "view",
      "type": "function"
    },
    {
      "inputs": [],
      "name": "priceFeed",
      "outputs": [
        {
          "internalType": "int256",
          "name": "",
          "type": "int256"
        }
      ],
      "stateMutability": "view",
      "type": "function"
    },
    {
      "inputs": [],
      "name": "priceFeedBTC",
      "outputs": [
        {
          "internalType": "int256",
          "name": "",
          "type": "int256"
        }
      ],
      "stateMutability": "view",
      "type": "function"
    },
    {
      "inputs": [],
      "name": "priceFeedETH",
      "outputs": [
        {
          "internalType": "int256",
          "name": "",
          "type": "int256"
        }
      ],
      "stateMutability": "view",
      "type": "function"
    },
    {
      "inputs": [],
      "name": "priceFeedLINK",
      "outputs": [
        {
          "internalType": "int256",
          "name": "",
          "type": "int256"
        }
      ],
      "stateMutability": "view",
      "type": "function"
    },
    {
      "inputs": [
        {
          "internalType": "address",
          "name": "newOwner",
          "type": "address"
        }
      ],
      "name": "transferOwnership",
      "outputs": [],
      "stateMutability": "nonpayable",
      "type": "function"
    },
    {
      "inputs": [
        {
          "internalType": "address",
          "name": "_oracle",
          "type": "address"
        },
        {
          "internalType": "string",
          "name": "_jobId",
          "type": "string"
        }
      ],
      "name": "requestEthereumPrice",
      "outputs": [],
      "stateMutability": "nonpayable",
      "type": "function"
    },
    {
      "inputs": [
        {
          "internalType": "address",
          "name": "_oracle",
          "type": "address"
        },
        {
          "internalType": "string",
          "name": "_jobId",
          "type": "string"
        }
      ],
      "name": "requestEthereumChange",
      "outputs": [],
      "stateMutability": "nonpayable",
      "type": "function"
    },
    {
      "inputs": [
        {
          "internalType": "address",
          "name": "_oracle",
          "type": "address"
        },
        {
          "internalType": "string",
          "name": "_jobId",
          "type": "string"
        }
      ],
      "name": "requestEthereumLastMarket",
      "outputs": [],
      "stateMutability": "nonpayable",
      "type": "function"
    },
    {
      "inputs": [
        {
          "internalType": "address",
          "name": "_oracle",
          "type": "address"
        },
        {
          "internalType": "string",
          "name": "_jobId",
          "type": "string"
        }
      ],
      "name": "requestpriceFeed",
      "outputs": [],
      "stateMutability": "nonpayable",
      "type": "function"
    },
    {
      "inputs": [
        {
          "internalType": "bytes32",
          "name": "_requestId",
          "type": "bytes32"
        },
        {
          "internalType": "uint256",
          "name": "_price",
          "type": "uint256"
        }
      ],
      "name": "fulfillEthereumPrice",
      "outputs": [],
      "stateMutability": "nonpayable",
      "type": "function"
    },
    {
      "inputs": [
        {
          "internalType": "bytes32",
          "name": "_requestId",
          "type": "bytes32"
        },
        {
          "internalType": "int256",
          "name": "_change",
          "type": "int256"
        }
      ],
      "name": "fulfillEthereumChange",
      "outputs": [],
      "stateMutability": "nonpayable",
      "type": "function"
    },
    {
      "inputs": [
        {
          "internalType": "bytes32",
          "name": "_requestId",
          "type": "bytes32"
        },
        {
          "internalType": "bytes32",
          "name": "_market",
          "type": "bytes32"
        }
      ],
      "name": "fulfillEthereumLastMarket",
      "outputs": [],
      "stateMutability": "nonpayable",
      "type": "function"
    },
    {
      "inputs": [
        {
          "internalType": "bytes32",
          "name": "_requestId",
          "type": "bytes32"
        },
        {
          "internalType": "int256",
          "name": "_priceFeed",
          "type": "int256"
        }
      ],
      "name": "fulfillpriceFeed",
      "outputs": [],
      "stateMutability": "nonpayable",
      "type": "function"
    },
    {
      "inputs": [],
      "name": "getChainlinkToken",
      "outputs": [
        {
          "internalType": "address",
          "name": "",
          "type": "address"
        }
      ],
      "stateMutability": "view",
      "type": "function"
    },
    {
      "inputs": [],
      "name": "withdrawLink",
      "outputs": [],
      "stateMutability": "nonpayable",
      "type": "function"
    },
    {
      "inputs": [
        {
          "internalType": "bytes32",
          "name": "_requestId",
          "type": "bytes32"
        },
        {
          "internalType": "uint256",
          "name": "_payment",
          "type": "uint256"
        },
        {
          "internalType": "bytes4",
          "name": "_callbackFunctionId",
          "type": "bytes4"
        },
        {
          "internalType": "uint256",
          "name": "_expiration",
          "type": "uint256"
        }
      ],
      "name": "cancelRequest",
      "outputs": [],
      "stateMutability": "nonpayable",
      "type": "function"
    },
    {
      "inputs": [],
      "name": "linkBalance",
      "outputs": [
        {
          "internalType": "uint256",
          "name": "",
          "type": "uint256"
        }
      ],
      "stateMutability": "view",
      "type": "function"
    }
  ],
  "bytecode": "0x6080604052600160045534801561001557600080fd5b5033600660006101000a81548173ffffffffffffffffffffffffffffffffffffffff021916908373ffffffffffffffffffffffffffffffffffffffff160217905550600660009054906101000a900473ffffffffffffffffffffffffffffffffffffffff1673ffffffffffffffffffffffffffffffffffffffff16600073ffffffffffffffffffffffffffffffffffffffff167f8be0079c531659141344cd1fd0a4f28419497f9722a3daafe3b4186f6b6457e060405160405180910390a36100f7736c3ff2114d788824c12b3f4c280015caf2e47cfe61010a60201b60201c565b66038d7ea4c68000600e8190555061014e565b80600260006101000a81548173ffffffffffffffffffffffffffffffffffffffff021916908373ffffffffffffffffffffffffffffffffffffffff16021790555050565b612a2e8061015d6000396000f3fe608060405234801561001057600080fd5b50600436106101425760003560e01c80639eb5f108116100b8578063c2dd57e81161007c578063c2dd57e814610551578063e9edbf031461062c578063ec65d0f81461064a578063eff69172146106b5578063f2fde38b146106d3578063f3bdf8ba1461071757610142565b80639eb5f108146103ca578063a0006019146103e8578063a46fbe1a14610420578063ab643c1014610458578063c26ecefa1461053357610142565b8063741bef1a1161010a578063741bef1a146102e05780638da5cb5b146102fe5780638dc654a2146103485780638f32d59b1461035257806392cdaaf3146103745780639d1b464a146103ac57610142565b8063165d35e1146101475780632183abd11461019157806349556aff146101af578063619cba1a146101e757806364989b1a146102c2575b600080fd5b61014f6107f2565b604051808273ffffffffffffffffffffffffffffffffffffffff1673ffffffffffffffffffffffffffffffffffffffff16815260200191505060405180910390f35b610199610801565b6040518082815260200191505060405180910390f35b6101e5600480360360408110156101c557600080fd5b810190808035906020019092919080359060200190929190505050610807565b005b6102c0600480360360408110156101fd57600080fd5b81019080803573ffffffffffffffffffffffffffffffffffffffff1690602001909291908035906020019064010000000081111561023a57600080fd5b82018360208201111561024c57600080fd5b8035906020019184600183028401116401000000008311171561026e57600080fd5b91908080601f016020809104026020016040519081016040528093929190818152602001838380828437600081840152601f19601f82011690508083019250505050505050919291929050505061095c565b005b6102ca610b3c565b6040518082815260200191505060405180910390f35b6102e8610b42565b6040518082815260200191505060405180910390f35b610306610b48565b604051808273ffffffffffffffffffffffffffffffffffffffff1673ffffffffffffffffffffffffffffffffffffffff16815260200191505060405180910390f35b610350610b72565b005b61035a610de6565b604051808215151515815260200191505060405180910390f35b6103aa6004803603604081101561038a57600080fd5b810190808035906020019092919080359060200190929190505050610e3e565b005b6103b4610f93565b6040518082815260200191505060405180910390f35b6103d2610f99565b6040518082815260200191505060405180910390f35b61041e600480360360408110156103fe57600080fd5b810190808035906020019092919080359060200190929190505050610f9f565b005b6104566004803603604081101561043657600080fd5b8101908080359060200190929190803590602001909291905050506110f4565b005b6105316004803603604081101561046e57600080fd5b81019080803573ffffffffffffffffffffffffffffffffffffffff169060200190929190803590602001906401000000008111156104ab57600080fd5b8201836020820111156104bd57600080fd5b803590602001918460018302840111640100000000831117156104df57600080fd5b91908080601f016020809104026020016040519081016040528093929190818152602001838380828437600081840152601f19601f820116905080830192505050505050509192919290505050611249565b005b61053b611426565b6040518082815260200191505060405180910390f35b61062a6004803603604081101561056757600080fd5b81019080803573ffffffffffffffffffffffffffffffffffffffff169060200190929190803590602001906401000000008111156105a457600080fd5b8201836020820111156105b657600080fd5b803590602001918460018302840111640100000000831117156105d857600080fd5b91908080601f016020809104026020016040519081016040528093929190818152602001838380828437600081840152601f19601f8201169050808301925050505050505091929192905050506114f1565b005b6106346115a2565b6040518082815260200191505060405180910390f35b6106b36004803603608081101561066057600080fd5b81019080803590602001909291908035906020019092919080357bffffffffffffffffffffffffffffffffffffffffffffffffffffffff19169060200190929190803590602001909291905050506115a8565b005b6106bd611634565b6040518082815260200191505060405180910390f35b610715600480360360208110156106e957600080fd5b81019080803573ffffffffffffffffffffffffffffffffffffffff16906020019092919050505061163a565b005b6107f06004803603604081101561072d57600080fd5b81019080803573ffffffffffffffffffffffffffffffffffffffff1690602001909291908035906020019064010000000081111561076a57600080fd5b82018360208201111561077c57600080fd5b8035906020019184600183028401116401000000008311171561079e57600080fd5b91908080601f016020809104026020016040519081016040528093929190818152602001838380828437600081840152601f19601f8201169050808301925050505050505091929192905050506116c0565b005b60006107fc6119a7565b905090565b60085481565b816005600082815260200190815260200160002060009054906101000a900473ffffffffffffffffffffffffffffffffffffffff1673ffffffffffffffffffffffffffffffffffffffff163373ffffffffffffffffffffffffffffffffffffffff16146108bf576040517f08c379a00000000000000000000000000000000000000000000000000000000081526004018080602001828103825260288152602001806129886028913960400191505060405180910390fd5b6005600082815260200190815260200160002060006101000a81549073ffffffffffffffffffffffffffffffffffffffff0219169055807f7cc135e0cebb02c3480ae5d74d377283180a2601f8f644edf7987b009316c63a60405160405180910390a281837f1a7783cfc5355cd0706abec2229662cda9cefcfc8aeb31fec8b391ba5eb67cbe60405160405180910390a381600981905550505050565b610964610de6565b6109d6576040517f08c379a00000000000000000000000000000000000000000000000000000000081526004018080602001828103825260208152602001807f4f776e61626c653a2063616c6c6572206973206e6f7420746865206f776e657281525060200191505060405180910390fd5b6109de612878565b6109f86109ea836119d1565b3063a46fbe1a60e01b6119fc565b9050610a5c6040518060400160405280600381526020017f67657400000000000000000000000000000000000000000000000000000000008152506040518060800160405280604981526020016129b06049913983611a2d9092919063ffffffff16565b610adb6040518060400160405280600481526020017f70617468000000000000000000000000000000000000000000000000000000008152506040518060400160405280601881526020017f5241572e4554482e5553442e4348414e4745504354444159000000000000000081525083611a2d9092919063ffffffff16565b610b296040518060400160405280600581526020017f74696d6573000000000000000000000000000000000000000000000000000000815250633b9aca0083611a609092919063ffffffff16565b610b368382600e54611a93565b50505050565b600c5481565b600a5481565b6000600660009054906101000a900473ffffffffffffffffffffffffffffffffffffffff16905090565b610b7a610de6565b610bec576040517f08c379a00000000000000000000000000000000000000000000000000000000081526004018080602001828103825260208152602001807f4f776e61626c653a2063616c6c6572206973206e6f7420746865206f776e657281525060200191505060405180910390fd5b6000610bf66119a7565b90508073ffffffffffffffffffffffffffffffffffffffff1663a9059cbb338373ffffffffffffffffffffffffffffffffffffffff166370a08231306040518263ffffffff1660e01b8152600401808273ffffffffffffffffffffffffffffffffffffffff1673ffffffffffffffffffffffffffffffffffffffff16815260200191505060206040518083038186803b158015610c9257600080fd5b505afa158015610ca6573d6000803e3d6000fd5b505050506040513d6020811015610cbc57600080fd5b81019080805190602001909291905050506040518363ffffffff1660e01b8152600401808373ffffffffffffffffffffffffffffffffffffffff1673ffffffffffffffffffffffffffffffffffffffff16815260200182815260200192505050602060405180830381600087803b158015610d3657600080fd5b505af1158015610d4a573d6000803e3d6000fd5b505050506040513d6020811015610d6057600080fd5b8101908080519060200190929190505050610de3576040517f08c379a00000000000000000000000000000000000000000000000000000000081526004018080602001828103825260128152602001807f556e61626c6520746f207472616e73666572000000000000000000000000000081525060200191505060405180910390fd5b50565b6000600660009054906101000a900473ffffffffffffffffffffffffffffffffffffffff1673ffffffffffffffffffffffffffffffffffffffff163373ffffffffffffffffffffffffffffffffffffffff1614905090565b816005600082815260200190815260200160002060009054906101000a900473ffffffffffffffffffffffffffffffffffffffff1673ffffffffffffffffffffffffffffffffffffffff163373ffffffffffffffffffffffffffffffffffffffff1614610ef6576040517f08c379a00000000000000000000000000000000000000000000000000000000081526004018080602001828103825260288152602001806129886028913960400191505060405180910390fd5b6005600082815260200190815260200160002060006101000a81549073ffffffffffffffffffffffffffffffffffffffff0219169055807f7cc135e0cebb02c3480ae5d74d377283180a2601f8f644edf7987b009316c63a60405160405180910390a281837f794eb9e29f6750ede99e05248d997a9ab9fa23c4a7eaff8afa729080eb7c642860405160405180910390a381600781905550505050565b60075481565b600d5481565b816005600082815260200190815260200160002060009054906101000a900473ffffffffffffffffffffffffffffffffffffffff1673ffffffffffffffffffffffffffffffffffffffff163373ffffffffffffffffffffffffffffffffffffffff1614611057576040517f08c379a00000000000000000000000000000000000000000000000000000000081526004018080602001828103825260288152602001806129886028913960400191505060405180910390fd5b6005600082815260200190815260200160002060006101000a81549073ffffffffffffffffffffffffffffffffffffffff0219169055807f7cc135e0cebb02c3480ae5d74d377283180a2601f8f644edf7987b009316c63a60405160405180910390a281837f36f03c766dbeb725bf2a1e6cf2d934a02bf3cd9644b55767c8f41ef2d4af061260405160405180910390a381600a81905550505050565b816005600082815260200190815260200160002060009054906101000a900473ffffffffffffffffffffffffffffffffffffffff1673ffffffffffffffffffffffffffffffffffffffff163373ffffffffffffffffffffffffffffffffffffffff16146111ac576040517f08c379a00000000000000000000000000000000000000000000000000000000081526004018080602001828103825260288152602001806129886028913960400191505060405180910390fd5b6005600082815260200190815260200160002060006101000a81549073ffffffffffffffffffffffffffffffffffffffff0219169055807f7cc135e0cebb02c3480ae5d74d377283180a2601f8f644edf7987b009316c63a60405160405180910390a281837f36f03c766dbeb725bf2a1e6cf2d934a02bf3cd9644b55767c8f41ef2d4af061260405160405180910390a381600881905550505050565b611251610de6565b6112c3576040517f08c379a00000000000000000000000000000000000000000000000000000000081526004018080602001828103825260208152602001807f4f776e61626c653a2063616c6c6572206973206e6f7420746865206f776e657281525060200191505060405180910390fd5b6112cb612878565b6112e56112d7836119d1565b306392cdaaf360e01b6119fc565b90506113496040518060400160405280600381526020017f67657400000000000000000000000000000000000000000000000000000000008152506040518060600160405280603f8152602001612949603f913983611a2d9092919063ffffffff16565b6113c86040518060400160405280600481526020017f70617468000000000000000000000000000000000000000000000000000000008152506040518060400160405280600381526020017f555344000000000000000000000000000000000000000000000000000000000081525083611a2d9092919063ffffffff16565b6114136040518060400160405280600581526020017f74696d6573000000000000000000000000000000000000000000000000000000815250606483611a609092919063ffffffff16565b6114208382600e54611a93565b50505050565b6000806114316119a7565b90508073ffffffffffffffffffffffffffffffffffffffff166370a08231306040518263ffffffff1660e01b8152600401808273ffffffffffffffffffffffffffffffffffffffff1673ffffffffffffffffffffffffffffffffffffffff16815260200191505060206040518083038186803b1580156114b057600080fd5b505afa1580156114c4573d6000803e3d6000fd5b505050506040513d60208110156114da57600080fd5b810190808051906020019092919050505091505090565b6114f9610de6565b61156b576040517f08c379a00000000000000000000000000000000000000000000000000000000081526004018080602001828103825260208152602001807f4f776e61626c653a2063616c6c6572206973206e6f7420746865206f776e657281525060200191505060405180910390fd5b611573612878565b61158d61157f836119d1565b3063a000601960e01b6119fc565b905061159c8382600e54611a93565b50505050565b60095481565b6115b0610de6565b611622576040517f08c379a00000000000000000000000000000000000000000000000000000000081526004018080602001828103825260208152602001807f4f776e61626c653a2063616c6c6572206973206e6f7420746865206f776e657281525060200191505060405180910390fd5b61162e84848484611d4b565b50505050565b600b5481565b611642610de6565b6116b4576040517f08c379a00000000000000000000000000000000000000000000000000000000081526004018080602001828103825260208152602001807f4f776e61626c653a2063616c6c6572206973206e6f7420746865206f776e657281525060200191505060405180910390fd5b6116bd81611eae565b50565b6116c8610de6565b61173a576040517f08c379a00000000000000000000000000000000000000000000000000000000081526004018080602001828103825260208152602001807f4f776e61626c653a2063616c6c6572206973206e6f7420746865206f776e657281525060200191505060405180910390fd5b611742612878565b61175c61174e836119d1565b306349556aff60e01b6119fc565b90506117c06040518060400160405280600381526020017f67657400000000000000000000000000000000000000000000000000000000008152506040518060800160405280604981526020016129b06049913983611a2d9092919063ffffffff16565b6060600467ffffffffffffffff811180156117da57600080fd5b5060405190808252806020026020018201604052801561180e57816020015b60608152602001906001900390816117f95790505b5090506040518060400160405280600381526020017f52415700000000000000000000000000000000000000000000000000000000008152508160008151811061185457fe5b60200260200101819052506040518060400160405280600381526020017f4554480000000000000000000000000000000000000000000000000000000000815250816001815181106118a257fe5b60200260200101819052506040518060400160405280600381526020017f5553440000000000000000000000000000000000000000000000000000000000815250816002815181106118f057fe5b60200260200101819052506040518060400160405280600a81526020017f4c4153544d41524b4554000000000000000000000000000000000000000000008152508160038151811061193e57fe5b60200260200101819052506119936040518060400160405280600481526020017f70617468000000000000000000000000000000000000000000000000000000008152508284611ff49092919063ffffffff16565b6119a08483600e54611a93565b5050505050565b6000600260009054906101000a900473ffffffffffffffffffffffffffffffffffffffff16905090565b600060608290506000815114156119ee576000801b9150506119f7565b60208301519150505b919050565b611a04612878565b611a0c612878565b611a2385858584612071909392919063ffffffff16565b9150509392505050565b611a4482846080015161212190919063ffffffff16565b611a5b81846080015161212190919063ffffffff16565b505050565b611a7782846080015161212190919063ffffffff16565b611a8e81846080015161214690919063ffffffff16565b505050565b600030600454604051602001808373ffffffffffffffffffffffffffffffffffffffff1673ffffffffffffffffffffffffffffffffffffffff1660601b815260140182815260200192505050604051602081830303815290604052805190602001209050600454836060018181525050836005600083815260200190815260200160002060006101000a81548173ffffffffffffffffffffffffffffffffffffffff021916908373ffffffffffffffffffffffffffffffffffffffff160217905550807fb5e6e01e79f91267dc17b4e6314d5d4d03593d2ceee0fbb452b750bd70ea5af960405160405180910390a2600260009054906101000a900473ffffffffffffffffffffffffffffffffffffffff1673ffffffffffffffffffffffffffffffffffffffff16634000aea08584611bcb876121ea565b6040518463ffffffff1660e01b8152600401808473ffffffffffffffffffffffffffffffffffffffff1673ffffffffffffffffffffffffffffffffffffffff16815260200183815260200180602001828103825283818151815260200191508051906020019080838360005b83811015611c52578082015181840152602081019050611c37565b50505050905090810190601f168015611c7f5780820380516001836020036101000a031916815260200191505b50945050505050602060405180830381600087803b158015611ca057600080fd5b505af1158015611cb4573d6000803e3d6000fd5b505050506040513d6020811015611cca57600080fd5b8101908080519060200190929190505050611d30576040517f08c379a00000000000000000000000000000000000000000000000000000000081526004018080602001828103825260238152602001806129266023913960400191505060405180910390fd5b60016004600082825401925050819055508090509392505050565b60006005600086815260200190815260200160002060009054906101000a900473ffffffffffffffffffffffffffffffffffffffff1690506005600086815260200190815260200160002060006101000a81549073ffffffffffffffffffffffffffffffffffffffff0219169055847fe1fe3afa0f7f761ff0a8b89086790efd5140d2907ebd5b7ff6bfcb5e075fd4c560405160405180910390a28073ffffffffffffffffffffffffffffffffffffffff16636ee4d553868686866040518563ffffffff1660e01b815260040180858152602001848152602001837bffffffffffffffffffffffffffffffffffffffffffffffffffffffff19167bffffffffffffffffffffffffffffffffffffffffffffffffffffffff19168152602001828152602001945050505050600060405180830381600087803b158015611e8f57600080fd5b505af1158015611ea3573d6000803e3d6000fd5b505050505050505050565b600073ffffffffffffffffffffffffffffffffffffffff168173ffffffffffffffffffffffffffffffffffffffff161415611f34576040517f08c379a00000000000000000000000000000000000000000000000000000000081526004018080602001828103825260268152602001806129006026913960400191505060405180910390fd5b8073ffffffffffffffffffffffffffffffffffffffff16600660009054906101000a900473ffffffffffffffffffffffffffffffffffffffff1673ffffffffffffffffffffffffffffffffffffffff167f8be0079c531659141344cd1fd0a4f28419497f9722a3daafe3b4186f6b6457e060405160405180910390a380600660006101000a81548173ffffffffffffffffffffffffffffffffffffffff021916908373ffffffffffffffffffffffffffffffffffffffff16021790555050565b61200b82846080015161212190919063ffffffff16565b61201883608001516123b6565b60008090505b815181101561205e5761205182828151811061203657fe5b6020026020010151856080015161212190919063ffffffff16565b808060010191505061201e565b5061206c83608001516123c4565b505050565b612079612878565b61208985608001516101006123d2565b508385600001818152505082856020019073ffffffffffffffffffffffffffffffffffffffff16908173ffffffffffffffffffffffffffffffffffffffff16815250508185604001907bffffffffffffffffffffffffffffffffffffffffffffffffffffffff191690817bffffffffffffffffffffffffffffffffffffffffffffffffffffffff191681525050849050949350505050565b61212e8260038351612426565b612141818361256b90919063ffffffff16565b505050565b7fffffffffffffffffffffffffffffffffffffffffffffffff000000000000000081121561217d57612178828261258d565b6121e6565b67ffffffffffffffff81131561219c5761219782826125fb565b6121e5565b600081126121b5576121b082600083612426565b6121e4565b6121e3826001837fffffffffffffffffffffffffffffffffffffffffffffffffffffffffffffffff03612426565b5b5b5b5050565b6060634042994660e01b60008084600001518560200151866040015187606001516001896080015160000151604051602401808973ffffffffffffffffffffffffffffffffffffffff1673ffffffffffffffffffffffffffffffffffffffff1681526020018881526020018781526020018673ffffffffffffffffffffffffffffffffffffffff1673ffffffffffffffffffffffffffffffffffffffff168152602001857bffffffffffffffffffffffffffffffffffffffffffffffffffffffff19167bffffffffffffffffffffffffffffffffffffffffffffffffffffffff1916815260200184815260200183815260200180602001828103825283818151815260200191508051906020019080838360005b838110156123195780820151818401526020810190506122fe565b50505050905090810190601f1680156123465780820380516001836020036101000a031916815260200191505b509950505050505050505050604051602081830303815290604052907bffffffffffffffffffffffffffffffffffffffffffffffffffffffff19166020820180517bffffffffffffffffffffffffffffffffffffffffffffffffffffffff83818316178352505050509050919050565b6123c1816004612647565b50565b6123cf816007612647565b50565b6123da6128e5565b6000602083816123e657fe5b06146123ff57602082816123f657fe5b06602003820191505b81836020018181525050604051808452600081528281016020016040525082905092915050565b601781116124535761244d8160058460ff16901b60ff16178461266990919063ffffffff16565b50612566565b60ff811161249557612478601860058460ff16901b178461266990919063ffffffff16565b5061248f816001856126899092919063ffffffff16565b50612565565b61ffff81116124d8576124bb601960058460ff16901b178461266990919063ffffffff16565b506124d2816002856126899092919063ffffffff16565b50612564565b63ffffffff811161251d57612500601a60058460ff16901b178461266990919063ffffffff16565b50612517816004856126899092919063ffffffff16565b50612563565b67ffffffffffffffff811161256257612549601b60058460ff16901b178461266990919063ffffffff16565b50612560816008856126899092919063ffffffff16565b505b5b5b5b5b505050565b6125736128e5565b612585838460000151518485516126ab565b905092915050565b6125ab60036005600660ff16901b178361266990919063ffffffff16565b506125f782827fffffffffffffffffffffffffffffffffffffffffffffffffffffffffffffffff0360405160200180828152602001915050604051602081830303815290604052612764565b5050565b61261960026005600660ff16901b178361266990919063ffffffff16565b50612643828260405160200180828152602001915050604051602081830303815290604052612764565b5050565b612664601f60058360ff16901b178361266990919063ffffffff16565b505050565b6126716128e5565b6126818384600001515184612789565b905092915050565b6126916128e5565b6126a28485600001515185856127d7565b90509392505050565b6126b36128e5565b82518211156126c157600080fd5b846020015182850111156126ec576126eb8560026126e58860200151888701612838565b02612854565b5b60008086518051876020830101935080888701111561270b5787860182525b60208701925050505b602084106127375780518252602082019150602081019050602084039350612714565b60006001856020036101000a03905080198251168184511681811785525050879350505050949350505050565b6127718260028351612426565b612784818361256b90919063ffffffff16565b505050565b6127916128e5565b836020015183106127ae576127ad846002866020015102612854565b5b83518051602085830101848153818614156127ca576001820183525b5050508390509392505050565b6127df6128e5565b846020015184830111156127fd576127fc85600286850102612854565b5b60006001836101000a039050855183868201018583198251161781528151858801111561282a5784870182525b505085915050949350505050565b60008183111561284a5782905061284e565b8190505b92915050565b60608260000151905061286783836123d2565b50612872838261256b565b50505050565b6040518060a0016040528060008019168152602001600073ffffffffffffffffffffffffffffffffffffffff16815260200160007bffffffffffffffffffffffffffffffffffffffffffffffffffffffff19168152602001600081526020016128df6128e5565b81525090565b60405180604001604052806060815260200160008152509056fe4f776e61626c653a206e6577206f776e657220697320746865207a65726f2061646472657373756e61626c6520746f207472616e73666572416e6443616c6c20746f206f7261636c6568747470733a2f2f6d696e2d6170692e63727970746f636f6d706172652e636f6d2f646174612f70726963653f6673796d3d455448267473796d733d555344536f75726365206d75737420626520746865206f7261636c65206f6620746865207265717565737468747470733a2f2f6d696e2d6170692e63727970746f636f6d706172652e636f6d2f646174612f70726963656d756c746966756c6c3f6673796d733d455448267473796d733d555344a26469706673582212201013a3a5bd55d925a59ea09c90ef8f8231398b1c5fcd9115e8b096da8947b47364736f6c63430006060033",
  "immutableReferences": {},
  "source": "pragma solidity 0.6.6;\n\nimport \"@chainlink/contracts/src/v0.6/ChainlinkClient.sol\";\nimport \"@chainlink/contracts/src/v0.6/vendor/Ownable.sol\";\n\ncontract FujiConsumer is ChainlinkClient, Ownable {\n\n  uint256 public currentPrice;\n  int256 public changeDay;\n  bytes32 public lastMarket;\n  int256 public priceFeed;\n  int256 public priceFeedETH;\n  int256 public priceFeedBTC;\n  int256 public priceFeedLINK;\n  uint256 private fee;\n  \n  event RequestEthereumPriceFulfilled(\n    bytes32 indexed requestId,\n    uint256 indexed price\n  );\n\n  event RequestEthereumChangeFulfilled(\n    bytes32 indexed requestId,\n    int256 indexed change\n  );\n\n  event RequestEthereumLastMarket(\n    bytes32 indexed requestId,\n    bytes32 indexed market\n  );\n  \n  event RequestpriceFeedFulfilled(\n    bytes32 indexed requestId,\n    int256 indexed priceFeed\n  );  \n\n  constructor() public {\n    setChainlinkToken(0x6c3FF2114d788824c12B3f4c280015caf2E47Cfe);\n    \n    fee = 10 ** 15;\n\n\n  }\n\n  function requestEthereumPrice(address _oracle, string memory _jobId)\n    public\n    onlyOwner\n  {\n    Chainlink.Request memory req = buildChainlinkRequest(stringToBytes32(_jobId), address(this), this.fulfillEthereumPrice.selector);\n    req.add(\"get\", \"https://min-api.cryptocompare.com/data/price?fsym=ETH&tsyms=USD\");\n    req.add(\"path\", \"USD\");\n    req.addInt(\"times\", 100);\n    sendChainlinkRequestTo(_oracle, req, fee);\n  }\n\n  function requestEthereumChange(address _oracle, string memory _jobId)\n    public\n    onlyOwner\n  {\n    Chainlink.Request memory req = buildChainlinkRequest(stringToBytes32(_jobId), address(this), this.fulfillEthereumChange.selector);\n    req.add(\"get\", \"https://min-api.cryptocompare.com/data/pricemultifull?fsyms=ETH&tsyms=USD\");\n    req.add(\"path\", \"RAW.ETH.USD.CHANGEPCTDAY\");\n    req.addInt(\"times\", 1000000000);\n    sendChainlinkRequestTo(_oracle, req, fee);\n  }\n\n  function requestEthereumLastMarket(address _oracle, string memory _jobId)\n    public\n    onlyOwner\n  {\n    Chainlink.Request memory req = buildChainlinkRequest(stringToBytes32(_jobId), address(this), this.fulfillEthereumLastMarket.selector);\n    req.add(\"get\", \"https://min-api.cryptocompare.com/data/pricemultifull?fsyms=ETH&tsyms=USD\");\n    string[] memory path = new string[](4);\n    path[0] = \"RAW\";\n    path[1] = \"ETH\";\n    path[2] = \"USD\";\n    path[3] = \"LASTMARKET\";\n    req.addStringArray(\"path\", path);\n    sendChainlinkRequestTo(_oracle, req, fee);\n  }\n  \n  function requestpriceFeed(address _oracle, string memory _jobId)\n    public\n    onlyOwner\n  {\n    Chainlink.Request memory req = buildChainlinkRequest(stringToBytes32(_jobId), address(this), this.fulfillpriceFeed.selector);\n    sendChainlinkRequestTo(_oracle, req, fee);\n  }  \n  \n\n  function fulfillEthereumPrice(bytes32 _requestId, uint256 _price)\n    public\n    recordChainlinkFulfillment(_requestId)\n  {\n    emit RequestEthereumPriceFulfilled(_requestId, _price);\n    currentPrice = _price;\n  }\n\n  function fulfillEthereumChange(bytes32 _requestId, int256 _change)\n    public\n    recordChainlinkFulfillment(_requestId)\n  {\n    emit RequestEthereumChangeFulfilled(_requestId, _change);\n    changeDay = _change;\n  }\n\n  function fulfillEthereumLastMarket(bytes32 _requestId, bytes32 _market)\n    public\n    recordChainlinkFulfillment(_requestId)\n  {\n    emit RequestEthereumLastMarket(_requestId, _market);\n    lastMarket = _market;\n  }\n  \n  function fulfillpriceFeed(bytes32 _requestId, int256 _priceFeed)\n    public\n    recordChainlinkFulfillment(_requestId)\n  {\n    emit RequestEthereumChangeFulfilled(_requestId, _priceFeed);\n    priceFeed = _priceFeed;\n  }  \n  \n\n  function getChainlinkToken() public view returns (address) {\n    return chainlinkTokenAddress();\n  }\n\n  function withdrawLink() public onlyOwner {\n    LinkTokenInterface link = LinkTokenInterface(chainlinkTokenAddress());\n    require(link.transfer(msg.sender, link.balanceOf(address(this))), \"Unable to transfer\");\n  }\n\n  function cancelRequest(\n    bytes32 _requestId,\n    uint256 _payment,\n    bytes4 _callbackFunctionId,\n    uint256 _expiration\n  )\n    public\n    onlyOwner\n  {\n    cancelChainlinkRequest(_requestId, _payment, _callbackFunctionId, _expiration);\n  }\n\n  function stringToBytes32(string memory source) private pure returns (bytes32 result) {\n    bytes memory tempEmptyStringTest = bytes(source);\n    if (tempEmptyStringTest.length == 0) {\n      return 0x0;\n    }\n\n    assembly { // solhint-disable-line no-inline-assembly\n      result := mload(add(source, 32))\n    }\n  }\n  \n      function linkBalance() public view returns(uint256){\n          LinkTokenInterface link = LinkTokenInterface(chainlinkTokenAddress());\n        return link.balanceOf(address(this));\n    }\n\n}",
  "sourcePath": "/Users/iii6/Documents/FractioFramework/Repos/fractio/src/contracts/.unused/FujiConsumer.sol",
  "compiler": {
    "name": "solc",
    "version": "0.6.6+commit.6c089d02.Emscripten.clang"
  },
  "schemaVersion": "3.4.1",
  "updatedAt": "2021-08-03T11:34:54.297Z",
  "devdoc": {
    "methods": {
      "isOwner()": {
        "details": "Returns true if the caller is the current owner."
      },
      "owner()": {
        "details": "Returns the address of the current owner."
      },
      "transferOwnership(address)": {
        "details": "Transfers ownership of the contract to a new account (`newOwner`). Can only be called by the current owner."
      }
    }
  },
  "userdoc": {
    "methods": {}
  }
}