{
  "contractName": "N0tUtu",
  "abi": [
    {
      "inputs": [],
      "stateMutability": "nonpayable",
      "type": "constructor"
    },
    {
      "inputs": [],
      "name": "daiFeed",
      "outputs": [
        {
          "internalType": "int256",
          "name": "",
          "type": "int256"
        }
      ],
      "stateMutability": "view",
      "type": "function"
    },
    {
      "inputs": [],
      "name": "usdcFeed",
      "outputs": [
        {
          "internalType": "int256",
          "name": "",
          "type": "int256"
        }
      ],
      "stateMutability": "view",
      "type": "function"
    },
    {
      "inputs": [],
      "name": "ethFeed",
      "outputs": [
        {
          "internalType": "int256",
          "name": "",
          "type": "int256"
        }
      ],
      "stateMutability": "view",
      "type": "function"
    },
    {
      "inputs": [],
      "name": "btcFeed",
      "outputs": [
        {
          "internalType": "int256",
          "name": "",
          "type": "int256"
        }
      ],
      "stateMutability": "view",
      "type": "function"
    },
    {
      "inputs": [],
      "name": "dotFeed",
      "outputs": [
        {
          "internalType": "int256",
          "name": "",
          "type": "int256"
        }
      ],
      "stateMutability": "view",
      "type": "function"
    },
    {
      "inputs": [],
      "name": "aaveFeed",
      "outputs": [
        {
          "internalType": "int256",
          "name": "",
          "type": "int256"
        }
      ],
      "stateMutability": "view",
      "type": "function"
    },
    {
      "inputs": [],
      "name": "balFeed",
      "outputs": [
        {
          "internalType": "int256",
          "name": "",
          "type": "int256"
        }
      ],
      "stateMutability": "view",
      "type": "function"
    },
    {
      "inputs": [],
      "name": "compFeed",
      "outputs": [
        {
          "internalType": "int256",
          "name": "",
          "type": "int256"
        }
      ],
      "stateMutability": "view",
      "type": "function"
    },
    {
      "inputs": [],
      "name": "crvFeed",
      "outputs": [
        {
          "internalType": "int256",
          "name": "",
          "type": "int256"
        }
      ],
      "stateMutability": "view",
      "type": "function"
    },
    {
      "inputs": [],
      "name": "linkFeed",
      "outputs": [
        {
          "internalType": "int256",
          "name": "",
          "type": "int256"
        }
      ],
      "stateMutability": "view",
      "type": "function"
    },
    {
      "inputs": [],
      "name": "mkrFeed",
      "outputs": [
        {
          "internalType": "int256",
          "name": "",
          "type": "int256"
        }
      ],
      "stateMutability": "view",
      "type": "function"
    },
    {
      "inputs": [],
      "name": "perpFeed",
      "outputs": [
        {
          "internalType": "int256",
          "name": "",
          "type": "int256"
        }
      ],
      "stateMutability": "view",
      "type": "function"
    },
    {
      "inputs": [],
      "name": "renFeed",
      "outputs": [
        {
          "internalType": "int256",
          "name": "",
          "type": "int256"
        }
      ],
      "stateMutability": "view",
      "type": "function"
    },
    {
      "inputs": [],
      "name": "snxFeed",
      "outputs": [
        {
          "internalType": "int256",
          "name": "",
          "type": "int256"
        }
      ],
      "stateMutability": "view",
      "type": "function"
    },
    {
      "inputs": [],
      "name": "sushiFeed",
      "outputs": [
        {
          "internalType": "int256",
          "name": "",
          "type": "int256"
        }
      ],
      "stateMutability": "view",
      "type": "function"
    },
    {
      "inputs": [],
      "name": "yfiFeed",
      "outputs": [
        {
          "internalType": "int256",
          "name": "",
          "type": "int256"
        }
      ],
      "stateMutability": "view",
      "type": "function"
    },
    {
      "inputs": [
        {
          "internalType": "address",
          "name": "_feedAdr",
          "type": "address"
        }
      ],
      "name": "customFeed",
      "outputs": [
        {
          "internalType": "int256",
          "name": "",
          "type": "int256"
        }
      ],
      "stateMutability": "nonpayable",
      "type": "function"
    },
    {
      "inputs": [],
      "name": "ethBtc",
      "outputs": [
        {
          "internalType": "int256",
          "name": "",
          "type": "int256"
        }
      ],
      "stateMutability": "view",
      "type": "function"
    },
    {
      "inputs": [],
      "name": "ethYfi",
      "outputs": [
        {
          "internalType": "int256",
          "name": "",
          "type": "int256"
        }
      ],
      "stateMutability": "view",
      "type": "function"
    },
    {
      "inputs": [
        {
          "internalType": "address",
          "name": "_one",
          "type": "address"
        },
        {
          "internalType": "address",
          "name": "_two",
          "type": "address"
        }
      ],
      "name": "customRatio",
      "outputs": [
        {
          "internalType": "int256",
          "name": "",
          "type": "int256"
        }
      ],
      "stateMutability": "nonpayable",
      "type": "function"
    }
  ],
  "bytecode": "0x608060405234801561001057600080fd5b5073a767f745331d267c7751297d982b050c93985627600260006101000a81548173ffffffffffffffffffffffffffffffffffffffff021916908373ffffffffffffffffffffffffffffffffffffffff160217905550736c1d7e76ef7304a40e8456ce883bc56d3dea3f7d600160006101000a81548173ffffffffffffffffffffffffffffffffffffffff021916908373ffffffffffffffffffffffffffffffffffffffff16021790555073ed322a5ac55bae091190dff9066760b86751947b6000806101000a81548173ffffffffffffffffffffffffffffffffffffffff021916908373ffffffffffffffffffffffffffffffffffffffff16021790555073d98735d78266c62277bb4dbf3e3bcdd3694782f4600360006101000a81548173ffffffffffffffffffffffffffffffffffffffff021916908373ffffffffffffffffffffffffffffffffffffffff16021790555073fdf9eb5fafc11efa65f6fd144898da39a7920ae8600460006101000a81548173ffffffffffffffffffffffffffffffffffffffff021916908373ffffffffffffffffffffffffffffffffffffffff160217905550732b481dc923aa050e009113dca8dcb0dab4b68cdf600560006101000a81548173ffffffffffffffffffffffffffffffffffffffff021916908373ffffffffffffffffffffffffffffffffffffffff160217905550731b723c855f7d2c2785f99486973271355e782d77600660006101000a81548173ffffffffffffffffffffffffffffffffffffffff021916908373ffffffffffffffffffffffffffffffffffffffff16021790555073ba95bc8418ebcdf8a690924e1d4ad5292139f2ea600760006101000a81548173ffffffffffffffffffffffffffffffffffffffff021916908373ffffffffffffffffffffffffffffffffffffffff16021790555073c77b83ac3dd2a761073bd0f281f7b880b2ddde18600860006101000a81548173ffffffffffffffffffffffffffffffffffffffff021916908373ffffffffffffffffffffffffffffffffffffffff16021790555073678df3415fc31947da4324ec63212874be5a82f8600960006101000a81548173ffffffffffffffffffffffffffffffffffffffff021916908373ffffffffffffffffffffffffffffffffffffffff160217905550733c30c5c415b2410326297f0f65f5cbb32f3aefcc600a60006101000a81548173ffffffffffffffffffffffffffffffffffffffff021916908373ffffffffffffffffffffffffffffffffffffffff1602179055507351e4024255d0cbd1f4c79aee6bdb6565df2c5d1b600b60006101000a81548173ffffffffffffffffffffffffffffffffffffffff021916908373ffffffffffffffffffffffffffffffffffffffff1602179055507376e76f7e73f3bd42e3c2b4282b50b36e78130b4a600c60006101000a81548173ffffffffffffffffffffffffffffffffffffffff021916908373ffffffffffffffffffffffffffffffffffffffff1602179055507327d4d36968a2bd1cc3406d99cb1df50561dbf2a4600d60006101000a81548173ffffffffffffffffffffffffffffffffffffffff021916908373ffffffffffffffffffffffffffffffffffffffff160217905550733b84d6e6976d5826500572600eb44f9f1753827b600e60006101000a81548173ffffffffffffffffffffffffffffffffffffffff021916908373ffffffffffffffffffffffffffffffffffffffff16021790555073c0a6bf8d5d408b091d022c3c0653d4056d4b9c01600f60006101000a81548173ffffffffffffffffffffffffffffffffffffffff021916908373ffffffffffffffffffffffffffffffffffffffff1602179055507326c31ac71010af62e6b486d1132e266d6298857d601060006101000a81548173ffffffffffffffffffffffffffffffffffffffff021916908373ffffffffffffffffffffffffffffffffffffffff1602179055507314030d5a0c9e63d9606c6f2c8771fc95b34b07e0601160006101000a81548173ffffffffffffffffffffffffffffffffffffffff021916908373ffffffffffffffffffffffffffffffffffffffff1602179055506113a4806106196000396000f3fe608060405234801561001057600080fd5b506004361061012c5760003560e01c80638a54d9d6116100ad578063b8cac43011610071578063b8cac4301461034d578063c23d2a4a1461036b578063cb8defc714610389578063f1f0eb47146103a7578063f441d6fa146103ff5761012c565b80638a54d9d6146102b75780638c85d270146102d5578063923833d8146102f3578063a4e7d97714610311578063a8d694dd1461032f5761012c565b80634a034fd4116100f45780634a034fd4146101c75780634a1f2249146101e5578063571424f4146102035780635e19d05c146102215780636eb297241461023f5761012c565b80632aaaed311461013157806335be1a1d1461014f5780633a328f981461016d5780633c204faa1461018b5780633e5963c7146101a9575b600080fd5b61013961041d565b6040518082815260200191505060405180910390f35b6101576104f7565b6040518082815260200191505060405180910390f35b6101756105d2565b6040518082815260200191505060405180910390f35b6101936106ad565b6040518082815260200191505060405180910390f35b6101b1610788565b6040518082815260200191505060405180910390f35b6101cf610863565b6040518082815260200191505060405180910390f35b6101ed61093e565b6040518082815260200191505060405180910390f35b61020b610a19565b6040518082815260200191505060405180910390f35b610229610af4565b6040518082815260200191505060405180910390f35b6102a16004803603604081101561025557600080fd5b81019080803573ffffffffffffffffffffffffffffffffffffffff169060200190929190803573ffffffffffffffffffffffffffffffffffffffff169060200190929190505050610bcf565b6040518082815260200191505060405180910390f35b6102bf610bfe565b6040518082815260200191505060405180910390f35b6102dd610c28565b6040518082815260200191505060405180910390f35b6102fb610d03565b6040518082815260200191505060405180910390f35b610319610d2d565b6040518082815260200191505060405180910390f35b610337610e08565b6040518082815260200191505060405180910390f35b610355610ee3565b6040518082815260200191505060405180910390f35b610373610fbe565b6040518082815260200191505060405180910390f35b610391611099565b6040518082815260200191505060405180910390f35b6103e9600480360360208110156103bd57600080fd5b81019080803573ffffffffffffffffffffffffffffffffffffffff169060200190929190505050611174565b6040518082815260200191505060405180910390f35b610407611293565b6040518082815260200191505060405180910390f35b6000806000809054906101000a900473ffffffffffffffffffffffffffffffffffffffff1673ffffffffffffffffffffffffffffffffffffffff1663feaf968c6040518163ffffffff1660e01b815260040160a06040518083038186803b15801561048757600080fd5b505afa15801561049b573d6000803e3d6000fd5b505050506040513d60a08110156104b157600080fd5b8101908080519060200190929190805190602001909291908051906020019092919080519060200190929190805190602001909291905050505050509150508091505090565b600080600d60009054906101000a900473ffffffffffffffffffffffffffffffffffffffff1673ffffffffffffffffffffffffffffffffffffffff1663feaf968c6040518163ffffffff1660e01b815260040160a06040518083038186803b15801561056257600080fd5b505afa158015610576573d6000803e3d6000fd5b505050506040513d60a081101561058c57600080fd5b8101908080519060200190929190805190602001909291908051906020019092919080519060200190929190805190602001909291905050505050509150508091505090565b600080600f60009054906101000a900473ffffffffffffffffffffffffffffffffffffffff1673ffffffffffffffffffffffffffffffffffffffff1663feaf968c6040518163ffffffff1660e01b815260040160a06040518083038186803b15801561063d57600080fd5b505afa158015610651573d6000803e3d6000fd5b505050506040513d60a081101561066757600080fd5b8101908080519060200190929190805190602001909291908051906020019092919080519060200190929190805190602001909291905050505050509150508091505090565b600080600b60009054906101000a900473ffffffffffffffffffffffffffffffffffffffff1673ffffffffffffffffffffffffffffffffffffffff1663feaf968c6040518163ffffffff1660e01b815260040160a06040518083038186803b15801561071857600080fd5b505afa15801561072c573d6000803e3d6000fd5b505050506040513d60a081101561074257600080fd5b8101908080519060200190929190805190602001909291908051906020019092919080519060200190929190805190602001909291905050505050509150508091505090565b600080600560009054906101000a900473ffffffffffffffffffffffffffffffffffffffff1673ffffffffffffffffffffffffffffffffffffffff1663feaf968c6040518163ffffffff1660e01b815260040160a06040518083038186803b1580156107f357600080fd5b505afa158015610807573d6000803e3d6000fd5b505050506040513d60a081101561081d57600080fd5b8101908080519060200190929190805190602001909291908051906020019092919080519060200190929190805190602001909291905050505050509150508091505090565b600080600c60009054906101000a900473ffffffffffffffffffffffffffffffffffffffff1673ffffffffffffffffffffffffffffffffffffffff1663feaf968c6040518163ffffffff1660e01b815260040160a06040518083038186803b1580156108ce57600080fd5b505afa1580156108e2573d6000803e3d6000fd5b505050506040513d60a08110156108f857600080fd5b8101908080519060200190929190805190602001909291908051906020019092919080519060200190929190805190602001909291905050505050509150508091505090565b600080600e60009054906101000a900473ffffffffffffffffffffffffffffffffffffffff1673ffffffffffffffffffffffffffffffffffffffff1663feaf968c6040518163ffffffff1660e01b815260040160a06040518083038186803b1580156109a957600080fd5b505afa1580156109bd573d6000803e3d6000fd5b505050506040513d60a08110156109d357600080fd5b8101908080519060200190929190805190602001909291908051906020019092919080519060200190929190805190602001909291905050505050509150508091505090565b600080600860009054906101000a900473ffffffffffffffffffffffffffffffffffffffff1673ffffffffffffffffffffffffffffffffffffffff1663feaf968c6040518163ffffffff1660e01b815260040160a06040518083038186803b158015610a8457600080fd5b505afa158015610a98573d6000803e3d6000fd5b505050506040513d60a0811015610aae57600080fd5b8101908080519060200190929190805190602001909291908051906020019092919080519060200190929190805190602001909291905050505050509150508091505090565b600080600260009054906101000a900473ffffffffffffffffffffffffffffffffffffffff1673ffffffffffffffffffffffffffffffffffffffff1663feaf968c6040518163ffffffff1660e01b815260040160a06040518083038186803b158015610b5f57600080fd5b505afa158015610b73573d6000803e3d6000fd5b505050506040513d60a0811015610b8957600080fd5b8101908080519060200190929190805190602001909291908051906020019092919080519060200190929190805190602001909291905050505050509150508091505090565b600080610bdb84611174565b90506000610be884611174565b9050808281610bf357fe5b059250505092915050565b600080610c09610af4565b90506000610c15610fbe565b9050818181610c2057fe5b059250505090565b600080601160009054906101000a900473ffffffffffffffffffffffffffffffffffffffff1673ffffffffffffffffffffffffffffffffffffffff1663feaf968c6040518163ffffffff1660e01b815260040160a06040518083038186803b158015610c9357600080fd5b505afa158015610ca7573d6000803e3d6000fd5b505050506040513d60a0811015610cbd57600080fd5b8101908080519060200190929190805190602001909291908051906020019092919080519060200190929190805190602001909291905050505050509150508091505090565b600080610d0e610af4565b90506000610d1a610c28565b9050818181610d2557fe5b059250505090565b600080601060009054906101000a900473ffffffffffffffffffffffffffffffffffffffff1673ffffffffffffffffffffffffffffffffffffffff1663feaf968c6040518163ffffffff1660e01b815260040160a06040518083038186803b158015610d9857600080fd5b505afa158015610dac573d6000803e3d6000fd5b505050506040513d60a0811015610dc257600080fd5b8101908080519060200190929190805190602001909291908051906020019092919080519060200190929190805190602001909291905050505050509150508091505090565b600080600660009054906101000a900473ffffffffffffffffffffffffffffffffffffffff1673ffffffffffffffffffffffffffffffffffffffff1663feaf968c6040518163ffffffff1660e01b815260040160a06040518083038186803b158015610e7357600080fd5b505afa158015610e87573d6000803e3d6000fd5b505050506040513d60a0811015610e9d57600080fd5b8101908080519060200190929190805190602001909291908051906020019092919080519060200190929190805190602001909291905050505050509150508091505090565b600080600a60009054906101000a900473ffffffffffffffffffffffffffffffffffffffff1673ffffffffffffffffffffffffffffffffffffffff1663feaf968c6040518163ffffffff1660e01b815260040160a06040518083038186803b158015610f4e57600080fd5b505afa158015610f62573d6000803e3d6000fd5b505050506040513d60a0811015610f7857600080fd5b8101908080519060200190929190805190602001909291908051906020019092919080519060200190929190805190602001909291905050505050509150508091505090565b600080600160009054906101000a900473ffffffffffffffffffffffffffffffffffffffff1673ffffffffffffffffffffffffffffffffffffffff1663feaf968c6040518163ffffffff1660e01b815260040160a06040518083038186803b15801561102957600080fd5b505afa15801561103d573d6000803e3d6000fd5b505050506040513d60a081101561105357600080fd5b8101908080519060200190929190805190602001909291908051906020019092919080519060200190929190805190602001909291905050505050509150508091505090565b600080600760009054906101000a900473ffffffffffffffffffffffffffffffffffffffff1673ffffffffffffffffffffffffffffffffffffffff1663feaf968c6040518163ffffffff1660e01b815260040160a06040518083038186803b15801561110457600080fd5b505afa158015611118573d6000803e3d6000fd5b505050506040513d60a081101561112e57600080fd5b8101908080519060200190929190805190602001909291908051906020019092919080519060200190929190805190602001909291905050505050509150508091505090565b600081601260006101000a81548173ffffffffffffffffffffffffffffffffffffffff021916908373ffffffffffffffffffffffffffffffffffffffff1602179055506000601260009054906101000a900473ffffffffffffffffffffffffffffffffffffffff1673ffffffffffffffffffffffffffffffffffffffff1663feaf968c6040518163ffffffff1660e01b815260040160a06040518083038186803b15801561122157600080fd5b505afa158015611235573d6000803e3d6000fd5b505050506040513d60a081101561124b57600080fd5b81019080805190602001909291908051906020019092919080519060200190929190805190602001909291908051906020019092919050505050505091505080915050919050565b600080600960009054906101000a900473ffffffffffffffffffffffffffffffffffffffff1673ffffffffffffffffffffffffffffffffffffffff1663feaf968c6040518163ffffffff1660e01b815260040160a06040518083038186803b1580156112fe57600080fd5b505afa158015611312573d6000803e3d6000fd5b505050506040513d60a081101561132857600080fd5b810190808051906020019092919080519060200190929190805190602001909291908051906020019092919080519060200190929190505050505050915050809150509056fea2646970667358221220ee578c7aa02d2bf23715dc54eda3dc9158176df94e2680ff92666a822907ea9a64736f6c63430006060033",
  "immutableReferences": {},
  "source": "pragma solidity 0.6.6;\r\n\r\nimport \"@chainlink/contracts/src/v0.6/interfaces/AggregatorV3Interface.sol\";\r\n\r\ncontract N0tUtu {\r\n    AggregatorV3Interface internal linkPriceFeed;\r\n    AggregatorV3Interface internal btcPriceFeed;\r\n    AggregatorV3Interface internal ethPriceFeed;\r\n    AggregatorV3Interface internal uniPriceFeed;\r\n    AggregatorV3Interface internal oneinchPriceFeed;\r\n    AggregatorV3Interface internal aavePriceFeed;\r\n    AggregatorV3Interface internal balPriceFeed;\r\n    AggregatorV3Interface internal compPriceFeed;\r\n    AggregatorV3Interface internal crvPriceFeed;\r\n    AggregatorV3Interface internal daiPriceFeed;\r\n    AggregatorV3Interface internal dotPriceFeed;\r\n    AggregatorV3Interface internal mkrPriceFeed;\r\n    AggregatorV3Interface internal perpPriceFeed;\r\n    AggregatorV3Interface internal renPriceFeed;\r\n    AggregatorV3Interface internal snxPriceFeed;\r\n    AggregatorV3Interface internal sushiPriceFeed;\r\n    AggregatorV3Interface internal usdcPriceFeed;\r\n    AggregatorV3Interface internal yfiPriceFeed;\r\n    AggregatorV3Interface internal customPriceFeed;\r\n\r\n    constructor() public {\r\n        \r\n        // XDAI SETUP COMPLETE \r\n        ethPriceFeed = AggregatorV3Interface(\r\n            0xa767f745331D267c7751297D982b050c93985627 // XDAI\r\n        );\r\n        btcPriceFeed = AggregatorV3Interface(\r\n            0x6C1d7e76EF7304a40e8456ce883BC56d3dEA3F7d // XDAI\r\n        );\r\n        linkPriceFeed = AggregatorV3Interface(\r\n            0xed322A5ac55BAE091190dFf9066760b86751947B // XDAI\r\n\r\n        );\r\n        uniPriceFeed = AggregatorV3Interface(\r\n            0xd98735d78266c62277Bb4dBf3e3bCdd3694782F4 // XDAI\r\n\r\n        );\r\n        oneinchPriceFeed = AggregatorV3Interface(\r\n            0xFDF9EB5fafc11Efa65f6FD144898da39a7920Ae8 // XDAI\r\n\r\n        );\r\n        aavePriceFeed = AggregatorV3Interface(\r\n            0x2b481Dc923Aa050E009113Dca8dcb0daB4B68cDF // XDAI\r\n\r\n        );\r\n        balPriceFeed = AggregatorV3Interface(\r\n            0x1b723C855F7D2c2785F99486973271355e782d77 // XDAI\r\n\r\n        );\r\n        compPriceFeed = AggregatorV3Interface(\r\n            0xBa95Bc8418Ebcdf8a690924E1d4aD5292139F2EA // XDAI\r\n\r\n        );\r\n        crvPriceFeed = AggregatorV3Interface(\r\n            0xC77B83ac3Dd2a761073bD0f281f7b880B2DDDe18 // XDAI\r\n\r\n        );\r\n        daiPriceFeed = AggregatorV3Interface(\r\n            0x678df3415fc31947dA4324eC63212874be5a82f8 // XDAI\r\n\r\n        );\r\n        dotPriceFeed = AggregatorV3Interface(\r\n            0x3c30c5c415B2410326297F0f65f5Cbb32f3aefCc // XDAI\r\n\r\n        );\r\n        mkrPriceFeed = AggregatorV3Interface(\r\n            0x51e4024255d0cBd1F4C79AEe6BDB6565Df2C5d1b // XDAI\r\n\r\n        );\r\n        perpPriceFeed = AggregatorV3Interface(\r\n            0x76e76F7E73F3BD42E3c2b4282B50b36E78130B4A // XDAI\r\n\r\n        );\r\n        renPriceFeed = AggregatorV3Interface(\r\n            0x27d4D36968a2BD1Cc3406D99cB1DF50561dBf2a4 // XDAI\r\n\r\n        );\r\n        snxPriceFeed = AggregatorV3Interface(\r\n            0x3b84d6e6976D5826500572600eB44f9f1753827b // XDAI\r\n \r\n        );\r\n        sushiPriceFeed = AggregatorV3Interface(\r\n            0xC0a6Bf8d5D408B091D022C3C0653d4056D4B9c01 // XDAI\r\n\r\n        );\r\n        usdcPriceFeed = AggregatorV3Interface(\r\n            0x26C31ac71010aF62E6B486D1132E266D6298857D // XDAI\r\n\r\n        );\r\n        yfiPriceFeed = AggregatorV3Interface(\r\n            0x14030d5a0C9e63D9606C6f2c8771Fc95b34b07e0 // XDAI\r\n \r\n        );\r\n}\r\n    \r\n    function daiFeed() public view returns (int256){\r\n        (, int256 daiPrice, , , ) = daiPriceFeed.latestRoundData();\r\n        return(daiPrice);\r\n        }\r\n    function usdcFeed() public view returns (int256){\r\n        (, int256 usdcPrice, , , ) = usdcPriceFeed.latestRoundData();\r\n        return(usdcPrice);\r\n        }\r\n    function ethFeed() public view returns (int256){\r\n        (, int256 ethPrice, , , ) = ethPriceFeed.latestRoundData();\r\n        return(ethPrice);\r\n        }\r\n    function btcFeed() public view returns (int256){\r\n        (, int256 btcPrice, , , ) = btcPriceFeed.latestRoundData();\r\n        return(btcPrice);\r\n        } \r\n    function dotFeed() public view returns (int256){\r\n        (, int256 dotPrice, , , ) = dotPriceFeed.latestRoundData();\r\n        return(dotPrice);\r\n        }\r\n    function aaveFeed() public view returns (int256){\r\n        (, int256 aavePrice, , , ) = aavePriceFeed.latestRoundData();\r\n        return(aavePrice);\r\n        }\r\n    function balFeed() public view returns (int256){\r\n        (, int256 balPrice, , , ) = balPriceFeed.latestRoundData();\r\n        return(balPrice);\r\n        }\r\n    function compFeed() public view returns (int256){\r\n        (, int256 compPrice, , , ) = compPriceFeed.latestRoundData();\r\n        return(compPrice);\r\n        }\r\n    function crvFeed() public view returns (int256){\r\n        (, int256 crvPrice, , , ) = crvPriceFeed.latestRoundData();\r\n        return(crvPrice);\r\n        }    \r\n    function linkFeed() public view returns (int256){\r\n        (, int256 linkPrice, , , ) = linkPriceFeed.latestRoundData();\r\n        return(linkPrice);\r\n        }\r\n    function mkrFeed() public view returns (int256){\r\n        (, int256 mkrPrice, , , ) = mkrPriceFeed.latestRoundData();\r\n        return(mkrPrice);\r\n        }    \r\n    function perpFeed() public view returns (int256){\r\n        (, int256 perpPrice, , , ) = perpPriceFeed.latestRoundData();\r\n        return(perpPrice);\r\n        }\r\n    function renFeed() public view returns (int256){\r\n        (, int256 renPrice, , , ) = renPriceFeed.latestRoundData();\r\n        return(renPrice);\r\n        }\r\n    function snxFeed() public view returns (int256){\r\n        (, int256 snxPrice, , , ) = snxPriceFeed.latestRoundData();\r\n        return(snxPrice);\r\n        }\r\n    function sushiFeed() public view returns (int256){\r\n        (, int256 sushiPrice, , , ) = sushiPriceFeed.latestRoundData();\r\n        return(sushiPrice);\r\n        }\r\n    function yfiFeed() public view returns (int256){\r\n        (, int256 yfiPrice, , , ) = yfiPriceFeed.latestRoundData();\r\n        return(yfiPrice);\r\n        }\r\n    function customFeed(address _feedAdr) public returns (int256){\r\n        customPriceFeed = AggregatorV3Interface(_feedAdr);\r\n        (, int256 customPrice, , , ) = customPriceFeed.latestRoundData();\r\n        return(customPrice);\r\n        }\r\n        \r\n    function ethBtc() public view returns (int256){\r\n       int256 eth = ethFeed();\r\n       int256 btc = btcFeed();\r\n       return (btc / eth); \r\n    }\r\n    function ethYfi() public view returns (int256){\r\n       int256 eth = ethFeed();\r\n       int256 yfi = yfiFeed();\r\n       return (yfi / eth); \r\n    }\r\n    function customRatio(address _one, address _two) public returns(int256){\r\n       int256 one = customFeed(_one);\r\n       int256 two = customFeed(_two);\r\n       return (one / two);  \r\n    }\r\n}",
  "sourcePath": "C:/Users/User/LINKHack/pyeFraxio/src/contracts/Notutu.sol",
  "compiler": {
    "name": "solc",
    "version": "0.6.6+commit.6c089d02.Emscripten.clang"
  },
  "schemaVersion": "3.3.1",
  "updatedAt": "2021-04-15T18:09:41.744Z",
  "devdoc": {
    "methods": {}
  },
  "userdoc": {
    "methods": {}
  }
}