{
  "contractName": "OracleNFT",
  "abi": [
    {
      "inputs": [],
      "stateMutability": "nonpayable",
      "type": "constructor"
    },
    {
      "anonymous": false,
      "inputs": [
        {
          "indexed": true,
          "internalType": "address",
          "name": "owner",
          "type": "address"
        },
        {
          "indexed": true,
          "internalType": "address",
          "name": "approved",
          "type": "address"
        },
        {
          "indexed": true,
          "internalType": "uint256",
          "name": "tokenId",
          "type": "uint256"
        }
      ],
      "name": "Approval",
      "type": "event"
    },
    {
      "anonymous": false,
      "inputs": [
        {
          "indexed": true,
          "internalType": "address",
          "name": "owner",
          "type": "address"
        },
        {
          "indexed": true,
          "internalType": "address",
          "name": "operator",
          "type": "address"
        },
        {
          "indexed": false,
          "internalType": "bool",
          "name": "approved",
          "type": "bool"
        }
      ],
      "name": "ApprovalForAll",
      "type": "event"
    },
    {
      "anonymous": false,
      "inputs": [
        {
          "indexed": true,
          "internalType": "address",
          "name": "previousOwner",
          "type": "address"
        },
        {
          "indexed": true,
          "internalType": "address",
          "name": "newOwner",
          "type": "address"
        }
      ],
      "name": "OwnershipTransferred",
      "type": "event"
    },
    {
      "anonymous": false,
      "inputs": [
        {
          "indexed": true,
          "internalType": "address",
          "name": "from",
          "type": "address"
        },
        {
          "indexed": true,
          "internalType": "address",
          "name": "to",
          "type": "address"
        },
        {
          "indexed": true,
          "internalType": "uint256",
          "name": "tokenId",
          "type": "uint256"
        }
      ],
      "name": "Transfer",
      "type": "event"
    },
    {
      "inputs": [
        {
          "internalType": "address",
          "name": "",
          "type": "address"
        },
        {
          "internalType": "uint256",
          "name": "",
          "type": "uint256"
        }
      ],
      "name": "ArtistPyeList",
      "outputs": [
        {
          "internalType": "bytes32",
          "name": "",
          "type": "bytes32"
        }
      ],
      "stateMutability": "view",
      "type": "function"
    },
    {
      "inputs": [
        {
          "internalType": "bytes32",
          "name": "",
          "type": "bytes32"
        }
      ],
      "name": "IDTbyID",
      "outputs": [
        {
          "internalType": "uint256",
          "name": "",
          "type": "uint256"
        }
      ],
      "stateMutability": "view",
      "type": "function"
    },
    {
      "inputs": [
        {
          "internalType": "address",
          "name": "to",
          "type": "address"
        },
        {
          "internalType": "uint256",
          "name": "tokenId",
          "type": "uint256"
        }
      ],
      "name": "approve",
      "outputs": [],
      "stateMutability": "nonpayable",
      "type": "function"
    },
    {
      "inputs": [
        {
          "internalType": "bytes32",
          "name": "",
          "type": "bytes32"
        }
      ],
      "name": "artistByIDT",
      "outputs": [
        {
          "internalType": "address",
          "name": "",
          "type": "address"
        }
      ],
      "stateMutability": "view",
      "type": "function"
    },
    {
      "inputs": [
        {
          "internalType": "address",
          "name": "owner",
          "type": "address"
        }
      ],
      "name": "balanceOf",
      "outputs": [
        {
          "internalType": "uint256",
          "name": "",
          "type": "uint256"
        }
      ],
      "stateMutability": "view",
      "type": "function"
    },
    {
      "inputs": [],
      "name": "baseURI",
      "outputs": [
        {
          "internalType": "string",
          "name": "",
          "type": "string"
        }
      ],
      "stateMutability": "view",
      "type": "function"
    },
    {
      "inputs": [
        {
          "internalType": "uint256",
          "name": "tokenId",
          "type": "uint256"
        }
      ],
      "name": "getApproved",
      "outputs": [
        {
          "internalType": "address",
          "name": "",
          "type": "address"
        }
      ],
      "stateMutability": "view",
      "type": "function"
    },
    {
      "inputs": [
        {
          "internalType": "address",
          "name": "",
          "type": "address"
        }
      ],
      "name": "howMany",
      "outputs": [
        {
          "internalType": "uint256",
          "name": "",
          "type": "uint256"
        }
      ],
      "stateMutability": "view",
      "type": "function"
    },
    {
      "inputs": [
        {
          "internalType": "address",
          "name": "owner",
          "type": "address"
        },
        {
          "internalType": "address",
          "name": "operator",
          "type": "address"
        }
      ],
      "name": "isApprovedForAll",
      "outputs": [
        {
          "internalType": "bool",
          "name": "",
          "type": "bool"
        }
      ],
      "stateMutability": "view",
      "type": "function"
    },
    {
      "inputs": [],
      "name": "name",
      "outputs": [
        {
          "internalType": "string",
          "name": "",
          "type": "string"
        }
      ],
      "stateMutability": "view",
      "type": "function"
    },
    {
      "inputs": [
        {
          "internalType": "bytes32",
          "name": "",
          "type": "bytes32"
        }
      ],
      "name": "nameByIDT",
      "outputs": [
        {
          "internalType": "string",
          "name": "",
          "type": "string"
        }
      ],
      "stateMutability": "view",
      "type": "function"
    },
    {
      "inputs": [],
      "name": "owner",
      "outputs": [
        {
          "internalType": "address",
          "name": "",
          "type": "address"
        }
      ],
      "stateMutability": "view",
      "type": "function"
    },
    {
      "inputs": [
        {
          "internalType": "uint256",
          "name": "tokenId",
          "type": "uint256"
        }
      ],
      "name": "ownerOf",
      "outputs": [
        {
          "internalType": "address",
          "name": "",
          "type": "address"
        }
      ],
      "stateMutability": "view",
      "type": "function"
    },
    {
      "inputs": [
        {
          "internalType": "bytes32",
          "name": "",
          "type": "bytes32"
        }
      ],
      "name": "pubByIDT",
      "outputs": [
        {
          "internalType": "string",
          "name": "",
          "type": "string"
        }
      ],
      "stateMutability": "view",
      "type": "function"
    },
    {
      "inputs": [
        {
          "internalType": "bytes32",
          "name": "",
          "type": "bytes32"
        }
      ],
      "name": "pyeObjectbyIDT",
      "outputs": [
        {
          "internalType": "string",
          "name": "",
          "type": "string"
        }
      ],
      "stateMutability": "view",
      "type": "function"
    },
    {
      "inputs": [],
      "name": "randomResult",
      "outputs": [
        {
          "internalType": "uint256",
          "name": "",
          "type": "uint256"
        }
      ],
      "stateMutability": "view",
      "type": "function"
    },
    {
      "inputs": [
        {
          "internalType": "bytes32",
          "name": "requestId",
          "type": "bytes32"
        },
        {
          "internalType": "uint256",
          "name": "randomness",
          "type": "uint256"
        }
      ],
      "name": "rawFulfillRandomness",
      "outputs": [],
      "stateMutability": "nonpayable",
      "type": "function"
    },
    {
      "inputs": [],
      "name": "renounceOwnership",
      "outputs": [],
      "stateMutability": "nonpayable",
      "type": "function"
    },
    {
      "inputs": [
        {
          "internalType": "address",
          "name": "from",
          "type": "address"
        },
        {
          "internalType": "address",
          "name": "to",
          "type": "address"
        },
        {
          "internalType": "uint256",
          "name": "tokenId",
          "type": "uint256"
        }
      ],
      "name": "safeTransferFrom",
      "outputs": [],
      "stateMutability": "nonpayable",
      "type": "function"
    },
    {
      "inputs": [
        {
          "internalType": "address",
          "name": "from",
          "type": "address"
        },
        {
          "internalType": "address",
          "name": "to",
          "type": "address"
        },
        {
          "internalType": "uint256",
          "name": "tokenId",
          "type": "uint256"
        },
        {
          "internalType": "bytes",
          "name": "_data",
          "type": "bytes"
        }
      ],
      "name": "safeTransferFrom",
      "outputs": [],
      "stateMutability": "nonpayable",
      "type": "function"
    },
    {
      "inputs": [
        {
          "internalType": "address",
          "name": "operator",
          "type": "address"
        },
        {
          "internalType": "bool",
          "name": "approved",
          "type": "bool"
        }
      ],
      "name": "setApprovalForAll",
      "outputs": [],
      "stateMutability": "nonpayable",
      "type": "function"
    },
    {
      "inputs": [
        {
          "internalType": "bytes4",
          "name": "interfaceId",
          "type": "bytes4"
        }
      ],
      "name": "supportsInterface",
      "outputs": [
        {
          "internalType": "bool",
          "name": "",
          "type": "bool"
        }
      ],
      "stateMutability": "view",
      "type": "function"
    },
    {
      "inputs": [],
      "name": "symbol",
      "outputs": [
        {
          "internalType": "string",
          "name": "",
          "type": "string"
        }
      ],
      "stateMutability": "view",
      "type": "function"
    },
    {
      "inputs": [
        {
          "internalType": "uint256",
          "name": "index",
          "type": "uint256"
        }
      ],
      "name": "tokenByIndex",
      "outputs": [
        {
          "internalType": "uint256",
          "name": "",
          "type": "uint256"
        }
      ],
      "stateMutability": "view",
      "type": "function"
    },
    {
      "inputs": [
        {
          "internalType": "address",
          "name": "owner",
          "type": "address"
        },
        {
          "internalType": "uint256",
          "name": "index",
          "type": "uint256"
        }
      ],
      "name": "tokenOfOwnerByIndex",
      "outputs": [
        {
          "internalType": "uint256",
          "name": "",
          "type": "uint256"
        }
      ],
      "stateMutability": "view",
      "type": "function"
    },
    {
      "inputs": [
        {
          "internalType": "uint256",
          "name": "tokenId",
          "type": "uint256"
        }
      ],
      "name": "tokenURI",
      "outputs": [
        {
          "internalType": "string",
          "name": "",
          "type": "string"
        }
      ],
      "stateMutability": "view",
      "type": "function"
    },
    {
      "inputs": [],
      "name": "totalSupply",
      "outputs": [
        {
          "internalType": "uint256",
          "name": "",
          "type": "uint256"
        }
      ],
      "stateMutability": "view",
      "type": "function"
    },
    {
      "inputs": [
        {
          "internalType": "address",
          "name": "from",
          "type": "address"
        },
        {
          "internalType": "address",
          "name": "to",
          "type": "address"
        },
        {
          "internalType": "uint256",
          "name": "tokenId",
          "type": "uint256"
        }
      ],
      "name": "transferFrom",
      "outputs": [],
      "stateMutability": "nonpayable",
      "type": "function"
    },
    {
      "inputs": [
        {
          "internalType": "address",
          "name": "newOwner",
          "type": "address"
        }
      ],
      "name": "transferOwnership",
      "outputs": [],
      "stateMutability": "nonpayable",
      "type": "function"
    },
    {
      "inputs": [
        {
          "internalType": "uint256",
          "name": "userProvidedSeed",
          "type": "uint256"
        },
        {
          "internalType": "string",
          "name": "_name",
          "type": "string"
        },
        {
          "internalType": "string",
          "name": "_object",
          "type": "string"
        },
        {
          "internalType": "string",
          "name": "_priv",
          "type": "string"
        },
        {
          "internalType": "string",
          "name": "_pub",
          "type": "string"
        }
      ],
      "name": "bakePYE",
      "outputs": [
        {
          "internalType": "bytes32",
          "name": "",
          "type": "bytes32"
        }
      ],
      "stateMutability": "nonpayable",
      "type": "function"
    },
    {
      "inputs": [
        {
          "internalType": "uint256",
          "name": "tokenId",
          "type": "uint256"
        }
      ],
      "name": "getTokenURI",
      "outputs": [
        {
          "internalType": "string",
          "name": "",
          "type": "string"
        }
      ],
      "stateMutability": "view",
      "type": "function"
    },
    {
      "inputs": [
        {
          "internalType": "uint256",
          "name": "tokenId",
          "type": "uint256"
        },
        {
          "internalType": "string",
          "name": "_tokenURI",
          "type": "string"
        }
      ],
      "name": "setTokenURI",
      "outputs": [],
      "stateMutability": "nonpayable",
      "type": "function"
    },
    {
      "inputs": [],
      "name": "linkBalance",
      "outputs": [
        {
          "internalType": "uint256",
          "name": "",
          "type": "uint256"
        }
      ],
      "stateMutability": "view",
      "type": "function"
    },
    {
      "inputs": [
        {
          "internalType": "uint256",
          "name": "index",
          "type": "uint256"
        }
      ],
      "name": "showMyTokenByIndex",
      "outputs": [
        {
          "internalType": "uint256",
          "name": "",
          "type": "uint256"
        },
        {
          "internalType": "string",
          "name": "",
          "type": "string"
        },
        {
          "internalType": "string",
          "name": "",
          "type": "string"
        },
        {
          "internalType": "string",
          "name": "",
          "type": "string"
        }
      ],
      "stateMutability": "view",
      "type": "function"
    }
  ],
  "bytecode": "0x60c06040523480156200001157600080fd5b5073b3dccb4cf7a26f6cf6b120cf5a73875b7bbc655b7301be23585060835e02b77ef475b0cc51aa1e07096040518060400160405280601281526020017f506c6179596f757245766572797468696e6700000000000000000000000000008152506040518060400160405280600381526020017f5059450000000000000000000000000000000000000000000000000000000000815250620000c06301ffc9a760e01b6200034660201b60201c565b8160069080519060200190620000d892919062000457565b508060079080519060200190620000f192919062000457565b506200010a6380ac58cd60e01b6200034660201b60201c565b62000122635b5e139f60e01b6200034660201b60201c565b6200013a63780e9d6360e01b6200034660201b60201c565b50508173ffffffffffffffffffffffffffffffffffffffff1660a08173ffffffffffffffffffffffffffffffffffffffff1660601b815250508073ffffffffffffffffffffffffffffffffffffffff1660808173ffffffffffffffffffffffffffffffffffffffff1660601b8152505050506000620001be6200044f60201b60201c565b905080600b60006101000a81548173ffffffffffffffffffffffffffffffffffffffff021916908373ffffffffffffffffffffffffffffffffffffffff1602179055508073ffffffffffffffffffffffffffffffffffffffff16600073ffffffffffffffffffffffffffffffffffffffff167f8be0079c531659141344cd1fd0a4f28419497f9722a3daafe3b4186f6b6457e060405160405180910390a35073b3dccb4cf7a26f6cf6b120cf5a73875b7bbc655b601060006101000a81548173ffffffffffffffffffffffffffffffffffffffff021916908373ffffffffffffffffffffffffffffffffffffffff1602179055507301be23585060835e02b77ef475b0cc51aa1e0709601160006101000a81548173ffffffffffffffffffffffffffffffffffffffff021916908373ffffffffffffffffffffffffffffffffffffffff1602179055507f2ed0feb3e7fd2022120aa84fab1945545a9f2ffc9076fd6156fa96eaff4c131160001b600d8190555067016345785d8a0000600e8190555062000506565b63ffffffff60e01b817bffffffffffffffffffffffffffffffffffffffffffffffffffffffff19161415620003e3576040517f08c379a000000000000000000000000000000000000000000000000000000000815260040180806020018281038252601c8152602001807f4552433136353a20696e76616c696420696e746572666163652069640000000081525060200191505060405180910390fd5b6001600080837bffffffffffffffffffffffffffffffffffffffffffffffffffffffff19167bffffffffffffffffffffffffffffffffffffffffffffffffffffffff1916815260200190815260200160002060006101000a81548160ff02191690831515021790555050565b600033905090565b828054600181600116156101000203166002900490600052602060002090601f016020900481019282601f106200049a57805160ff1916838001178555620004cb565b82800160010185558215620004cb579182015b82811115620004ca578251825591602001919060010190620004ad565b5b509050620004da9190620004de565b5090565b6200050391905b80821115620004ff576000816000905550600101620004e5565b5090565b90565b60805160601c60a05160601c614c936200053f600039806122ec5280613339525080611c80528061274852806132fd5250614c936000f3fe608060405234801561001057600080fd5b50600436106102065760003560e01c80636352211e1161011a578063a22cb465116100ad578063c87b56dd1161007c578063c87b56dd14611155578063e985e9c5146111fc578063f2fde38b14611278578063f86bc0d5146112bc578063fdda55fa1461131e57610206565b8063a22cb46514610f3b578063a99bcf7014610f8b578063b88d4fde14611032578063c26ecefa1461113757610206565b8063715018a6116100e9578063715018a614610e2c5780638da5cb5b14610e3657806394985ddd14610e8057806395d89b4114610eb857610206565b80636352211e14610a455780636997319414610ab35780636c0360eb14610d5157806370a0823114610dd457610206565b806323b872dd1161019d57806342842e0e1161016c57806342842e0e146108545780634f6ccce7146108c2578063602977ad14610904578063611144141461095c578063620d82d614610a0357610206565b806323b872dd146106bf5780632f745c591461072d5780633bb3a24d1461078f57806342619f661461083657610206565b8063095ea7b3116101d9578063095ea7b3146104e7578063162094c41461053557806318160ddd146105fa5780631d521bdc1461061857610206565b806301ffc9a71461020b57806303a140631461027057806306fdde03146103f6578063081812fc14610479575b600080fd5b6102566004803603602081101561022157600080fd5b8101908080357bffffffffffffffffffffffffffffffffffffffffffffffffffffffff1916906020019092919050505061138c565b604051808215151515815260200191505060405180910390f35b61029c6004803603602081101561028657600080fd5b81019080803590602001909291905050506113f3565b60405180858152602001806020018060200180602001848103845287818151815260200191508051906020019080838360005b838110156102ea5780820151818401526020810190506102cf565b50505050905090810190601f1680156103175780820380516001836020036101000a031916815260200191505b50848103835286818151815260200191508051906020019080838360005b83811015610350578082015181840152602081019050610335565b50505050905090810190601f16801561037d5780820380516001836020036101000a031916815260200191505b50848103825285818151815260200191508051906020019080838360005b838110156103b657808201518184015260208101905061039b565b50505050905090810190601f1680156103e35780820380516001836020036101000a031916815260200191505b5097505050505050505060405180910390f35b6103fe611680565b6040518080602001828103825283818151815260200191508051906020019080838360005b8381101561043e578082015181840152602081019050610423565b50505050905090810190601f16801561046b5780820380516001836020036101000a031916815260200191505b509250505060405180910390f35b6104a56004803603602081101561048f57600080fd5b8101908080359060200190929190505050611722565b604051808273ffffffffffffffffffffffffffffffffffffffff1673ffffffffffffffffffffffffffffffffffffffff16815260200191505060405180910390f35b610533600480360360408110156104fd57600080fd5b81019080803573ffffffffffffffffffffffffffffffffffffffff169060200190929190803590602001909291905050506117bd565b005b6105f86004803603604081101561054b57600080fd5b81019080803590602001909291908035906020019064010000000081111561057257600080fd5b82018360208201111561058457600080fd5b803590602001918460018302840111640100000000831117156105a657600080fd5b91908080601f016020809104026020016040519081016040528093929190818152602001838380828437600081840152601f19601f820116905080830192505050505050509192919290505050611901565b005b610602611975565b6040518082815260200191505060405180910390f35b6106446004803603602081101561062e57600080fd5b8101908080359060200190929190505050611986565b6040518080602001828103825283818151815260200191508051906020019080838360005b83811015610684578082015181840152602081019050610669565b50505050905090810190601f1680156106b15780820380516001836020036101000a031916815260200191505b509250505060405180910390f35b61072b600480360360608110156106d557600080fd5b81019080803573ffffffffffffffffffffffffffffffffffffffff169060200190929190803573ffffffffffffffffffffffffffffffffffffffff16906020019092919080359060200190929190505050611a36565b005b6107796004803603604081101561074357600080fd5b81019080803573ffffffffffffffffffffffffffffffffffffffff16906020019092919080359060200190929190505050611aac565b6040518082815260200191505060405180910390f35b6107bb600480360360208110156107a557600080fd5b8101908080359060200190929190505050611b07565b6040518080602001828103825283818151815260200191508051906020019080838360005b838110156107fb5780820151818401526020810190506107e0565b50505050905090810190601f1680156108285780820380516001836020036101000a031916815260200191505b509250505060405180910390f35b61083e611b19565b6040518082815260200191505060405180910390f35b6108c06004803603606081101561086a57600080fd5b81019080803573ffffffffffffffffffffffffffffffffffffffff169060200190929190803573ffffffffffffffffffffffffffffffffffffffff16906020019092919080359060200190929190505050611b1f565b005b6108ee600480360360208110156108d857600080fd5b8101908080359060200190929190505050611b3f565b6040518082815260200191505060405180910390f35b6109466004803603602081101561091a57600080fd5b81019080803573ffffffffffffffffffffffffffffffffffffffff169060200190929190505050611b62565b6040518082815260200191505060405180910390f35b6109886004803603602081101561097257600080fd5b8101908080359060200190929190505050611b7a565b6040518080602001828103825283818151815260200191508051906020019080838360005b838110156109c85780820151818401526020810190506109ad565b50505050905090810190601f1680156109f55780820380516001836020036101000a031916815260200191505b509250505060405180910390f35b610a2f60048036036020811015610a1957600080fd5b8101908080359060200190929190505050611c2a565b6040518082815260200191505060405180910390f35b610a7160048036036020811015610a5b57600080fd5b8101908080359060200190929190505050611c42565b604051808273ffffffffffffffffffffffffffffffffffffffff1673ffffffffffffffffffffffffffffffffffffffff16815260200191505060405180910390f35b610d3b600480360360a0811015610ac957600080fd5b810190808035906020019092919080359060200190640100000000811115610af057600080fd5b820183602082011115610b0257600080fd5b80359060200191846001830284011164010000000083111715610b2457600080fd5b91908080601f016020809104026020016040519081016040528093929190818152602001838380828437600081840152601f19601f82011690508083019250505050505050919291929080359060200190640100000000811115610b8757600080fd5b820183602082011115610b9957600080fd5b80359060200191846001830284011164010000000083111715610bbb57600080fd5b91908080601f016020809104026020016040519081016040528093929190818152602001838380828437600081840152601f19601f82011690508083019250505050505050919291929080359060200190640100000000811115610c1e57600080fd5b820183602082011115610c3057600080fd5b80359060200191846001830284011164010000000083111715610c5257600080fd5b91908080601f016020809104026020016040519081016040528093929190818152602001838380828437600081840152601f19601f82011690508083019250505050505050919291929080359060200190640100000000811115610cb557600080fd5b820183602082011115610cc757600080fd5b80359060200191846001830284011164010000000083111715610ce957600080fd5b91908080601f016020809104026020016040519081016040528093929190818152602001838380828437600081840152601f19601f820116905080830192505050505050509192919290505050611c79565b6040518082815260200191505060405180910390f35b610d59611fd9565b6040518080602001828103825283818151815260200191508051906020019080838360005b83811015610d99578082015181840152602081019050610d7e565b50505050905090810190601f168015610dc65780820380516001836020036101000a031916815260200191505b509250505060405180910390f35b610e1660048036036020811015610dea57600080fd5b81019080803573ffffffffffffffffffffffffffffffffffffffff16906020019092919050505061207b565b6040518082815260200191505060405180910390f35b610e34612150565b005b610e3e6122c0565b604051808273ffffffffffffffffffffffffffffffffffffffff1673ffffffffffffffffffffffffffffffffffffffff16815260200191505060405180910390f35b610eb660048036036040811015610e9657600080fd5b8101908080359060200190929190803590602001909291905050506122ea565b005b610ec06123b9565b6040518080602001828103825283818151815260200191508051906020019080838360005b83811015610f00578082015181840152602081019050610ee5565b50505050905090810190601f168015610f2d5780820380516001836020036101000a031916815260200191505b509250505060405180910390f35b610f8960048036036040811015610f5157600080fd5b81019080803573ffffffffffffffffffffffffffffffffffffffff16906020019092919080351515906020019092919050505061245b565b005b610fb760048036036020811015610fa157600080fd5b8101908080359060200190929190505050612613565b6040518080602001828103825283818151815260200191508051906020019080838360005b83811015610ff7578082015181840152602081019050610fdc565b50505050905090810190601f1680156110245780820380516001836020036101000a031916815260200191505b509250505060405180910390f35b6111356004803603608081101561104857600080fd5b81019080803573ffffffffffffffffffffffffffffffffffffffff169060200190929190803573ffffffffffffffffffffffffffffffffffffffff16906020019092919080359060200190929190803590602001906401000000008111156110af57600080fd5b8201836020820111156110c157600080fd5b803590602001918460018302840111640100000000831117156110e357600080fd5b91908080601f016020809104026020016040519081016040528093929190818152602001838380828437600081840152601f19601f8201169050808301925050505050505091929192905050506126c3565b005b61113f61273b565b6040518082815260200191505060405180910390f35b6111816004803603602081101561116b57600080fd5b810190808035906020019092919050505061282b565b6040518080602001828103825283818151815260200191508051906020019080838360005b838110156111c15780820151818401526020810190506111a6565b50505050905090810190601f1680156111ee5780820380516001836020036101000a031916815260200191505b509250505060405180910390f35b61125e6004803603604081101561121257600080fd5b81019080803573ffffffffffffffffffffffffffffffffffffffff169060200190929190803573ffffffffffffffffffffffffffffffffffffffff169060200190929190505050612afc565b604051808215151515815260200191505060405180910390f35b6112ba6004803603602081101561128e57600080fd5b81019080803573ffffffffffffffffffffffffffffffffffffffff169060200190929190505050612b90565b005b611308600480360360408110156112d257600080fd5b81019080803573ffffffffffffffffffffffffffffffffffffffff16906020019092919080359060200190929190505050612d85565b6040518082815260200191505060405180910390f35b61134a6004803603602081101561133457600080fd5b8101908080359060200190929190505050612daa565b604051808273ffffffffffffffffffffffffffffffffffffffff1673ffffffffffffffffffffffffffffffffffffffff16815260200191505060405180910390f35b6000806000837bffffffffffffffffffffffffffffffffffffffffffffffffffffffff19167bffffffffffffffffffffffffffffffffffffffffffffffffffffffff1916815260200190815260200160002060009054906101000a900460ff169050919050565b600060608060606000601960003373ffffffffffffffffffffffffffffffffffffffff1673ffffffffffffffffffffffffffffffffffffffff16815260200190815260200160002060008781526020019081526020016000205490506014600082815260200190815260200160002054601660008381526020019081526020016000206018600084815260200190815260200160002060136000858152602001908152602001600020828054600181600116156101000203166002900480601f0160208091040260200160405190810160405280929190818152602001828054600181600116156101000203166002900480156115315780601f1061150657610100808354040283529160200191611531565b820191906000526020600020905b81548152906001019060200180831161151457829003601f168201915b50505050509250818054600181600116156101000203166002900480601f0160208091040260200160405190810160405280929190818152602001828054600181600116156101000203166002900480156115cd5780601f106115a2576101008083540402835291602001916115cd565b820191906000526020600020905b8154815290600101906020018083116115b057829003601f168201915b50505050509150808054600181600116156101000203166002900480601f0160208091040260200160405190810160405280929190818152602001828054600181600116156101000203166002900480156116695780601f1061163e57610100808354040283529160200191611669565b820191906000526020600020905b81548152906001019060200180831161164c57829003601f168201915b505050505090509450945094509450509193509193565b606060068054600181600116156101000203166002900480601f0160208091040260200160405190810160405280929190818152602001828054600181600116156101000203166002900480156117185780601f106116ed57610100808354040283529160200191611718565b820191906000526020600020905b8154815290600101906020018083116116fb57829003601f168201915b5050505050905090565b600061172d82612ddd565b611782576040517f08c379a000000000000000000000000000000000000000000000000000000000815260040180806020018281038252602c815260200180614b5c602c913960400191505060405180910390fd5b6004600083815260200190815260200160002060009054906101000a900473ffffffffffffffffffffffffffffffffffffffff169050919050565b60006117c882611c42565b90508073ffffffffffffffffffffffffffffffffffffffff168373ffffffffffffffffffffffffffffffffffffffff16141561184f576040517f08c379a0000000000000000000000000000000000000000000000000000000008152600401808060200182810382526021815260200180614c0c6021913960400191505060405180910390fd5b8073ffffffffffffffffffffffffffffffffffffffff1661186e612dfa565b73ffffffffffffffffffffffffffffffffffffffff16148061189d575061189c81611897612dfa565b612afc565b5b6118f2576040517f08c379a0000000000000000000000000000000000000000000000000000000008152600401808060200182810382526038815260200180614aaf6038913960400191505060405180910390fd5b6118fc8383612e02565b505050565b61191261190c612dfa565b83612ebb565b611967576040517f08c379a0000000000000000000000000000000000000000000000000000000008152600401808060200182810382526031815260200180614c2d6031913960400191505060405180910390fd5b6119718282612faf565b5050565b60006119816002613039565b905090565b60166020528060005260406000206000915090508054600181600116156101000203166002900480601f016020809104026020016040519081016040528092919081815260200182805460018160011615610100020316600290048015611a2e5780601f10611a0357610100808354040283529160200191611a2e565b820191906000526020600020905b815481529060010190602001808311611a1157829003601f168201915b505050505081565b611a47611a41612dfa565b82612ebb565b611a9c576040517f08c379a0000000000000000000000000000000000000000000000000000000008152600401808060200182810382526031815260200180614c2d6031913960400191505060405180910390fd5b611aa783838361304e565b505050565b6000611aff82600160008673ffffffffffffffffffffffffffffffffffffffff1673ffffffffffffffffffffffffffffffffffffffff16815260200190815260200160002061329190919063ffffffff16565b905092915050565b6060611b128261282b565b9050919050565b600f5481565b611b3a838383604051806020016040528060008152506126c3565b505050565b600080611b568360026132ab90919063ffffffff16565b50905080915050919050565b601a6020528060005260406000206000915090505481565b60136020528060005260406000206000915090508054600181600116156101000203166002900480601f016020809104026020016040519081016040528092919081815260200182805460018160011615610100020316600290048015611c225780601f10611bf757610100808354040283529160200191611c22565b820191906000526020600020905b815481529060010190602001808311611c0557829003601f168201915b505050505081565b60146020528060005260406000206000915090505481565b6000611c7282604051806060016040528060298152602001614b116029913960026132da9092919063ffffffff16565b9050919050565b6000600e547f000000000000000000000000000000000000000000000000000000000000000073ffffffffffffffffffffffffffffffffffffffff166370a08231306040518263ffffffff1660e01b8152600401808273ffffffffffffffffffffffffffffffffffffffff1673ffffffffffffffffffffffffffffffffffffffff16815260200191505060206040518083038186803b158015611d1b57600080fd5b505afa158015611d2f573d6000803e3d6000fd5b505050506040513d6020811015611d4557600080fd5b81019080805190602001909291905050501015611dad576040517f08c379a000000000000000000000000000000000000000000000000000000000815260040180806020018281038252602b815260200180614a32602b913960400191505060405180910390fd5b6000611dbe600d54600e54896132f9565b905080601960003373ffffffffffffffffffffffffffffffffffffffff1673ffffffffffffffffffffffffffffffffffffffff1681526020019081526020016000206000601a60003373ffffffffffffffffffffffffffffffffffffffff1673ffffffffffffffffffffffffffffffffffffffff168152602001908152602001600020548152602001908152602001600020819055506001601a60003373ffffffffffffffffffffffffffffffffffffffff1673ffffffffffffffffffffffffffffffffffffffff1681526020019081526020016000205401601a60003373ffffffffffffffffffffffffffffffffffffffff1673ffffffffffffffffffffffffffffffffffffffff1681526020019081526020016000208190555084601360008381526020019081526020016000209080519060200190611f019291906148ee565b50336015600083815260200190815260200160002060006101000a81548173ffffffffffffffffffffffffffffffffffffffff021916908373ffffffffffffffffffffffffffffffffffffffff16021790555085601660008381526020019081526020016000209080519060200190611f7b9291906148ee565b5083601760008381526020019081526020016000209080519060200190611fa39291906148ee565b5082601860008381526020019081526020016000209080519060200190611fcb9291906148ee565b508091505095945050505050565b606060098054600181600116156101000203166002900480601f0160208091040260200160405190810160405280929190818152602001828054600181600116156101000203166002900480156120715780601f1061204657610100808354040283529160200191612071565b820191906000526020600020905b81548152906001019060200180831161205457829003601f168201915b5050505050905090565b60008073ffffffffffffffffffffffffffffffffffffffff168273ffffffffffffffffffffffffffffffffffffffff161415612102576040517f08c379a000000000000000000000000000000000000000000000000000000000815260040180806020018281038252602a815260200180614ae7602a913960400191505060405180910390fd5b612149600160008473ffffffffffffffffffffffffffffffffffffffff1673ffffffffffffffffffffffffffffffffffffffff168152602001908152602001600020613507565b9050919050565b612158612dfa565b73ffffffffffffffffffffffffffffffffffffffff166121766122c0565b73ffffffffffffffffffffffffffffffffffffffff16146121ff576040517f08c379a00000000000000000000000000000000000000000000000000000000081526004018080602001828103825260208152602001807f4f776e61626c653a2063616c6c6572206973206e6f7420746865206f776e657281525060200191505060405180910390fd5b600073ffffffffffffffffffffffffffffffffffffffff16600b60009054906101000a900473ffffffffffffffffffffffffffffffffffffffff1673ffffffffffffffffffffffffffffffffffffffff167f8be0079c531659141344cd1fd0a4f28419497f9722a3daafe3b4186f6b6457e060405160405180910390a36000600b60006101000a81548173ffffffffffffffffffffffffffffffffffffffff021916908373ffffffffffffffffffffffffffffffffffffffff160217905550565b6000600b60009054906101000a900473ffffffffffffffffffffffffffffffffffffffff16905090565b7f000000000000000000000000000000000000000000000000000000000000000073ffffffffffffffffffffffffffffffffffffffff163373ffffffffffffffffffffffffffffffffffffffff16146123ab576040517f08c379a000000000000000000000000000000000000000000000000000000000815260040180806020018281038252601f8152602001807f4f6e6c7920565246436f6f7264696e61746f722063616e2066756c66696c6c0081525060200191505060405180910390fd5b6123b5828261351c565b5050565b606060078054600181600116156101000203166002900480601f0160208091040260200160405190810160405280929190818152602001828054600181600116156101000203166002900480156124515780601f1061242657610100808354040283529160200191612451565b820191906000526020600020905b81548152906001019060200180831161243457829003601f168201915b5050505050905090565b612463612dfa565b73ffffffffffffffffffffffffffffffffffffffff168273ffffffffffffffffffffffffffffffffffffffff161415612504576040517f08c379a00000000000000000000000000000000000000000000000000000000081526004018080602001828103825260198152602001807f4552433732313a20617070726f766520746f2063616c6c65720000000000000081525060200191505060405180910390fd5b8060056000612511612dfa565b73ffffffffffffffffffffffffffffffffffffffff1673ffffffffffffffffffffffffffffffffffffffff16815260200190815260200160002060008473ffffffffffffffffffffffffffffffffffffffff1673ffffffffffffffffffffffffffffffffffffffff16815260200190815260200160002060006101000a81548160ff0219169083151502179055508173ffffffffffffffffffffffffffffffffffffffff166125be612dfa565b73ffffffffffffffffffffffffffffffffffffffff167f17307eab39ab6107e8899845ad3d59bd9653f200f220920489ca2b5937696c3183604051808215151515815260200191505060405180910390a35050565b60186020528060005260406000206000915090508054600181600116156101000203166002900480601f0160208091040260200160405190810160405280929190818152602001828054600181600116156101000203166002900480156126bb5780601f10612690576101008083540402835291602001916126bb565b820191906000526020600020905b81548152906001019060200180831161269e57829003601f168201915b505050505081565b6126d46126ce612dfa565b83612ebb565b612729576040517f08c379a0000000000000000000000000000000000000000000000000000000008152600401808060200182810382526031815260200180614c2d6031913960400191505060405180910390fd5b6127358484848461395c565b50505050565b6000670de0b6b3a76400007f000000000000000000000000000000000000000000000000000000000000000073ffffffffffffffffffffffffffffffffffffffff166370a08231306040518263ffffffff1660e01b8152600401808273ffffffffffffffffffffffffffffffffffffffff1673ffffffffffffffffffffffffffffffffffffffff16815260200191505060206040518083038186803b1580156127e357600080fd5b505afa1580156127f7573d6000803e3d6000fd5b505050506040513d602081101561280d57600080fd5b81019080805190602001909291905050508161282557fe5b04905090565b606061283682612ddd565b61288b576040517f08c379a000000000000000000000000000000000000000000000000000000000815260040180806020018281038252602f815260200180614bdd602f913960400191505060405180910390fd5b6060600860008481526020019081526020016000208054600181600116156101000203166002900480601f0160208091040260200160405190810160405280929190818152602001828054600181600116156101000203166002900480156129345780601f1061290957610100808354040283529160200191612934565b820191906000526020600020905b81548152906001019060200180831161291757829003601f168201915b505050505090506060612945611fd9565b905060008151141561295b578192505050612af7565b600082511115612a2c5780826040516020018083805190602001908083835b6020831061299d578051825260208201915060208101905060208303925061297a565b6001836020036101000a03801982511681845116808217855250505050505090500182805190602001908083835b602083106129ee57805182526020820191506020810190506020830392506129cb565b6001836020036101000a0380198251168184511680821785525050505050509050019250505060405160208183030381529060405292505050612af7565b80612a36856139ce565b6040516020018083805190602001908083835b60208310612a6c5780518252602082019150602081019050602083039250612a49565b6001836020036101000a03801982511681845116808217855250505050505090500182805190602001908083835b60208310612abd5780518252602082019150602081019050602083039250612a9a565b6001836020036101000a03801982511681845116808217855250505050505090500192505050604051602081830303815290604052925050505b919050565b6000600560008473ffffffffffffffffffffffffffffffffffffffff1673ffffffffffffffffffffffffffffffffffffffff16815260200190815260200160002060008373ffffffffffffffffffffffffffffffffffffffff1673ffffffffffffffffffffffffffffffffffffffff16815260200190815260200160002060009054906101000a900460ff16905092915050565b612b98612dfa565b73ffffffffffffffffffffffffffffffffffffffff16612bb66122c0565b73ffffffffffffffffffffffffffffffffffffffff1614612c3f576040517f08c379a00000000000000000000000000000000000000000000000000000000081526004018080602001828103825260208152602001807f4f776e61626c653a2063616c6c6572206973206e6f7420746865206f776e657281525060200191505060405180910390fd5b600073ffffffffffffffffffffffffffffffffffffffff168173ffffffffffffffffffffffffffffffffffffffff161415612cc5576040517f08c379a00000000000000000000000000000000000000000000000000000000081526004018080602001828103825260268152602001806149e86026913960400191505060405180910390fd5b8073ffffffffffffffffffffffffffffffffffffffff16600b60009054906101000a900473ffffffffffffffffffffffffffffffffffffffff1673ffffffffffffffffffffffffffffffffffffffff167f8be0079c531659141344cd1fd0a4f28419497f9722a3daafe3b4186f6b6457e060405160405180910390a380600b60006101000a81548173ffffffffffffffffffffffffffffffffffffffff021916908373ffffffffffffffffffffffffffffffffffffffff16021790555050565b6019602052816000526040600020602052806000526040600020600091509150505481565b60156020528060005260406000206000915054906101000a900473ffffffffffffffffffffffffffffffffffffffff1681565b6000612df3826002613b1590919063ffffffff16565b9050919050565b600033905090565b816004600083815260200190815260200160002060006101000a81548173ffffffffffffffffffffffffffffffffffffffff021916908373ffffffffffffffffffffffffffffffffffffffff160217905550808273ffffffffffffffffffffffffffffffffffffffff16612e7583611c42565b73ffffffffffffffffffffffffffffffffffffffff167f8c5be1e5ebec7d5bd14f71427d1e84f3dd0314c0f7b2291e5b200ac8c7c3b92560405160405180910390a45050565b6000612ec682612ddd565b612f1b576040517f08c379a000000000000000000000000000000000000000000000000000000000815260040180806020018281038252602c815260200180614a83602c913960400191505060405180910390fd5b6000612f2683611c42565b90508073ffffffffffffffffffffffffffffffffffffffff168473ffffffffffffffffffffffffffffffffffffffff161480612f9557508373ffffffffffffffffffffffffffffffffffffffff16612f7d84611722565b73ffffffffffffffffffffffffffffffffffffffff16145b80612fa65750612fa58185612afc565b5b91505092915050565b612fb882612ddd565b61300d576040517f08c379a000000000000000000000000000000000000000000000000000000000815260040180806020018281038252602c815260200180614b88602c913960400191505060405180910390fd5b806008600084815260200190815260200160002090805190602001906130349291906148ee565b505050565b600061304782600001613b2f565b9050919050565b8273ffffffffffffffffffffffffffffffffffffffff1661306e82611c42565b73ffffffffffffffffffffffffffffffffffffffff16146130da576040517f08c379a0000000000000000000000000000000000000000000000000000000008152600401808060200182810382526029815260200180614bb46029913960400191505060405180910390fd5b600073ffffffffffffffffffffffffffffffffffffffff168273ffffffffffffffffffffffffffffffffffffffff161415613160576040517f08c379a0000000000000000000000000000000000000000000000000000000008152600401808060200182810382526024815260200180614a0e6024913960400191505060405180910390fd5b61316b838383613b40565b613176600082612e02565b6131c781600160008673ffffffffffffffffffffffffffffffffffffffff1673ffffffffffffffffffffffffffffffffffffffff168152602001908152602001600020613b4590919063ffffffff16565b5061321981600160008573ffffffffffffffffffffffffffffffffffffffff1673ffffffffffffffffffffffffffffffffffffffff168152602001908152602001600020613b5f90919063ffffffff16565b5061323081836002613b799092919063ffffffff16565b50808273ffffffffffffffffffffffffffffffffffffffff168473ffffffffffffffffffffffffffffffffffffffff167fddf252ad1be2c89b69c2b068fc378daa952ba7f163c4a11628f55a4df523b3ef60405160405180910390a4505050565b60006132a08360000183613bae565b60001c905092915050565b6000806000806132be8660000186613c31565b915091508160001c8160001c8090509350935050509250929050565b60006132ed846000018460001b84613cca565b60001c90509392505050565b60007f000000000000000000000000000000000000000000000000000000000000000073ffffffffffffffffffffffffffffffffffffffff16634000aea07f000000000000000000000000000000000000000000000000000000000000000085878660405160200180838152602001828152602001925050506040516020818303038152906040526040518463ffffffff1660e01b8152600401808473ffffffffffffffffffffffffffffffffffffffff1673ffffffffffffffffffffffffffffffffffffffff16815260200183815260200180602001828103825283818151815260200191508051906020019080838360005b838110156134085780820151818401526020810190506133ed565b50505050905090810190601f1680156134355780820380516001836020036101000a031916815260200191505b50945050505050602060405180830381600087803b15801561345657600080fd5b505af115801561346a573d6000803e3d6000fd5b505050506040513d602081101561348057600080fd5b81019080805190602001909291905050505060006134b3858430600a60008a815260200190815260200160002054613dc0565b90506134dc6001600a600088815260200190815260200160002054613e3a90919063ffffffff16565b600a6000878152602001908152602001600020819055506134fd8582613ec2565b9150509392505050565b600061351582600001613efb565b9050919050565b600081905061355e6015600085815260200190815260200160002060009054906101000a900473ffffffffffffffffffffffffffffffffffffffff1682613f0c565b80601460008581526020019081526020016000208190555060126040518060c001604052808381526020013373ffffffffffffffffffffffffffffffffffffffff168152602001601660008781526020019081526020016000208054600181600116156101000203166002900480601f01602080910402602001604051908101604052809291908181526020018280546001816001161561010002031660029004801561364c5780601f106136215761010080835404028352916020019161364c565b820191906000526020600020905b81548152906001019060200180831161362f57829003601f168201915b50505050508152602001601760008781526020019081526020016000208054600181600116156101000203166002900480601f0160208091040260200160405190810160405280929190818152602001828054600181600116156101000203166002900480156136fd5780601f106136d2576101008083540402835291602001916136fd565b820191906000526020600020905b8154815290600101906020018083116136e057829003601f168201915b50505050508152602001601860008781526020019081526020016000208054600181600116156101000203166002900480601f0160208091040260200160405190810160405280929190818152602001828054600181600116156101000203166002900480156137ae5780601f10613783576101008083540402835291602001916137ae565b820191906000526020600020905b81548152906001019060200180831161379157829003601f168201915b50505050508152602001601360008781526020019081526020016000208054600181600116156101000203166002900480601f01602080910402602001604051908101604052809291908181526020018280546001816001161561010002031660029004801561385f5780601f106138345761010080835404028352916020019161385f565b820191906000526020600020905b81548152906001019060200180831161384257829003601f168201915b505050505081525090806001815401808255809150506001900390600052602060002090600602016000909190919091506000820151816000015560208201518160010160006101000a81548173ffffffffffffffffffffffffffffffffffffffff021916908373ffffffffffffffffffffffffffffffffffffffff16021790555060408201518160020190805190602001906138fd9291906148ee565b50606082015181600301908051906020019061391a9291906148ee565b5060808201518160040190805190602001906139379291906148ee565b5060a08201518160050190805190602001906139549291906148ee565b505050505050565b61396784848461304e565b61397384848484613f2a565b6139c8576040517f08c379a00000000000000000000000000000000000000000000000000000000081526004018080602001828103825260328152602001806149b66032913960400191505060405180910390fd5b50505050565b60606000821415613a16576040518060400160405280600181526020017f30000000000000000000000000000000000000000000000000000000000000008152509050613b10565b600082905060005b60008214613a40578080600101915050600a8281613a3857fe5b049150613a1e565b60608167ffffffffffffffff81118015613a5957600080fd5b506040519080825280601f01601f191660200182016040528015613a8c5781602001600182028036833780820191505090505b50905060006001830390508593505b60008414613b0857600a8481613aad57fe5b0660300160f81b82828060019003935081518110613ac757fe5b60200101907effffffffffffffffffffffffffffffffffffffffffffffffffffffffffffff1916908160001a905350600a8481613b0057fe5b049350613a9b565b819450505050505b919050565b6000613b27836000018360001b61416f565b905092915050565b600081600001805490509050919050565b505050565b6000613b57836000018360001b614192565b905092915050565b6000613b71836000018360001b61427a565b905092915050565b6000613ba5846000018460001b8473ffffffffffffffffffffffffffffffffffffffff1660001b6142ea565b90509392505050565b600081836000018054905011613c0f576040517f08c379a00000000000000000000000000000000000000000000000000000000081526004018080602001828103825260228152602001806149946022913960400191505060405180910390fd5b826000018281548110613c1e57fe5b9060005260206000200154905092915050565b60008082846000018054905011613c93576040517f08c379a0000000000000000000000000000000000000000000000000000000008152600401808060200182810382526022815260200180614b3a6022913960400191505060405180910390fd5b6000846000018481548110613ca457fe5b906000526020600020906002020190508060000154816001015492509250509250929050565b60008084600101600085815260200190815260200160002054905060008114158390613d91576040517f08c379a00000000000000000000000000000000000000000000000000000000081526004018080602001828103825283818151815260200191508051906020019080838360005b83811015613d56578082015181840152602081019050613d3b565b50505050905090810190601f168015613d835780820380516001836020036101000a031916815260200191505b509250505060405180910390fd5b50846000016001820381548110613da457fe5b9060005260206000209060020201600101549150509392505050565b600084848484604051602001808581526020018481526020018373ffffffffffffffffffffffffffffffffffffffff1673ffffffffffffffffffffffffffffffffffffffff1681526020018281526020019450505050506040516020818303038152906040528051906020012060001c9050949350505050565b600080828401905083811015613eb8576040517f08c379a000000000000000000000000000000000000000000000000000000000815260040180806020018281038252601b8152602001807f536166654d6174683a206164646974696f6e206f766572666c6f77000000000081525060200191505060405180910390fd5b8091505092915050565b60008282604051602001808381526020018281526020019250505060405160208183030381529060405280519060200120905092915050565b600081600001805490509050919050565b613f268282604051806020016040528060008152506143c6565b5050565b6000613f4b8473ffffffffffffffffffffffffffffffffffffffff16614437565b613f585760019050614167565b60606140ee63150b7a0260e01b613f6d612dfa565b888787604051602401808573ffffffffffffffffffffffffffffffffffffffff1673ffffffffffffffffffffffffffffffffffffffff1681526020018473ffffffffffffffffffffffffffffffffffffffff1673ffffffffffffffffffffffffffffffffffffffff16815260200183815260200180602001828103825283818151815260200191508051906020019080838360005b8381101561401d578082015181840152602081019050614002565b50505050905090810190601f16801561404a5780820380516001836020036101000a031916815260200191505b5095505050505050604051602081830303815290604052907bffffffffffffffffffffffffffffffffffffffffffffffffffffffff19166020820180517bffffffffffffffffffffffffffffffffffffffffffffffffffffffff83818316178352505050506040518060600160405280603281526020016149b6603291398773ffffffffffffffffffffffffffffffffffffffff1661444a9092919063ffffffff16565b9050600081806020019051602081101561410757600080fd5b8101908080519060200190929190505050905063150b7a0260e01b7bffffffffffffffffffffffffffffffffffffffffffffffffffffffff1916817bffffffffffffffffffffffffffffffffffffffffffffffffffffffff191614925050505b949350505050565b600080836001016000848152602001908152602001600020541415905092915050565b6000808360010160008481526020019081526020016000205490506000811461426e57600060018203905060006001866000018054905003905060008660000182815481106141dd57fe5b90600052602060002001549050808760000184815481106141fa57fe5b906000526020600020018190555060018301876001016000838152602001908152602001600020819055508660000180548061423257fe5b60019003818190600052602060002001600090559055866001016000878152602001908152602001600020600090556001945050505050614274565b60009150505b92915050565b60006142868383614462565b6142df5782600001829080600181540180825580915050600190039060005260206000200160009091909190915055826000018054905083600101600084815260200190815260200160002081905550600190506142e4565b600090505b92915050565b6000808460010160008581526020019081526020016000205490506000811415614391578460000160405180604001604052808681526020018581525090806001815401808255809150506001900390600052602060002090600202016000909190919091506000820151816000015560208201518160010155505084600001805490508560010160008681526020019081526020016000208190555060019150506143bf565b828560000160018303815481106143a457fe5b90600052602060002090600202016001018190555060009150505b9392505050565b6143d08383614485565b6143dd6000848484613f2a565b614432576040517f08c379a00000000000000000000000000000000000000000000000000000000081526004018080602001828103825260328152602001806149b66032913960400191505060405180910390fd5b505050565b600080823b905060008111915050919050565b60606144598484600085614679565b90509392505050565b600080836001016000848152602001908152602001600020541415905092915050565b600073ffffffffffffffffffffffffffffffffffffffff168273ffffffffffffffffffffffffffffffffffffffff161415614528576040517f08c379a00000000000000000000000000000000000000000000000000000000081526004018080602001828103825260208152602001807f4552433732313a206d696e7420746f20746865207a65726f206164647265737381525060200191505060405180910390fd5b61453181612ddd565b156145a4576040517f08c379a000000000000000000000000000000000000000000000000000000000815260040180806020018281038252601c8152602001807f4552433732313a20746f6b656e20616c7265616479206d696e7465640000000081525060200191505060405180910390fd5b6145b060008383613b40565b61460181600160008573ffffffffffffffffffffffffffffffffffffffff1673ffffffffffffffffffffffffffffffffffffffff168152602001908152602001600020613b5f90919063ffffffff16565b5061461881836002613b799092919063ffffffff16565b50808273ffffffffffffffffffffffffffffffffffffffff16600073ffffffffffffffffffffffffffffffffffffffff167fddf252ad1be2c89b69c2b068fc378daa952ba7f163c4a11628f55a4df523b3ef60405160405180910390a45050565b6060824710156146d4576040517f08c379a0000000000000000000000000000000000000000000000000000000008152600401808060200182810382526026815260200180614a5d6026913960400191505060405180910390fd5b6146dd85614437565b61474f576040517f08c379a000000000000000000000000000000000000000000000000000000000815260040180806020018281038252601d8152602001807f416464726573733a2063616c6c20746f206e6f6e2d636f6e747261637400000081525060200191505060405180910390fd5b600060608673ffffffffffffffffffffffffffffffffffffffff1685876040518082805190602001908083835b6020831061479f578051825260208201915060208101905060208303925061477c565b6001836020036101000a03801982511681845116808217855250505050505090500191505060006040518083038185875af1925050503d8060008114614801576040519150601f19603f3d011682016040523d82523d6000602084013e614806565b606091505b5091509150614816828286614822565b92505050949350505050565b60608315614832578290506148e7565b6000835111156148455782518084602001fd5b816040517f08c379a00000000000000000000000000000000000000000000000000000000081526004018080602001828103825283818151815260200191508051906020019080838360005b838110156148ac578082015181840152602081019050614891565b50505050905090810190601f1680156148d95780820380516001836020036101000a031916815260200191505b509250505060405180910390fd5b9392505050565b828054600181600116156101000203166002900490600052602060002090601f016020900481019282601f1061492f57805160ff191683800117855561495d565b8280016001018555821561495d579182015b8281111561495c578251825591602001919060010190614941565b5b50905061496a919061496e565b5090565b61499091905b8082111561498c576000816000905550600101614974565b5090565b9056fe456e756d657261626c655365743a20696e646578206f7574206f6620626f756e64734552433732313a207472616e7366657220746f206e6f6e20455243373231526563656976657220696d706c656d656e7465724f776e61626c653a206e6577206f776e657220697320746865207a65726f20616464726573734552433732313a207472616e7366657220746f20746865207a65726f20616464726573734e6f7420656e6f756768204c494e4b202d2066696c6c20636f6e7472616374207769746820666175636574416464726573733a20696e73756666696369656e742062616c616e636520666f722063616c6c4552433732313a206f70657261746f7220717565727920666f72206e6f6e6578697374656e7420746f6b656e4552433732313a20617070726f76652063616c6c6572206973206e6f74206f776e6572206e6f7220617070726f76656420666f7220616c6c4552433732313a2062616c616e636520717565727920666f7220746865207a65726f20616464726573734552433732313a206f776e657220717565727920666f72206e6f6e6578697374656e7420746f6b656e456e756d657261626c654d61703a20696e646578206f7574206f6620626f756e64734552433732313a20617070726f76656420717565727920666f72206e6f6e6578697374656e7420746f6b656e4552433732314d657461646174613a2055524920736574206f66206e6f6e6578697374656e7420746f6b656e4552433732313a207472616e73666572206f6620746f6b656e2074686174206973206e6f74206f776e4552433732314d657461646174613a2055524920717565727920666f72206e6f6e6578697374656e7420746f6b656e4552433732313a20617070726f76616c20746f2063757272656e74206f776e65724552433732313a207472616e736665722063616c6c6572206973206e6f74206f776e6572206e6f7220617070726f766564a26469706673582212206a8a33254f55acf213b21ba9b3ad9b3807ec22e0a2a37af1e2c6e822e1e9ba0264736f6c63430006060033",
  "immutableReferences": {
    "2216": [
      {
        "length": 32,
        "start": 7296
      },
      {
        "length": 32,
        "start": 10056
      },
      {
        "length": 32,
        "start": 13053
      }
    ],
    "2218": [
      {
        "length": 32,
        "start": 8940
      },
      {
        "length": 32,
        "start": 13113
      }
    ]
  },
  "source": "// SPDX_License-Identifier: MIT\r\npragma solidity ^0.6.6;\r\n/*\r\nimport \"https://raw.githubusercontent.com/OpenZeppelin/openzeppelin-contracts/release-v3.0.0/contracts/token/ERC721/ERC721.sol\";\r\nimport \"https://raw.githubusercontent.com/OpenZeppelin/openzeppelin-contracts/release-v3.0.0/contracts/access/Ownable.sol\";\r\nimport \"https://raw.githubusercontent.com/OpenZeppelin/openzeppelin-contracts/release-v3.0.0/contracts/utils/Strings.sol\";\r\nimport \"https://raw.githubusercontent.com/smartcontractkit/chainlink/master/evm-contracts/src/v0.6/VRFConsumerBase.sol\";\r\n*/\r\n\r\nimport \"@openzeppelin/contracts/token/ERC721/ERC721.sol\";\r\nimport \"@openzeppelin/contracts/access/Ownable.sol\";\r\nimport \"@openzeppelin/contracts/utils/Strings.sol\";\r\nimport \"@chainlink/contracts/src/v0.6/VRFConsumerBase.sol\";\r\n\r\ncontract OracleNFT is ERC721, VRFConsumerBase, Ownable {\r\n    \r\n    using SafeMath for uint256;\r\n    using Strings for string;\r\n    \r\n    uint256 private _tokenIds;\r\n    bytes32 internal keyHash;\r\n    \r\n    uint256 internal linkFee;\r\n    uint256 public randomResult;\r\n    \r\n    address private vRFCoordinator;\r\n    address private linkToken;\r\n    \r\n      /**\r\n     * Constructor inherits VRFConsumerBase\r\n     *\r\n     * Network: xDAI\r\n     * Chainlink VRF Coordinator address: 0xbA1EbEf4BD6610aC1C5ddaE7a4Ab19D7fcf22b3F\r\n     * LINK token address:                0xE2e73A1c69ecF83F464EFCE6A5be353a37cA09b2\r\n     * Key Hash: 0x6e75b569a01ef56d18cab6a8e71e6600d6ce853834d4a5748b720d06f878b3a4\r\n     */\r\n    \r\n     /**\r\n     * Constructor inherits VRFConsumerBase\r\n     *\r\n     *  Network: Polygon Mumbai Testnet\r\n        LINK Token\t0x326C977E6efc84E512bB9C30f76E30c160eD06FB\r\n        VRF Coordinator\t0x8C7382F9D8f56b33781fE506E897a4F1e2d17255\r\n        Key Hash\t0x6e75b569a01ef56d18cab6a8e71e6600d6ce853834d4a5748b720d06f878b3a4\r\n        Fee\t0.0001 LINK\r\n     */\r\n\r\n      /**\r\n     * Constructor inherits VRFConsumerBase\r\n     *\r\n     * Network: Avax Fuji Testnet\r\n     * Chainlink VRF Coordinator address: 0xb3dCcb4Cf7a26f6cf6B120Cf5A73875B7BBc655B\r\n     * LINK token address:                0x01BE23585060835E02B77ef475b0Cc51aA1e0709\r\n     * Key Hash: 0x2ed0feb3e7fd2022120aa84fab1945545a9f2ffc9076fd6156fa96eaff4c1311\r\n     */\r\n\r\n      /***\r\n     * Constructor inherits VRFConsumerBase\r\n     *\r\n     * Network: Rinkeby\r\n     * Chainlink VRF Coordinator address: 0xb3dCcb4Cf7a26f6cf6B120Cf5A73875B7BBc655B\r\n     * LINK token address:                0x01BE23585060835E02B77ef475b0Cc51aA1e0709\r\n     * Key Hash: 0x2ed0feb3e7fd2022120aa84fab1945545a9f2ffc9076fd6156fa96eaff4c1311\r\n     */\r\n\r\n\r\n    constructor()\r\n    public\r\n    VRFConsumerBase(0xb3dCcb4Cf7a26f6cf6B120Cf5A73875B7BBc655B, 0x01BE23585060835E02B77ef475b0Cc51aA1e0709) \r\n    ERC721(\"PlayYourEverything\", \"PYE\") \r\n    {\r\n        vRFCoordinator = 0xb3dCcb4Cf7a26f6cf6B120Cf5A73875B7BBc655B;\r\n        linkToken = 0x01BE23585060835E02B77ef475b0Cc51aA1e0709;\r\n        keyHash = 0x2ed0feb3e7fd2022120aa84fab1945545a9f2ffc9076fd6156fa96eaff4c1311;\r\n        linkFee = 0.1 * 10**18; // 0.1 LINK\r\n    }\r\n    struct PYEToken {\r\n        uint256 id;\r\n        address artist;\r\n        string name;\r\n        string priv;\r\n        string pub;\r\n        string pYEObject;\r\n    }\r\n    \r\n    PYEToken[] private pyeTokens;\r\n    \r\n    mapping(bytes32 => string) public pyeObjectbyIDT; \r\n    mapping(bytes32 => uint256) public IDTbyID; \r\n    mapping(bytes32 => address) public artistByIDT;  \r\n    mapping(bytes32 => string) public nameByIDT; \r\n    mapping(bytes32 => string) private privByIDT; \r\n    mapping(bytes32 => string) public pubByIDT; \r\n    mapping(address => mapping(uint256 => bytes32)) public ArtistPyeList;\r\n    mapping(address => uint256) public howMany;\r\n    \r\n    function bakePYE(\r\n        uint256 userProvidedSeed,\r\n        string memory _name,\r\n        string memory _object,\r\n        string memory _priv,\r\n        string memory _pub\r\n    ) public returns (bytes32) {\r\n        \r\n        require(\r\n            LINK.balanceOf(address(this)) >= linkFee,\r\n            \"Not enough LINK - fill contract with faucet\"\r\n        );\r\n        \r\n        bytes32 newItemId = requestRandomness(keyHash, linkFee, userProvidedSeed);\r\n        ArtistPyeList[msg.sender][howMany[msg.sender]] = newItemId;\r\n        howMany[msg.sender] = howMany[msg.sender] + 1; \r\n        pyeObjectbyIDT[newItemId] = _object;\r\n        artistByIDT[newItemId] = msg.sender;\r\n        nameByIDT[newItemId] = _name;\r\n        privByIDT[newItemId] = _priv;\r\n        pubByIDT[newItemId] = _pub;\r\n        \r\n         \r\n        \r\n        return newItemId;\r\n    }\r\n\r\n    function getTokenURI(uint256 tokenId) public view returns (string memory) {\r\n        return tokenURI(tokenId);\r\n    }\r\n\r\n    function setTokenURI(uint256 tokenId, string memory _tokenURI) public {\r\n        require(\r\n            _isApprovedOrOwner(_msgSender(), tokenId),\r\n            \"ERC721: transfer caller is not owner nor approved\"\r\n        );\r\n        _setTokenURI(tokenId, _tokenURI);\r\n    }\r\n    \r\n    function fulfillRandomness(bytes32 requestId, uint256 randomNumber)\r\n        internal\r\n        override\r\n        \r\n    {\r\n        \r\n        uint256 newItemId = randomNumber; \r\n        _safeMint(artistByIDT[requestId], newItemId);\r\n        IDTbyID[requestId] = newItemId;\r\n        pyeTokens.push(\r\n            PYEToken(newItemId,\r\n            msg.sender,\r\n            nameByIDT[requestId],\r\n            privByIDT[requestId],\r\n            pubByIDT[requestId],\r\n            pyeObjectbyIDT[requestId])\r\n        );\r\n        \r\n        \r\n    }\r\n    function linkBalance() public view returns(uint256){\r\n    \r\n        return LINK.balanceOf(address(this)) / 10 ** 18;\r\n    }\r\n    \r\n    function showMyTokenByIndex(uint256 index) public view returns(uint256,string memory,string memory,string memory){\r\n        bytes32 hTok = ArtistPyeList[msg.sender][index];\r\n        return (IDTbyID[hTok],nameByIDT[hTok],pubByIDT[hTok],pyeObjectbyIDT[hTok]);\r\n    }\r\n}\r\n\r\n         ",
  "sourcePath": "C:/Users/User/LINKHack/pyeFraxio/src/contracts/OracleNFT.sol",
  "compiler": {
    "name": "solc",
    "version": "0.6.6+commit.6c089d02.Emscripten.clang"
  },
  "schemaVersion": "3.3.1",
  "updatedAt": "2021-04-15T15:22:38.755Z",
  "devdoc": {
    "methods": {
      "approve(address,uint256)": {
        "details": "See {IERC721-approve}."
      },
      "balanceOf(address)": {
        "details": "See {IERC721-balanceOf}."
      },
      "baseURI()": {
        "details": "Returns the base URI set via {_setBaseURI}. This will be automatically added as a prefix in {tokenURI} to each token's URI, or to the token ID if no specific URI is set for that token ID."
      },
      "getApproved(uint256)": {
        "details": "See {IERC721-getApproved}."
      },
      "isApprovedForAll(address,address)": {
        "details": "See {IERC721-isApprovedForAll}."
      },
      "name()": {
        "details": "See {IERC721Metadata-name}."
      },
      "owner()": {
        "details": "Returns the address of the current owner."
      },
      "ownerOf(uint256)": {
        "details": "See {IERC721-ownerOf}."
      },
      "renounceOwnership()": {
        "details": "Leaves the contract without owner. It will not be possible to call `onlyOwner` functions anymore. Can only be called by the current owner.     * NOTE: Renouncing ownership will leave the contract without an owner, thereby removing any functionality that is only available to the owner."
      },
      "safeTransferFrom(address,address,uint256)": {
        "details": "See {IERC721-safeTransferFrom}."
      },
      "safeTransferFrom(address,address,uint256,bytes)": {
        "details": "See {IERC721-safeTransferFrom}."
      },
      "setApprovalForAll(address,bool)": {
        "details": "See {IERC721-setApprovalForAll}."
      },
      "supportsInterface(bytes4)": {
        "details": "See {IERC165-supportsInterface}.     * Time complexity O(1), guaranteed to always use less than 30 000 gas."
      },
      "symbol()": {
        "details": "See {IERC721Metadata-symbol}."
      },
      "tokenByIndex(uint256)": {
        "details": "See {IERC721Enumerable-tokenByIndex}."
      },
      "tokenOfOwnerByIndex(address,uint256)": {
        "details": "See {IERC721Enumerable-tokenOfOwnerByIndex}."
      },
      "tokenURI(uint256)": {
        "details": "See {IERC721Metadata-tokenURI}."
      },
      "totalSupply()": {
        "details": "See {IERC721Enumerable-totalSupply}."
      },
      "transferFrom(address,address,uint256)": {
        "details": "See {IERC721-transferFrom}."
      },
      "transferOwnership(address)": {
        "details": "Transfers ownership of the contract to a new account (`newOwner`). Can only be called by the current owner."
      }
    }
  },
  "userdoc": {
    "methods": {
      "constructor": "* Constructor inherits VRFConsumerBase      * Network: Rinkeby Chainlink VRF Coordinator address: 0xb3dCcb4Cf7a26f6cf6B120Cf5A73875B7BBc655B LINK token address:                0x01BE23585060835E02B77ef475b0Cc51aA1e0709 Key Hash: 0x2ed0feb3e7fd2022120aa84fab1945545a9f2ffc9076fd6156fa96eaff4c1311"
    }
  }
}