{
  "contractName": "PriceFeed",
  "abi": [
    {
      "inputs": [],
      "stateMutability": "nonpayable",
      "type": "constructor"
    },
    {
      "inputs": [],
      "name": "cryptoFeeds",
      "outputs": [
        {
          "internalType": "int256",
          "name": "",
          "type": "int256"
        },
        {
          "internalType": "int256",
          "name": "",
          "type": "int256"
        },
        {
          "internalType": "int256",
          "name": "",
          "type": "int256"
        },
        {
          "internalType": "int256",
          "name": "",
          "type": "int256"
        },
        {
          "internalType": "int256",
          "name": "",
          "type": "int256"
        },
        {
          "internalType": "int256",
          "name": "",
          "type": "int256"
        },
        {
          "internalType": "int256",
          "name": "",
          "type": "int256"
        },
        {
          "internalType": "int256",
          "name": "",
          "type": "int256"
        }
      ],
      "stateMutability": "view",
      "type": "function",
      "constant": true
    },
    {
      "inputs": [],
      "name": "currencyFeeds",
      "outputs": [
        {
          "internalType": "int256",
          "name": "",
          "type": "int256"
        },
        {
          "internalType": "int256",
          "name": "",
          "type": "int256"
        },
        {
          "internalType": "int256",
          "name": "",
          "type": "int256"
        },
        {
          "internalType": "int256",
          "name": "",
          "type": "int256"
        },
        {
          "internalType": "int256",
          "name": "",
          "type": "int256"
        },
        {
          "internalType": "int256",
          "name": "",
          "type": "int256"
        },
        {
          "internalType": "int256",
          "name": "",
          "type": "int256"
        }
      ],
      "stateMutability": "view",
      "type": "function",
      "constant": true
    },
    {
      "inputs": [],
      "name": "commodFeeds",
      "outputs": [
        {
          "internalType": "int256",
          "name": "",
          "type": "int256"
        },
        {
          "internalType": "int256",
          "name": "",
          "type": "int256"
        },
        {
          "internalType": "int256",
          "name": "",
          "type": "int256"
        }
      ],
      "stateMutability": "view",
      "type": "function",
      "constant": true
    },
    {
      "inputs": [],
      "name": "daiFeed",
      "outputs": [
        {
          "internalType": "int256",
          "name": "",
          "type": "int256"
        }
      ],
      "stateMutability": "view",
      "type": "function",
      "constant": true
    },
    {
      "inputs": [],
      "name": "ethFeed",
      "outputs": [
        {
          "internalType": "int256",
          "name": "",
          "type": "int256"
        }
      ],
      "stateMutability": "view",
      "type": "function",
      "constant": true
    },
    {
      "inputs": [],
      "name": "btcFeed",
      "outputs": [
        {
          "internalType": "int256",
          "name": "",
          "type": "int256"
        }
      ],
      "stateMutability": "view",
      "type": "function",
      "constant": true
    }
  ],
  "bytecode": "0x608060405234801561001057600080fd5b507321c095d2ada464a294956ea058077f14f66535af6000806101000a81548173ffffffffffffffffffffffffffffffffffffffff021916908373ffffffffffffffffffffffffffffffffffffffff16021790555073031db56e01f82f20803059331dc6bee9b17f7fc9600160006101000a81548173ffffffffffffffffffffffffffffffffffffffff021916908373ffffffffffffffffffffffffffffffffffffffff16021790555073cf0f51ca2cdaecb464eee4227f5295f2384f84ed600260006101000a81548173ffffffffffffffffffffffffffffffffffffffff021916908373ffffffffffffffffffffffffffffffffffffffff16021790555073ece365b379e1dd183b20fc5f022230c044d51404600360006101000a81548173ffffffffffffffffffffffffffffffffffffffff021916908373ffffffffffffffffffffffffffffffffffffffff160217905550735e601cf5ef284bcd12decbda189479413284e1d2600460006101000a81548173ffffffffffffffffffffffffffffffffffffffff021916908373ffffffffffffffffffffffffffffffffffffffff160217905550732ba49aaa16e6afd2a993473cfb70fa8559b523cf600560006101000a81548173ffffffffffffffffffffffffffffffffffffffff021916908373ffffffffffffffffffffffffffffffffffffffff160217905550736c2441920404835155f33d88faf0545b895871b1600660006101000a81548173ffffffffffffffffffffffffffffffffffffffff021916908373ffffffffffffffffffffffffffffffffffffffff160217905550738a753747a1fa494ec906ce90e9f37563a8af630e600760006101000a81548173ffffffffffffffffffffffffffffffffffffffff021916908373ffffffffffffffffffffffffffffffffffffffff1602179055507378f9e60608bf48a1155b4b2a5e31f32318a1d85f600860006101000a81548173ffffffffffffffffffffffffffffffffffffffff021916908373ffffffffffffffffffffffffffffffffffffffff16021790555073cf74110a02b1d391b27ce37364abc3b279b1d9d1600960006101000a81548173ffffffffffffffffffffffffffffffffffffffff021916908373ffffffffffffffffffffffffffffffffffffffff160217905550737b17a813eec55515fb8f49f2ef51502bc54dd40f600a60006101000a81548173ffffffffffffffffffffffffffffffffffffffff021916908373ffffffffffffffffffffffffffffffffffffffff160217905550733ae2f46a2d84e3d5590ee6ee5116b80caf77deca600b60006101000a81548173ffffffffffffffffffffffffffffffffffffffff021916908373ffffffffffffffffffffffffffffffffffffffff16021790555073d8bd0a1cb028a31aa859a21a3758685a95de4623600c60006101000a81548173ffffffffffffffffffffffffffffffffffffffff021916908373ffffffffffffffffffffffffffffffffffffffff160217905550734d38a35c2d87976f334c2d2379b535f1d461d9b4600d60006101000a81548173ffffffffffffffffffffffffffffffffffffffff021916908373ffffffffffffffffffffffffffffffffffffffff160217905550736292aa9a6650ae14fbf974e5029f36f95a1848fd600e60006101000a81548173ffffffffffffffffffffffffffffffffffffffff021916908373ffffffffffffffffffffffffffffffffffffffff160217905550739331b55d9830ef609a2abcfac0fbce050a52fdea600f60006101000a81548173ffffffffffffffffffffffffffffffffffffffff021916908373ffffffffffffffffffffffffffffffffffffffff16021790555073e96c4407597cd507002df88ff6e0008ab41266ee601060006101000a81548173ffffffffffffffffffffffffffffffffffffffff021916908373ffffffffffffffffffffffffffffffffffffffff16021790555073b29f616a0d54ff292e997922fff46012a63e2fae601160006101000a81548173ffffffffffffffffffffffffffffffffffffffff021916908373ffffffffffffffffffffffffffffffffffffffff16021790555073a24de01df22b63d23ebc1882a5e3d4ec0d907bfb601260006101000a81548173ffffffffffffffffffffffffffffffffffffffff021916908373ffffffffffffffffffffffffffffffffffffffff160217905550739c1946428f4f159db4889aa6b218833f467e1bfd601360006101000a81548173ffffffffffffffffffffffffffffffffffffffff021916908373ffffffffffffffffffffffffffffffffffffffff1602179055507381570059a0cb83888f1459ec66aad1ac16730243601460006101000a81548173ffffffffffffffffffffffffffffffffffffffff021916908373ffffffffffffffffffffffffffffffffffffffff16021790555073ab4a352ac35dfe83221220d967db41ee61a0defa601560006101000a81548173ffffffffffffffffffffffffffffffffffffffff021916908373ffffffffffffffffffffffffffffffffffffffff16021790555073c3e76f41caba4ab38f00c7255d4df663da02a024601660006101000a81548173ffffffffffffffffffffffffffffffffffffffff021916908373ffffffffffffffffffffffffffffffffffffffff16021790555073f57fca8b932c43dfe560d3274262b2597bcd2e5a601760006101000a81548173ffffffffffffffffffffffffffffffffffffffff021916908373ffffffffffffffffffffffffffffffffffffffff16021790555073f7bbe4d7d13d600127b6aa132f1dcea301e9c8fc601860006101000a81548173ffffffffffffffffffffffffffffffffffffffff021916908373ffffffffffffffffffffffffffffffffffffffff160217905550731a602d4928faf0a153a520f58b332f9caff320f7601960006101000a81548173ffffffffffffffffffffffffffffffffffffffff021916908373ffffffffffffffffffffffffffffffffffffffff160217905550730630521ac362bc7a19a4ee44b57ce72ea34ad01c601a60006101000a81548173ffffffffffffffffffffffffffffffffffffffff021916908373ffffffffffffffffffffffffffffffffffffffff16021790555061139a806109166000396000f3fe608060405234801561001057600080fd5b50600436106100625760003560e01c80635e19d05c146100675780637346802c146100855780639068a960146100d4578063bdb8306a14610100578063c23d2a4a14610148578063f441d6fa14610166575b600080fd5b61006f610184565b6040518082815260200191505060405180910390f35b61008d61025f565b604051808981526020018881526020018781526020018681526020018581526020018481526020018381526020018281526020019850505050505050505060405180910390f35b6100dc61092d565b60405180848152602001838152602001828152602001935050505060405180910390f35b610108610bbb565b6040518088815260200187815260200186815260200185815260200184815260200183815260200182815260200197505050505050505060405180910390f35b6101506111ae565b6040518082815260200191505060405180910390f35b61016e611289565b6040518082815260200191505060405180910390f35b600080600760009054906101000a900473ffffffffffffffffffffffffffffffffffffffff1673ffffffffffffffffffffffffffffffffffffffff1663feaf968c6040518163ffffffff1660e01b815260040160a06040518083038186803b1580156101ef57600080fd5b505afa158015610203573d6000803e3d6000fd5b505050506040513d60a081101561021957600080fd5b8101908080519060200190929190805190602001909291908051906020019092919080519060200190929190805190602001909291905050505050509150508091505090565b6000806000806000806000806000600160009054906101000a900473ffffffffffffffffffffffffffffffffffffffff1673ffffffffffffffffffffffffffffffffffffffff1663feaf968c6040518163ffffffff1660e01b815260040160a06040518083038186803b1580156102d557600080fd5b505afa1580156102e9573d6000803e3d6000fd5b505050506040513d60a08110156102ff57600080fd5b8101908080519060200190929190805190602001909291908051906020019092919080519060200190929190805190602001909291905050505050509150506000600260009054906101000a900473ffffffffffffffffffffffffffffffffffffffff1673ffffffffffffffffffffffffffffffffffffffff1663feaf968c6040518163ffffffff1660e01b815260040160a06040518083038186803b1580156103a857600080fd5b505afa1580156103bc573d6000803e3d6000fd5b505050506040513d60a08110156103d257600080fd5b8101908080519060200190929190805190602001909291908051906020019092919080519060200190929190805190602001909291905050505050509150506000600360009054906101000a900473ffffffffffffffffffffffffffffffffffffffff1673ffffffffffffffffffffffffffffffffffffffff1663feaf968c6040518163ffffffff1660e01b815260040160a06040518083038186803b15801561047b57600080fd5b505afa15801561048f573d6000803e3d6000fd5b505050506040513d60a08110156104a557600080fd5b8101908080519060200190929190805190602001909291908051906020019092919080519060200190929190805190602001909291905050505050509150506000600760009054906101000a900473ffffffffffffffffffffffffffffffffffffffff1673ffffffffffffffffffffffffffffffffffffffff1663feaf968c6040518163ffffffff1660e01b815260040160a06040518083038186803b15801561054e57600080fd5b505afa158015610562573d6000803e3d6000fd5b505050506040513d60a081101561057857600080fd5b8101908080519060200190929190805190602001909291908051906020019092919080519060200190929190805190602001909291905050505050509150506000600c60009054906101000a900473ffffffffffffffffffffffffffffffffffffffff1673ffffffffffffffffffffffffffffffffffffffff1663feaf968c6040518163ffffffff1660e01b815260040160a06040518083038186803b15801561062157600080fd5b505afa158015610635573d6000803e3d6000fd5b505050506040513d60a081101561064b57600080fd5b8101908080519060200190929190805190602001909291908051906020019092919080519060200190929190805190602001909291905050505050509150506000600f60009054906101000a900473ffffffffffffffffffffffffffffffffffffffff1673ffffffffffffffffffffffffffffffffffffffff1663feaf968c6040518163ffffffff1660e01b815260040160a06040518083038186803b1580156106f457600080fd5b505afa158015610708573d6000803e3d6000fd5b505050506040513d60a081101561071e57600080fd5b8101908080519060200190929190805190602001909291908051906020019092919080519060200190929190805190602001909291905050505050509150506000601060009054906101000a900473ffffffffffffffffffffffffffffffffffffffff1673ffffffffffffffffffffffffffffffffffffffff1663feaf968c6040518163ffffffff1660e01b815260040160a06040518083038186803b1580156107c757600080fd5b505afa1580156107db573d6000803e3d6000fd5b505050506040513d60a08110156107f157600080fd5b8101908080519060200190929190805190602001909291908051906020019092919080519060200190929190805190602001909291905050505050509150506000601860009054906101000a900473ffffffffffffffffffffffffffffffffffffffff1673ffffffffffffffffffffffffffffffffffffffff1663feaf968c6040518163ffffffff1660e01b815260040160a06040518083038186803b15801561089a57600080fd5b505afa1580156108ae573d6000803e3d6000fd5b505050506040513d60a08110156108c457600080fd5b81019080805190602001909291908051906020019092919080519060200190929190805190602001909291908051906020019092919050505050505091505087878787878787879f509f509f509f509f509f509f509f5050505050505050509091929394959697565b600080600080600e60009054906101000a900473ffffffffffffffffffffffffffffffffffffffff1673ffffffffffffffffffffffffffffffffffffffff1663feaf968c6040518163ffffffff1660e01b815260040160a06040518083038186803b15801561099b57600080fd5b505afa1580156109af573d6000803e3d6000fd5b505050506040513d60a08110156109c557600080fd5b8101908080519060200190929190805190602001909291908051906020019092919080519060200190929190805190602001909291905050505050509150506000601360009054906101000a900473ffffffffffffffffffffffffffffffffffffffff1673ffffffffffffffffffffffffffffffffffffffff1663feaf968c6040518163ffffffff1660e01b815260040160a06040518083038186803b158015610a6e57600080fd5b505afa158015610a82573d6000803e3d6000fd5b505050506040513d60a0811015610a9857600080fd5b8101908080519060200190929190805190602001909291908051906020019092919080519060200190929190805190602001909291905050505050509150506000601460009054906101000a900473ffffffffffffffffffffffffffffffffffffffff1673ffffffffffffffffffffffffffffffffffffffff1663feaf968c6040518163ffffffff1660e01b815260040160a06040518083038186803b158015610b4157600080fd5b505afa158015610b55573d6000803e3d6000fd5b505050506040513d60a0811015610b6b57600080fd5b810190808051906020019092919080519060200190929190805190602001909291908051906020019092919080519060200190929190505050505050915050828282955095509550505050909192565b6000806000806000806000806000809054906101000a900473ffffffffffffffffffffffffffffffffffffffff1673ffffffffffffffffffffffffffffffffffffffff1663feaf968c6040518163ffffffff1660e01b815260040160a06040518083038186803b158015610c2e57600080fd5b505afa158015610c42573d6000803e3d6000fd5b505050506040513d60a0811015610c5857600080fd5b8101908080519060200190929190805190602001909291908051906020019092919080519060200190929190805190602001909291905050505050509150506000600460009054906101000a900473ffffffffffffffffffffffffffffffffffffffff1673ffffffffffffffffffffffffffffffffffffffff1663feaf968c6040518163ffffffff1660e01b815260040160a06040518083038186803b158015610d0157600080fd5b505afa158015610d15573d6000803e3d6000fd5b505050506040513d60a0811015610d2b57600080fd5b8101908080519060200190929190805190602001909291908051906020019092919080519060200190929190805190602001909291905050505050509150506000600860009054906101000a900473ffffffffffffffffffffffffffffffffffffffff1673ffffffffffffffffffffffffffffffffffffffff1663feaf968c6040518163ffffffff1660e01b815260040160a06040518083038186803b158015610dd457600080fd5b505afa158015610de8573d6000803e3d6000fd5b505050506040513d60a0811015610dfe57600080fd5b8101908080519060200190929190805190602001909291908051906020019092919080519060200190929190805190602001909291905050505050509150506000600a60009054906101000a900473ffffffffffffffffffffffffffffffffffffffff1673ffffffffffffffffffffffffffffffffffffffff1663feaf968c6040518163ffffffff1660e01b815260040160a06040518083038186803b158015610ea757600080fd5b505afa158015610ebb573d6000803e3d6000fd5b505050506040513d60a0811015610ed157600080fd5b8101908080519060200190929190805190602001909291908051906020019092919080519060200190929190805190602001909291905050505050509150506000600b60009054906101000a900473ffffffffffffffffffffffffffffffffffffffff1673ffffffffffffffffffffffffffffffffffffffff1663feaf968c6040518163ffffffff1660e01b815260040160a06040518083038186803b158015610f7a57600080fd5b505afa158015610f8e573d6000803e3d6000fd5b505050506040513d60a0811015610fa457600080fd5b8101908080519060200190929190805190602001909291908051906020019092919080519060200190929190805190602001909291905050505050509150506000601260009054906101000a900473ffffffffffffffffffffffffffffffffffffffff1673ffffffffffffffffffffffffffffffffffffffff1663feaf968c6040518163ffffffff1660e01b815260040160a06040518083038186803b15801561104d57600080fd5b505afa158015611061573d6000803e3d6000fd5b505050506040513d60a081101561107757600080fd5b8101908080519060200190929190805190602001909291908051906020019092919080519060200190929190805190602001909291905050505050509150506000600560009054906101000a900473ffffffffffffffffffffffffffffffffffffffff1673ffffffffffffffffffffffffffffffffffffffff1663feaf968c6040518163ffffffff1660e01b815260040160a06040518083038186803b15801561112057600080fd5b505afa158015611134573d6000803e3d6000fd5b505050506040513d60a081101561114a57600080fd5b810190808051906020019092919080519060200190929190805190602001909291908051906020019092919080519060200190929190505050505050915050868686868686869d509d509d509d509d509d509d505050505050505090919293949596565b600080600360009054906101000a900473ffffffffffffffffffffffffffffffffffffffff1673ffffffffffffffffffffffffffffffffffffffff1663feaf968c6040518163ffffffff1660e01b815260040160a06040518083038186803b15801561121957600080fd5b505afa15801561122d573d6000803e3d6000fd5b505050506040513d60a081101561124357600080fd5b8101908080519060200190929190805190602001909291908051906020019092919080519060200190929190805190602001909291905050505050509150508091505090565b600080600560009054906101000a900473ffffffffffffffffffffffffffffffffffffffff1673ffffffffffffffffffffffffffffffffffffffff1663feaf968c6040518163ffffffff1660e01b815260040160a06040518083038186803b1580156112f457600080fd5b505afa158015611308573d6000803e3d6000fd5b505050506040513d60a081101561131e57600080fd5b810190808051906020019092919080519060200190929190805190602001909291908051906020019092919080519060200190929190505050505050915050809150509056fea2646970667358221220254cc19524199ae9c12f58197e37ee924cf5ec375a5ce81c2021f226d19768b064736f6c63430006060033",
  "immutableReferences": {},
  "source": "// SPDX-License-Identifier: MIT\npragma solidity ^0.6.6;\n\nimport \"@chainlink/contracts/src/v0.6/interfaces/AggregatorV3Interface.sol\";\n\ncontract PriceFeed {\n    AggregatorV3Interface internal AUDprice;\n    AggregatorV3Interface internal BATprice;\n    AggregatorV3Interface internal BNBprice;\n    AggregatorV3Interface internal BTCprice;\n    AggregatorV3Interface internal CHFprice;\n    AggregatorV3Interface internal DAIprice;\n    AggregatorV3Interface internal EQZprice;\n    AggregatorV3Interface internal ETHprice;\n    AggregatorV3Interface internal EURprice;\n    AggregatorV3Interface internal FNXprice;\n    AggregatorV3Interface internal GBPprice;\n    AggregatorV3Interface internal JPYprice;\n    AggregatorV3Interface internal LINKprice;\n    AggregatorV3Interface internal LTCprice;\n    AggregatorV3Interface internal OILprice;\n    AggregatorV3Interface internal REPprice;\n    AggregatorV3Interface internal SNXprice;\n    AggregatorV3Interface internal TRXprice;\n    AggregatorV3Interface internal USDCprice;\n    AggregatorV3Interface internal XAGprice;\n    AggregatorV3Interface internal XAUprice;\n    AggregatorV3Interface internal XFTprice;\n    AggregatorV3Interface internal XRPprice;\n    AggregatorV3Interface internal XTZprice;\n    AggregatorV3Interface internal ZRXprice;\n    AggregatorV3Interface internal sCEXprice;\n    AggregatorV3Interface internal sDEFIprice;\n\n    constructor() public {\n        // Rinkeby SETUP COMPLETE\n\n        AUDprice = AggregatorV3Interface(\n            0x21c095d2aDa464A294956eA058077F14F66535af\n        );\n        BATprice = AggregatorV3Interface(\n            0x031dB56e01f82f20803059331DC6bEe9b17F7fC9\n        );\n        BNBprice = AggregatorV3Interface(\n            0xcf0f51ca2cDAecb464eeE4227f5295F2384F84ED\n        );\n        BTCprice = AggregatorV3Interface(\n            0xECe365B379E1dD183B20fc5f022230C044d51404\n        );\n        CHFprice = AggregatorV3Interface(\n            0x5e601CF5EF284Bcd12decBDa189479413284E1d2\n        );\n        DAIprice = AggregatorV3Interface(\n            0x2bA49Aaa16E6afD2a993473cfB70Fa8559B523cF\n        );\n        EQZprice = AggregatorV3Interface(\n            0x6C2441920404835155f33d88faf0545B895871b1\n        );\n        ETHprice = AggregatorV3Interface(\n            0x8A753747A1Fa494EC906cE90E9f37563A8AF630e\n        );\n        EURprice = AggregatorV3Interface(\n            0x78F9e60608bF48a1155b4B2A5e31F32318a1d85F\n        );\n        FNXprice = AggregatorV3Interface(\n            0xcf74110A02b1D391B27cE37364ABc3b279B1d9D1\n        );\n        GBPprice = AggregatorV3Interface(\n            0x7B17A813eEC55515Fb8F49F2ef51502bC54DD40F\n        );\n        JPYprice = AggregatorV3Interface(\n            0x3Ae2F46a2D84e3D5590ee6Ee5116B80caF77DeCA\n        );\n        LINKprice = AggregatorV3Interface(\n            0xd8bD0a1cB028a31AA859A21A3758685a95dE4623\n        );\n        LTCprice = AggregatorV3Interface(\n            0x4d38a35C2D87976F334c2d2379b535F1D461D9B4\n        );\n        OILprice = AggregatorV3Interface(\n            0x6292aA9a6650aE14fbf974E5029f36F95a1848Fd\n        );\n        REPprice = AggregatorV3Interface(\n            0x9331b55D9830EF609A2aBCfAc0FBCE050A52fdEa\n        );\n        SNXprice = AggregatorV3Interface(\n            0xE96C4407597CD507002dF88ff6E0008AB41266Ee\n        );\n        TRXprice = AggregatorV3Interface(\n            0xb29f616a0d54FF292e997922fFf46012a63E2FAe\n        );\n        USDCprice = AggregatorV3Interface(\n            0xa24de01df22b63d23Ebc1882a5E3d4ec0d907bFB\n        );\n        XAGprice = AggregatorV3Interface(\n            0x9c1946428f4f159dB4889aA6B218833f467e1BfD\n        );\n        XAUprice = AggregatorV3Interface(\n            0x81570059A0cb83888f1459Ec66Aad1Ac16730243\n        );\n        XFTprice = AggregatorV3Interface(\n            0xab4a352ac35dFE83221220D967Db41ee61A0DeFa\n        );\n        XRPprice = AggregatorV3Interface(\n            0xc3E76f41CAbA4aB38F00c7255d4df663DA02A024\n        );\n        XTZprice = AggregatorV3Interface(\n            0xf57FCa8B932c43dFe560d3274262b2597BCD2e5A\n        );\n        ZRXprice = AggregatorV3Interface(\n            0xF7Bbe4D7d13d600127B6Aa132f1dCea301e9c8Fc\n        );\n        sCEXprice = AggregatorV3Interface(\n            0x1a602D4928faF0A153A520f58B332f9CAFF320f7\n        );\n        sDEFIprice = AggregatorV3Interface(\n            0x0630521aC362bc7A19a4eE44b57cE72Ea34AD01c\n        );\n        /* */\n    }\n\n    function cryptoFeeds()\n        public\n        view\n        returns (\n            int256,\n            int256,\n            int256,\n            int256,\n            int256,\n            int256,\n            int256,\n            int256\n        )\n    {\n        (, int256 batPrice, , , ) = BATprice.latestRoundData();\n        (, int256 bnbPrice, , , ) = BNBprice.latestRoundData();\n        (, int256 btcPrice, , , ) = BTCprice.latestRoundData();\n        (, int256 ethPrice, , , ) = ETHprice.latestRoundData();\n        (, int256 linkPrice, , , ) = LINKprice.latestRoundData();\n        (, int256 repPrice, , , ) = REPprice.latestRoundData();\n        (, int256 snxPrice, , , ) = SNXprice.latestRoundData();\n        (, int256 zrxPrice, , , ) = ZRXprice.latestRoundData();\n        return (\n            batPrice,\n            bnbPrice,\n            btcPrice,\n            ethPrice,\n            linkPrice,\n            repPrice,\n            snxPrice,\n            zrxPrice\n        );\n    }\n\n    function currencyFeeds()\n        public\n        view\n        returns (\n            int256,\n            int256,\n            int256,\n            int256,\n            int256,\n            int256,\n            int256\n        )\n    {\n        (, int256 audPrice, , , ) = AUDprice.latestRoundData();\n        (, int256 chfPrice, , , ) = CHFprice.latestRoundData();\n        (, int256 eurPrice, , , ) = EURprice.latestRoundData();\n        (, int256 gbpPrice, , , ) = GBPprice.latestRoundData();\n        (, int256 jpyPrice, , , ) = JPYprice.latestRoundData();\n        (, int256 usdcPrice, , , ) = USDCprice.latestRoundData();\n        (, int256 daiPrice, , , ) = DAIprice.latestRoundData();\n        return (\n            audPrice,\n            chfPrice,\n            eurPrice,\n            gbpPrice,\n            jpyPrice,\n            usdcPrice,\n            daiPrice\n        );\n    }\n\n    function commodFeeds()\n        public\n        view\n        returns (\n            int256,\n            int256,\n            int256\n        )\n    {\n        (, int256 oilPrice, , , ) = OILprice.latestRoundData();\n        (, int256 xagPrice, , , ) = XAGprice.latestRoundData();\n        (, int256 xauPrice, , , ) = XAUprice.latestRoundData();\n\n        return (oilPrice, xagPrice, xauPrice);\n    }\n\n    function daiFeed() public view returns (int256) {\n        (, int256 daiPrice, , , ) = DAIprice.latestRoundData();\n        return (daiPrice);\n    }\n\n    function ethFeed() public view returns (int256) {\n        (, int256 ethPrice, , , ) = ETHprice.latestRoundData();\n        return (ethPrice);\n    }\n\n    function btcFeed() public view returns (int256) {\n        (, int256 btcPrice, , , ) = BTCprice.latestRoundData();\n        return (btcPrice);\n    }\n    /*\n    function customFeed(address _feedAdr) public returns (int256) {\n        customPriceFeed = AggregatorV3Interface(_feedAdr);\n        (, int256 customPrice, , , ) = customPriceFeed.latestRoundData();\n        return (customPrice);\n    }\n\n    function ethBtc() public view returns (int256) {\n        int256 eth = ethFeed();\n        int256 btc = btcFeed();\n        return (btc / eth);\n    }\n\n    function ethYfi() public view returns (int256) {\n        int256 eth = ethFeed();\n        int256 yfi = yfiFeed();\n        return (yfi / eth);\n    }\n\n    function customRatio(address _one, address _two) public returns (int256) {\n        int256 one = customFeed(_one);\n        int256 two = customFeed(_two);\n        return (one / two);\n    } /* */\n}\n",
  "sourcePath": "/Users/iii6/Documents/FractioFramework/Repos/fractio/src/contracts/PriceFeed.sol",
  "compiler": {
    "name": "solc",
    "version": "0.6.6+commit.6c089d02.Emscripten.clang"
  },
  "schemaVersion": "3.4.1",
  "updatedAt": "2021-08-18T23:06:53.504Z",
  "networkType": "ethereum",
  "devdoc": {
    "methods": {}
  },
  "userdoc": {
    "methods": {}
  }
}