{
  "contractName": "PriceConsumerV3",
  "abi": [
    {
      "inputs": [],
      "stateMutability": "nonpayable",
      "type": "constructor"
    },
    {
      "inputs": [],
      "name": "getLatestPrices",
      "outputs": [
        {
          "internalType": "int256",
          "name": "",
          "type": "int256"
        },
        {
          "internalType": "int256",
          "name": "",
          "type": "int256"
        },
        {
          "internalType": "int256",
          "name": "",
          "type": "int256"
        }
      ],
      "stateMutability": "view",
      "type": "function"
    }
  ],
  "bytecode": "0x608060405234801561001057600080fd5b50738a753747a1fa494ec906ce90e9f37563a8af630e600260006101000a81548173ffffffffffffffffffffffffffffffffffffffff021916908373ffffffffffffffffffffffffffffffffffffffff16021790555073ece365b379e1dd183b20fc5f022230c044d51404600160006101000a81548173ffffffffffffffffffffffffffffffffffffffff021916908373ffffffffffffffffffffffffffffffffffffffff16021790555073d8bd0a1cb028a31aa859a21a3758685a95de46236000806101000a81548173ffffffffffffffffffffffffffffffffffffffff021916908373ffffffffffffffffffffffffffffffffffffffff16021790555061031f8061011e6000396000f3fe608060405234801561001057600080fd5b506004361061002b5760003560e01c8063ff61ba5c14610030575b600080fd5b61003861005c565b60405180848152602001838152602001828152602001935050505060405180910390f35b600080600080600260009054906101000a900473ffffffffffffffffffffffffffffffffffffffff1673ffffffffffffffffffffffffffffffffffffffff1663feaf968c6040518163ffffffff1660e01b815260040160a06040518083038186803b1580156100ca57600080fd5b505afa1580156100de573d6000803e3d6000fd5b505050506040513d60a08110156100f457600080fd5b8101908080519060200190929190805190602001909291908051906020019092919080519060200190929190805190602001909291905050505050509150506000600160009054906101000a900473ffffffffffffffffffffffffffffffffffffffff1673ffffffffffffffffffffffffffffffffffffffff1663feaf968c6040518163ffffffff1660e01b815260040160a06040518083038186803b15801561019d57600080fd5b505afa1580156101b1573d6000803e3d6000fd5b505050506040513d60a08110156101c757600080fd5b81019080805190602001909291908051906020019092919080519060200190929190805190602001909291908051906020019092919050505050505091505060008060009054906101000a900473ffffffffffffffffffffffffffffffffffffffff1673ffffffffffffffffffffffffffffffffffffffff1663feaf968c6040518163ffffffff1660e01b815260040160a06040518083038186803b15801561026f57600080fd5b505afa158015610283573d6000803e3d6000fd5b505050506040513d60a081101561029957600080fd5b81019080805190602001909291908051906020019092919080519060200190929190805190602001909291908051906020019092919050505050505091505082828295509550955050505090919256fea2646970667358221220452eb42a51f00d8a9cdad2518b5cd85ee73de89b8e8a739d65ebfa6aa2b81e5464736f6c63430006060033",
  "immutableReferences": {},
  "source": "// SPDX-License-Identifier: MIT\npragma solidity ^0.6.6;\n\nimport \"@chainlink/contracts/src/v0.6/interfaces/AggregatorV3Interface.sol\";\n\ncontract PriceConsumerV3 {\n    AggregatorV3Interface internal linkPriceFeed;\n    AggregatorV3Interface internal btcPriceFeed;\n    AggregatorV3Interface internal ethPriceFeed;\n    AggregatorV3Interface internal priceFeed;\n\n    constructor() public {\n        ethPriceFeed = AggregatorV3Interface(\n            0x8A753747A1Fa494EC906cE90E9f37563A8AF630e\n        );\n        btcPriceFeed = AggregatorV3Interface(\n            0xECe365B379E1dD183B20fc5f022230C044d51404\n        );\n        linkPriceFeed = AggregatorV3Interface(\n            0xd8bD0a1cB028a31AA859A21A3758685a95dE4623\n        );\n\n        // priceFeed = AggregatorV3Interface(_priceFeed);\n    }\n\n    function getLatestPrices()\n        public\n        view\n        returns (\n            int256,\n            int256,\n            int256\n        )\n    {\n        (, int256 ethPrice, , , ) = ethPriceFeed.latestRoundData();\n        (, int256 btcPrice, , , ) = btcPriceFeed.latestRoundData();\n        (, int256 linkPrice, , , ) = linkPriceFeed.latestRoundData();\n        return (ethPrice, btcPrice, linkPrice);\n    }\n\n}\n",
  "sourcePath": "/Users/iii6/Documents/FractioFramework/Repos/fractio/src/contracts/PriceConsumerV3.sol",
  "compiler": {
    "name": "solc",
    "version": "0.6.6+commit.6c089d02.Emscripten.clang"
  },
  "schemaVersion": "3.4.1",
  "updatedAt": "2021-08-03T11:34:54.314Z",
  "devdoc": {
    "methods": {}
  },
  "userdoc": {
    "methods": {}
  }
}